:100000000C9448030C9470030C9470030C947003CC
:100010000C9470030C9470030C9470030C947D1971
:100020000C9470030C9470030C9470030C94700384
:100030000C9470030C9470030C9470030C94700374
:100040000C9400190C9470030C947D170C945717A2
:100050000C9470030C9470030C9470030C94700354
:100060000C94AE0C0C94700307634236B79BD8A770
:100070001A39685618AEBAAB558C1D3CB7CC5763CD
:10008000BD6DEDFD753EF6177231BF000000803F7B
:1000900008000000BE922449123EABAAAA2ABECD97
:1000A000CCCC4C3E00000080BEABAAAAAA3E000009
:1000B0000000BF000000803F000000000008417801
:1000C000D3BB4387D1133D190E3CC3BD4282AD2B38
:1000D0003E68EC8276BED98FE1A93E4C80EFFFBE30
:1000E00001C4FF7F3F00000000004E414E494E49D1
:1000F0005459494E46CDCCCC3D0AD7233C17B7D1F5
:100100003877CC2B329595E6241FB14F0A0000209A
:10011000410000C84200401C4620BCBE4CCA1B0E19
:100120005AAEC59D746364696E6F70737578585B61
:100130000000000000003E5B4F5B3E3E6B4F6B3E9D
:100140001C3E7C3E1C183C7E3C181C577D571C1CDA
:100150005E7F5E1C00183C1800FFE7C3E7FF001835
:10016000241800FFE7DBE7FF30483A060E2629791E
:100170002926407F050507407F05253F5A3CE73C7F
:100180005A7F3E1C1C08081C1C3E7F14227F221430
:100190005F5F005F5F06097F017F006689956A6087
:1001A0006060606094A2FFA29408047E040810209E
:1001B0007E201008082A1C08081C2A08081E101097
:1001C00010100C1E0C1E0C30383E3830060E3E0E41
:1001D00006000000000000005F00000007000700AC
:1001E000147F147F14242A7F2A1223130864623692
:1001F000495620500008070300001C22410000411E
:10020000221C002A1C7F1C2A08083E080800807057
:10021000300008080808080000606000201008048A
:10022000023E5149453E00427F40007249494946DD
:100230002141494D331814127F1027454545393C5B
:100240004A49493141211109073649494936464948
:1002500049291E000014000000403400000008146A
:1002600022411414141414004122140802015909E3
:10027000063E415D594E7C1211127C7F4949493638
:100280003E414141227F4141413E7F494949417FB1
:10029000090909013E414151737F0808087F004167
:1002A0007F41002040413F017F081422417F4040B0
:1002B00040407F021C027F7F0408107F3E41414185
:1002C0003E7F090909063E4151215E7F09192946F1
:1002D000264949493203017F01033F4040403F1F07
:1002E0002040201F3F4038403F631408146303043C
:1002F0007804036159494D43007F4141410204089C
:100300001020004141417F0402010204404040406E
:1003100040000307080020545478407F28444438A4
:100320003844444428384444287F385454541800EE
:10033000087E090218A4A49C787F0804047800446D
:100340007D40002040403D007F1028440000417F58
:1003500040007C047804787C0804047838444444E1
:1003600038FC1824241818242418FC7C08040408D9
:10037000485454542404043F44243C4040207C1CF2
:100380002040201C3C4030403C44281028444C90E5
:1003900090907C4464544C4400083641000000773F
:1003A0000000004136080002010204023C26232618
:1003B0003C1EA1A161123A4040207A38545455594C
:1003C0002155557941225454784221555478402082
:1003D000545579400C1E527212395555555939549D
:1003E00054545939555454580000457C4100024535
:1003F0007D420001457C407D1211127DF0282528A8
:10040000F07C545545002054547C547C0A097F49A3
:1004100032494949323A4444443A324A4848303AE7
:100420004141217A3A42402078009DA0A07D3D4282
:1004300042423D3D4040403D3C24FF2424487E490B
:1004400043662B2FFC2F2BFF0929F620C0887E093D
:100450000320545479410000447D413048484A32D9
:10046000384040227A007A0A0A727D0D19317D26C1
:1004700029292F28262929292630484D40203808A7
:1004800008080808080808382F10C8ACBA2F102828
:1004900034FA00007B000008142A142222142A14C3
:1004A000085500550055AA55AA55AAFF55FF55FFF6
:1004B000000000FF00101010FF00141414FF0010C3
:1004C00010FF00FF1010F010F0141414FC001414AE
:1004D000F700FF0000FF00FF1414F404FC141417CD
:1004E000101F10101F101F1414141F00101010F0F4
:1004F000000000001F101010101F10101010F0103E
:10050000000000FF101010101010101010FF10004D
:100510000000FF140000FF00FF00001F1017000084
:10052000FC04F414141710171414F404F40000FF5E
:1005300000F714141414141414F700F714141417F7
:100540001410101F101F141414F4141010F010F0D5
:1005500000001F101F0000001F14000000FC14000A
:1005600000F010F01010FF10FF141414FF141010FE
:10057000101F00000000F010FFFFFFFFFFF0F0F081
:10058000F0F0FFFFFF0000000000FFFF0F0F0F0F54
:100590000F3844443844FC4A4A4A347E0202060674
:1005A000027E027E0263554941633844443C044064
:1005B0007E201E2006027E020299A5E7A5991C2A2C
:1005C000492A1C4C7201724C304A4D4D30304878EB
:1005D0004830BC625A463D3E494949007E0101010E
:1005E0007E2A2A2A2A2A44445F444440514A4440ED
:1005F00040444A51400000FF0103E080FF00000832
:10060000086B6B083612362436060F090F060000F9
:1006100018180000001010003040FF0101001F01F9
:10062000011E00191D1712003C3C3C3C000000005C
:100630000000000000230026002900000000080040
:100640000201000003040700000000000000000099
:10065000000000240027002A0000000000250028D8
:10066000002B000404040404040404020202020235
:100670000203030303030301020408102040800166
:10068000020408102001020408102000C12AB52A23
:1006900011241FBECFEFD8E0DEBFCDBF12E0A0E037
:1006A000B1E0E4E9F3E702C005900D92A237B1078B
:1006B000D9F726E0A2E7B2E001C01D92A63DB2073D
:1006C000E1F713E0C7E4D3E004C02197FE010E94E4
:1006D0007B34C634D107C9F70E941A200C94BD3967
:1006E0000C9400000895FC016370658B84819581F2
:1006F00026813781613039F0633029F09187808716
:1007000033872287089531872087938782870895CA
:100710002F923F924F925F926F927F928F929F9211
:10072000AF92BF92CF92DF92EF92FF920F931F93FF
:10073000CF93DF93CDB7DEB76C970FB6F894DEBFDB
:100740000FBECDBF9C8F8B8F5B011A011F830E8361
:100750003701C982DC0158964D915C91599741153A
:10076000510509F0E5C018968D919C91199768176D
:1007700079070CF0CAC11A968D919C911B97281687
:1007800039060CF0C2C18C2C912CFB0136E0C39EC3
:10079000E00DF11D1124FB87EA871E161F060CF0E1
:1007A000B4C1C40133E0880F991F3A95E1F79D87E2
:1007B0008C87820D931D181619060CF0A6C157964A
:1007C0008C91811103C0203B08F02F5FAB8DBC8D55
:1007D000ED91FC9111970680F781E02DCD012A8FD4
:1007E00009952A8DB5E02B9F90011124F5013596CE
:1007F000FF87EE87BB82AA822501A9014A195B09FE
:10080000598B488BC10108969B8B8A8BE889F989A3
:10081000E40DF51DEF5CFE4F9491988761013D82D8
:100820002C82A885A0FF13C0AB8DBC8DED91FC91EF
:10083000B981B13031F40084F185E02D2E813F8102
:1008400016C00284F385E02DEE80FF801AC0EE8191
:10085000FF816E167F06F1F0AB8DBC8DED91FC91A2
:10086000B981B13051F40084F185E02D9301A601E6
:10087000B2018B8D9C8D09950DC00284F385E02D0E
:100880007301840194014C815D816A817B818B8D30
:100890009C8D0995E885E695E887FFEFCF1ADF0A7A
:1008A0002C813D81280D391D3D832C834A895B892C
:1008B000C416D50609F0B5CF5FEF451A550A8A81EF
:1008C0009B81880D991D9B838A83AE85BF854A16BF
:1008D0005B0609F09BCFEE81FF816E167F0609F45F
:1008E000F2C0EB8DFC8DA081B181F981F13079F4FA
:1008F000B5016B5F7F4F1C96ED91FC911D978301B5
:1009000028E030E0A1018B8D9C8D0995DCC06A85C3
:100910007B85681979091A96ED91FC911B977301F3
:100920000C851D859401A1018B8D9C8D0995CBC0F3
:10093000FA0134969491329765917491291BCB01F9
:10094000B7E02B9F800D911D1124FA012591349160
:100950003B8B2A8BFC01459154915B834A83FC01BC
:100960003296C490319654915E87329614913196A6
:10097000D4908981823058F0612E012E000C7708C6
:10098000AD2D0D2C000CBB0BB987A88704C01986B0
:100990001886612C712CAB8DBC8DED91FC9111975B
:1009A0000680F781E02DCD010995B9818B2E912C20
:1009B000689CC001699C900D789C900D1124FC01ED
:1009C000EA0DFB1DFD87EC871C82712C612CE12F49
:1009D000110FFF0B95012E0F3F1F3B872A87AC0C91
:1009E000B11CA5014E0F5F1F5F8B4E8BC1018D0D9A
:1009F000911DD7FC9A95998F888F4E85641608F0C3
:100A000062C0862D90E048855985480F591F489D42
:100A10009001499D300D589D300D1124D901A20D32
:100A2000B31DB98BA88BAA84BB844C845D84DC8005
:100A3000BA85DB1AE88DF98DE80FF91FFD8BEC8B79
:100A40008D2D8A0D2E893F89A216B306B9F18770C4
:100A500061F48A819B810196EA89FB89AA81BB8125
:100A6000EA0FFB1F74909B838A8377FE20C0AB8DB7
:100A7000BC8DED91FC91B981B13061F40084F185B8
:100A8000E02D2E813F814C895D89B5018B8D9C8D38
:100A900009950DC00284F385E02DEE80FF8084016E
:100AA000940148895989B2018B8D9C8D0995770CE9
:100AB000EFEFAE1ABE0A480C591CC2CF3C813C0D68
:100AC0003C8363949ACFAB8DBC8DED91FC911197D3
:100AD0000288F389E02DCD016C960FB6F894DEBF45
:100AE0000FBECDBFDF91CF911F910F91FF90EF907F
:100AF000DF90CF90BF90AF909F908F907F906F903E
:100B00005F904F903F902F9009946C960FB6F89499
:100B1000DEBF0FBECDBFDF91CF911F910F91FF9030
:100B2000EF90DF90CF90BF90AF909F908F907F908D
:100B30006F905F904F903F902F900895AF92BF922B
:100B4000CF92EF92FF920F931F93CF93DF93EC011D
:100B5000262F888D998D009709F040C06A3059F48E
:100B60001D861C862C898E859F8538E0239F800DED
:100B7000911D112441C06D3009F4AAC08E898823CB
:100B8000C1F03C898C859D8546E0349F800D911D88
:100B9000112448855985481759075CF41D861C8621
:100BA0008E859F8548E0349F800D911D11249F877D
:100BB0008E87EA88FB88088919894E855F856C8550
:100BC0007D85CC88CE010E9488032C898C859D85EB
:100BD00036E0239F800D911D112442C06A3079F4C4
:100BE0001D861C862C89FC013696E4918E859F8596
:100BF0002E9F800D911D11249F878E8769C06D30B7
:100C000009F466C0FC0134963491631708F460C09F
:100C10003196E491E61708F45BC0FC013296A5908A
:100C2000B490462F50E0431B510937E0349FB00188
:100C3000359F700D1124A60EB71EF5013296349122
:100C40003196E491332311F0E1110DC0F501349692
:100C5000E4912C898C859D85E29F800D911D112446
:100C60009D878C8735C0F501359644915E89552363
:100C700011F16C89E32FF0E0E40FF11D47FDFA95C7
:100C80006E9FD0016F9FB00D11244C855D854A0F7A
:100C90005B1FE885F985E417F5076CF41D861C8653
:100CA000FC013696E4918E859F856E9F800D911D87
:100CB00011249F878E87EA88FB88088919894E85C9
:100CC0005F856C857D85CC88CE010E948803BECF70
:100CD00081E090E0DF91CF911F910F91FF90EF9015
:100CE000CF90BF90AF9008956F927F928F929F9216
:100CF000AF92BF92CF92DF92EF92FF920F931F932A
:100D0000CF93DF93EC014B015A0169013801E8816F
:100D1000F9810680F781E02D0995E881F981068443
:100D2000F785E02D87019601A501B401CE01099553
:100D3000E881F981A501460D571D415051090684EE
:100D4000F785E02D9601B401CE010995E881F9817E
:100D50000484F585E02D9301A501B401CE01099528
:100D6000E881F981C80CD91CB6016150710904846D
:100D7000F585E02D9301A501CE010995E881F98162
:100D80000288F389E02DCE01DF91CF911F910F9161
:100D9000FF90EF90DF90CF90BF90AF909F908F909B
:100DA0007F906F900994CF92DF92EF92FF920F9312
:100DB0001F93CF93DF9300D000D000D0CDB7DEB724
:100DC0006C01DC01ED91FC916217730789F4041743
:100DD00015072CF4942F852FA801092F182F041B19
:100DE000150B98012F5F3F4F008CF18DE02D12C045
:100DF0004017510709F5261737072CF4962F872F30
:100E0000B901292F382F261B370B2F5F3F4F028C3C
:100E1000F38DE02D8701C601099526960FB6F8944B
:100E2000DEBF0FBECDBFDF91CF911F910F91FF901D
:100E3000EF90DF90CF9008950680F781E02D2D830D
:100E40003E834B835C8369837A830995D601ED9158
:100E5000FC910088F189E02D2D813E814B815C81E0
:100E600069817A81C6010995D601ED91FC910288CC
:100E7000F389E02DC60126960FB6F894DEBF0FBEAB
:100E8000CDBFDF91CF911F910F91FF90EF90DF9039
:100E9000CF900994EF92FF920F931F93DC01ED9195
:100EA000FC9111971A960D911C911B9718962D91F4
:100EB0003C911997048CF58DE02D7B0140E050E0CA
:100EC00060E070E009951F910F91FF90EF900895F9
:100ED0004F925F926F927F928F929F92AF92BF924A
:100EE000CF92DF92EF92FF920F931F93CF93DF93F6
:100EF00000D0CDB7DEB76C015A0139014801DC01E1
:100F0000ED91FC910680F781E02D69837A83099544
:100F10006981462E7A81572E640C751CD601ED919D
:100F2000FC91461457046CF40484F585E02D870188
:100F30009401A501B201C6010995BFEF4B1A5B0AE6
:100F4000EDCF0288F389E02DC6010F900F90DF915D
:100F5000CF911F910F91FF90EF90DF90CF90BF90B6
:100F6000AF909F908F907F906F905F904F9009947B
:100F7000AF92BF92CF92DF92EF92FF920F931F93A7
:100F8000CF93DF9300D000D0CDB7DEB75C0169010D
:100F9000DC01ED91FC910680F781E02D4B835C83B1
:100FA00069837A830995D501ED91FC9169817A81F4
:100FB0009B012C0D3D1D215031090088F189E02D48
:100FC00078014B815C818A01C5010995D501ED91BC
:100FD000FC910288F389E02DC5010F900F900F90CE
:100FE0000F90DF91CF911F910F91FF90EF90DF90C5
:100FF000CF90BF90AF900994AF92BF92CF92DF9203
:10100000EF92FF920F931F93CF93DF9300D000D006
:10101000CDB7DEB75C016901DC01ED91FC91068082
:10102000F781E02D4B835C8369837A830995D50131
:10103000ED91FC914B815C81C40ED51EB1E0CB1AC1
:10104000D1080088F189E02D7801860169817A81D3
:101050009B01C5010995D501ED91FC910288F389A9
:10106000E02DC5010F900F900F900F90DF91CF9161
:101070001F910F91FF90EF90DF90CF90BF90AF90B6
:1010800009940895EF92FF920F931F93DC01ED9165
:10109000FC91048CF58DE02D09951F910F91FF9027
:1010A000EF9008950F931F93DC01ED91FC91028C5A
:1010B000F38DE02D09951F910F9108950F931F93C4
:1010C000DC01ED91FC91008CF18DE02D09951F91D3
:1010D0000F910895DC01ED91FC910480F581E02DE4
:1010E000099408952F923F924F925F926F927F9250
:1010F0008F929F92AF92BF92CF92DF92EF92FF9228
:101100000F931F93CF93DF9300D01F92CDB7DEB71D
:101110004C017B836A836A01590117019801241BE2
:10112000350B37FF03C0319521953109C5014A813F
:101130005B81841B950B97FF03C091958195910965
:1011400051E059838217930714F019820BC09A2D2E
:101150008B2D5801092F182F9A818B81DB82CA822F
:10116000C92ED82E8A819B81A816B9065CF49C2DC5
:101170008D2D6801092F182F9A818B81BB82AA823D
:10118000A92EB82E2501AA81BB814A1A5B0A380113
:101190006C187D0877FE03C0719461947108720128
:1011A00057FE03C0BFEFEB1AFB0AF594E794C01695
:1011B000D1061CF00FEF1FEF1FC001E010E01CC0B4
:1011C000D401ED91FC91B9810084F185E02D91016C
:1011D000BB23C1F04A815B81B601C4010995E618C1
:1011E000F708F7FE04C0C00ED11EE40CF51CEA811E
:1011F000FB813196FB83EA834A815B81A416B506A5
:10120000FCF604C0A6016A817B81E7CF0F900F90A6
:101210000F90DF91CF911F910F91FF90EF90DF9092
:10122000CF90BF90AF909F908F907F906F905F9086
:101230004F903F902F90089548305105F0F4603161
:101240007105D8F4440F551FFC01E40FF51F81E030
:1012500090E002C0880F991F6A95E2F7232B29F0CE
:10126000228D338D822B932B06C080959095228DF5
:10127000338D82239323938F828F08950895FC01E9
:1012800024A535A5231728F4E20FF11D848590E0ED
:1012900008958FEF9FEF0895FC0194A585A59817F9
:1012A00048F4DF01A90FB11D1C962C9130E09F5F1F
:1012B00094A702C02FEF3FEFC9010895FC0125A5B7
:1012C00030E084A5A901481B5109CA010895CF92B5
:1012D000DF92EF92FF920F931F93CF93DF936C01F6
:1012E000EB017B01E40EF51E00E010E0CE15DF05FA
:1012F00061F06991D601ED91FC910190F081E02DB2
:10130000C6010995080F191FF1CFC801DF91CF91D0
:101310001F910F91FF90EF90DF90CF90089585ED92
:101320008093BC008091BC0084FDFCCF10927203BE
:1013300008954091EB02262F30E0240F311D213219
:101340003105DCF4209172032430C9F4FC0180E003
:1013500090E0861758F43091EB022191DC01A753FD
:10136000BD4FA30FB11D2C930196F3CF8091EB02DB
:10137000680F6093EB0280E0089581E0089582E0B9
:1013800008950895E0912B0380912A03E81730F423
:10139000F0E0E45DFC4F808190E008958FEF9FEFD7
:1013A000089590912B0380912A03981750F4E92F08
:1013B000F0E0E45DFC4F208130E09F5F90932B03D1
:1013C00002C02FEF3FEFC901089580912A0390E0FA
:1013D00020912B03821B91090895CF92DF92EF9207
:1013E000FF920F931F93CF93DF937C01262F972FAC
:1013F0008A0180917303882391F0C62FD72F6E0145
:10140000C40ED51ECC15DD0571F06991D701ED91A3
:10141000FC910190F081E02DC7010995F3CF642F75
:10142000822F0E949909C801DF91CF911F910F91DE
:10143000FF90EF90DF90CF900895CF93DF931F92AE
:10144000CDB7DEB76983209173032223D1F02091B9
:101450009603203240F021E030E0FC013383228308
:1014600080E090E015C080917403E82FF0E0EB5825
:10147000FC4F998190838F5F8093740380939603D0
:1014800005C061E0CE0101960E94990981E090E0DB
:101490000F90DF91CF910895CF93DF93EC01888572
:1014A0009985009711F00E9416358E8187FD05C041
:1014B00060E0DF91CF910C940818DF91CF910895EF
:1014C0004F925F926F927F928F929F92AF92BF9254
:1014D000CF92DF92EF92FF92CF93DF9300D000D0B4
:1014E00000D0CDB7DEB787EC92E00E94C21D882302
:1014F00011F08F31B1F48091F6059091F7050196C6
:101500009093F7058093F60564EC7FEF84EC9FEFF2
:101510000E94721DCE0101960E94C21D8E70D1F3F1
:101520001AC1813069F46CE370E084EC9FEF0E9493
:10153000721DCE0101960E94C21D8E70D1F30BC1A7
:10154000803169F464EC7FEF8CE390E00E94721DBF
:10155000CE0101960E94C21D8E70D1F3FCC020E026
:1015600030E040E05FE36091EA057091EB05809127
:10157000EC059091ED050E943E306B017C0180915D
:10158000C7029091C802BC01990F880B990B0E9469
:10159000DF2F20E030E040E05FE30E943E309B011F
:1015A000AC01C701B6010E94BD314B015C016093E3
:1015B000EA057093EB058093EC059093ED0520917F
:1015C000EE053091EF054091F0055091F1050E9434
:1015D000BC316B837C838D839E832091F205309197
:1015E000F3054091F4055091F505C501B4010E9441
:1015F000BD316B017C0120E030E048E452EC0E94F8
:10160000D82F87FD11C020E030E048E452E4C70144
:10161000B6010E94D13218166CF4C12CD12C28E4EA
:10162000E22E22E4F22E06C0C12CD12C38E4E32EA7
:1016300032ECF32EC092F205D092F305E092F4055D
:10164000F092F5052091FC053091FD054091FE05D5
:101650005091FF05C501B4010E943E302B013C01B1
:101660002091000630910106409102065091030638
:10167000C701B6010E943E309B01AC01C301B2011B
:101680000E94BD316B017C0120910406309105065A
:1016900040910606509107066B817C818D819E8169
:1016A0000E943E309B01AC01C701B6010E94BD31D2
:1016B0006B017C018092EE059092EF05A092F005FF
:1016C000B092F10520E030E046E153EC0E94D82FC3
:1016D00087FD27C020E030E046E153E4C701B601B2
:1016E0000E94D132181654F020E030E0A901C70161
:1016F000B6010E94D13218163CF019C0C12CD12C71
:1017000096E1E92E93E4F92EA701960160E070E0DE
:1017100086E193E40E94BC310E949B3286E990E00E
:1017200013C0C12CD12C86E1E82E83ECF82E20E0EA
:1017300030E046E153E4C701B6010E94BD310E948A
:101740009B32CB0166E970E00E94721D1092F70592
:101750001092F60514C08091F6059091F7050B974D
:1017600074F060E070E080E090E00E94721D87E518
:1017700091E00E94CD1C1092730210927202269684
:101780000FB6F894DEBF0FBECDBFDF91CF91FF90B3
:10179000EF90DF90CF90BF90AF909F908F907F9011
:1017A0006F905F904F900895CF93DF93EC018E81FF
:1017B00087FD07C061E00E94081860E08E810E94EA
:1017C000D81781E08983DF91CF91089571E0249A41
:1017D0002398000000000000B1D02498AFD0A89456
:1017E0000000000000001C9BA4D0B2F088941B995C
:1017F0000894771F60F7249A803011F0239801C075
:10180000239A00000000000099D02498A8940000BA
:1018100000001C9B8ED092D000000000249A872FDD
:101820009927089580E208950894881F01C0880FC1
:10183000B9F0249A00000000000018F4000023987A
:1018400002C0239A00C07AD02498A8940000000017
:1018500000001C9B6ED012F4882712C06FD0E7CF17
:10186000249A00000000239869D09927882724989B
:10187000A89400001C9B5DD07AF31B9B81E05ED096
:1018800000000000249A089581E00895CF93DF932B
:10189000EC01862F0E94140C811106C08FA58111C6
:1018A00006C083E08FA703C081E090E002C080E023
:1018B00090E0DF91CF910895249A239A3FD0249805
:1018C0003DD01C9B36D0239839D008958F938F91AB
:1018D0008F931C9B2ED0239A31D0A6DF882311F43E
:1018E000EBDFF5CF0F9008950895249A27D0239821
:1018F00025D0249823D01C9B1CD0239A1FD094DF82
:10190000089581E008951C9B14D0239A17D08CDF92
:10191000089581E00895239824982B982C9888277F
:1019200099271B9B08951C9B089581E0089581E0F1
:1019300008951C9BFECFA8940895089591E09A9570
:10194000F1F70895089587E00E94AF1721E030E095
:10195000892B11F020E030E0C90108951F920F9209
:101960000FB60F9211242F933F934F935F936F9372
:101970007F938F939F93AF93BF93EF93FF93809148
:10198000B900887F803609F49CC068F5883209F474
:101990005BC090F4803109F454C038F4882309F412
:1019A000F6C0883009F44DC0F6C0883109F44CC047
:1019B000803209F45DC0EFC0803409F468C048F497
:1019C000803309F455C0883309F0E5C08093700373
:1019D000D8C0803509F44FC0883509F45DC088341B
:1019E00009F0D9C0D6C0883909F4C7C0A8F488372F
:1019F00009F467C038F4883609F463C0803709F405
:101A000060C0C9C0883809F4B8C0803909F45FC023
:101A1000803809F0C0C05BC0803B09F486C038F450
:101A2000803A09F466C0883A09F47FC0B4C0803CAB
:101A300009F4A7C0883C09F4A4C0883B09F48AC013
:101A4000AAC080914D0310C090916F0380916E03E6
:101A5000981770F5E0916F0381E08E0F80936F030C
:101A6000F0E0E25BFC4F80818093BB0085EC86C098
:101A7000809370038EC0E0916F0381E08E0F80939E
:101A80006F038091BB00F0E0E25BFC4F808390919C
:101A90006F0380916E036EC0E0916F0381E08E0F43
:101AA00080936F038091BB00F0E0E25BFC4F80838A
:101AB0008091710381116DC081E080934C0384EAB1
:101AC00061C083E08093720310920F03CFCF8091A7
:101AD0000F03803208F051C0E0910F0381E08E0FB8
:101AE00080930F038091BB00F0E0E151FD4F8083B4
:101AF000BDCF85EC8093BC001092720380910F03E0
:101B0000803230F4E0910F03F0E0E151FD4F10829C
:101B100060910F0370E0E091ED02F091EE028FEE24
:101B200092E0099510920F0336C084E0809372030F
:101B30001092EC021092EB02E091E902F091EA02BD
:101B400009958091EB02811105C081E08093EB0241
:101B50001092C902E091EC0281E08E0F8093EC02BA
:101B6000F0E0E753FD4F80818093BB009091EC0241
:101B70008091EB02981708F479CF85E88093BC0038
:101B80000AC085EC8093BC001092720304C01092CE
:101B900070030E948F09FF91EF91BF91AF919F91C8
:101BA0008F917F916F915F914F913F912F910F9006
:101BB0000FBE0F901F90189564E372E087EC93E0DE
:101BC0000E94551768E372E087EC93E00C94551778
:101BD0002F923F924F925F926F927F928F929F923D
:101BE000AF92BF92CF92DF92EF92FF920F931F932B
:101BF000CF93DF93CDB7DEB7E8970FB6F894DEBF8B
:101C00000FBECDBF8AE0EDE4F1E0DE011B9601904E
:101C10000D928A95E1F7CE0101961C018AE0F1014F
:101C200011928A95E9F7E12CF12CCE0145969CABF7
:101C30008BABE114F10429F46CE370E084EC9FEFCA
:101C400008C098ECE916F10439F464EC7FEF8CE3FA
:101C500090E00E94721D05C0E8E5EE16E2E0FE0687
:101C600059F398E0892E96E0992ECE010B969EAB03
:101C70008DAB38AE2FAA51016C01F4018081F2E0E6
:101C80008F0E911C0E94A3188C01F6016081718156
:101C90008617970724F5072E000C880B990B0E94D6
:101CA000DF2F23E333E343E35FE30E943E302B0166
:101CB0003C01B801110F880B990B0E94DF2F2AE914
:101CC00039E949E95EE30E943E309B01AC01C30162
:101CD000B2010E94BD310E949B32F60129C0F5017C
:101CE00060817181681779072CF5072E000C880B2D
:101CF000990B0E94DF2F23E333E343E35FE30E946A
:101D00003E302B013C01B801110F880B990B0E944A
:101D1000DF2F2AE939E949E95EE30E943E309B0161
:101D2000AC01C301B2010E94BD310E949B32F5019A
:101D300071836083F2E0CF0ED11C82E0A80EB11C4B
:101D4000EBA9FCA9CE16DF0609F097CFFFEFEF1A3B
:101D5000FF0A65E070E080E090E00E94BA1880E23F
:101D6000E81683E0F80609F064CF60E070E080E0F8
:101D700090E00E94721D8DE9E82E83E0F82E00E0CD
:101D800010E0EFA9F8ADA190B190F8AFEFABEDA9DD
:101D9000FEA9C190D190FEABEDABB5016C197D09E8
:101DA000072E000C880B990B0E94DF2F2AE939E9D6
:101DB00049E95EE30E943E302B013C01B6010D2C47
:101DC000000C880B990B0E94DF2F9B01AC01C30113
:101DD000B2010E94BD310E949B322B013C014AE0BE
:101DE000CE018D960E94D9164AE0B501CE018796A4
:101DF0000E94D9164AE0B601CE0181960E94D916FA
:101E00004AE0B801CE014B960E94D9166AE472E00E
:101E1000CE0145960E940517BE01655E7F4FCE013B
:101E200045960E9495166BE472E00E947C16BE01F6
:101E30006F5D7F4F0E9495166EE172E00E947C16E6
:101E4000BE01695D7F4F0E9495166DE472E00E94AD
:101E50007C16BE01635D7F4F0E9495160E943B1069
:101E6000CE0145960E94D416CE014B960E94D41600
:101E7000CE0181960E94D416CE0187960E94D41678
:101E8000CE018D960E94D416F701419251927F01A6
:101E9000B186A086D38AC28A0F5F1F4F0530110515
:101EA00009F06FCF0E94BE1FE8960FB6F894DEBF10
:101EB0000FBECDBFDF91CF911F910F91FF90EF909B
:101EC000DF90CF90BF90AF909F908F907F906F905A
:101ED0005F904F903F902F900895E091C703F0914D
:101EE000C8030190F081E02D682F87EC93E00994FE
:101EF00028E030E0611571058105910529F4E0E0E5
:101F0000F0E0099581E008952150310999F780E0CA
:101F1000089560E070E080E090E00C94721DCF9333
:101F2000DF93BC0187EC93E00E944017EC0167E46B
:101F300072E087EC93E00E9440178C0F9D1FDF91A9
:101F4000CF910895CF93C82F81E080937303C093FE
:101F5000950310927403109296036FE081ED95E063
:101F60000E941D0A81E00E947B1E81110FC061E06A
:101F70008C2F0E94FA1E10922B0380932A03882331
:101F800029F081ED95E0CF910C94D1098FEF9FEF6F
:101F9000CF910895CF92DF92EF92FF920F931F930C
:101FA00061E08CE00E94081861E08CE00E94D81784
:101FB00083E290E00197F1F760E08CE00E9408185E
:101FC000E3E8F6E06491EFE6F6E0E491F0E0EE0F8E
:101FD000FF1FEF5CF94F8591949100EE13E924E027
:101FE00030E0462F0E94D51F6115710581059105CE
:101FF00039F0DC01CB010196A11DB11DBF7003C0FA
:1020000080E090E0DC01BC0180E090E00E94DD2FE8
:102010002DEC3CEC48E652E40E9429326B017C0135
:1020200020E030E040EC50E40E94D132181654F425
:102030002AE037ED43EA5FE3C701B6010E943E3074
:102040006B017C0120E030E0A901C701B6010E94CC
:10205000D82F811107C0C12C80ECD82E89E7E82E3B
:1020600084E4F82EC701B6011F910F91FF90EF9005
:10207000DF90CF900895CF93DF93FC014481558189
:102080006081718187EC93E00E94CE14EC0167E4DB
:1020900072E087EC93E00E9440178C0F9D1FDF9148
:1020A000CF9108958F929F92AF92BF920F931F93FB
:1020B000CF93DF93CDB7DEB7A1970FB6F894DEBF0D
:1020C0000FBECDBF19A2423008F44AE08E010F5D69
:1020D0001F4F842E912CA12CB12CA50194010E949C
:1020E0002231E62FB901CA0101501109EA3014F476
:1020F000E05D01C0E95CD801EC93232B242B252B58
:1021000061F7B80187EC93E00E944017A1960FB6E3
:10211000F894DEBF0FBECDBFDF91CF911F910F911D
:10212000BF90AF909F908F900895CF92DF92EF92E3
:10213000FF92CF93DF936B017C018DE20E946D0FC4
:10214000EC0166277727CB016C197D098E099F0961
:102150004AE00E9452108C0F9D1FDF91CF91FF909B
:10216000EF90DF90CF900895CF93DF93BC01990F4C
:10217000880B990B97FF03C00E94951003C04AE09B
:102180000E945210EC0167E472E087EC93E00E9439
:1021900040178C0F9D1FDF91CF9108954F925F9252
:1021A0006F927F928F929F92AF92BF92CF92DF9267
:1021B000EF92FF926B017C01B42E9B01AC010E9457
:1021C0002633882319F060E572E027C02601370125
:1021D000E89477F82FEF3FEF4FE75FE7C301B201D5
:1021E0000E94263381110DC02FEF3FEF4FE75FE7CD
:1021F000C301B2010E94D82F18161CF464E572E0E6
:102200000CC02FEF3FEF4FE75FE4C701B6010E941C
:10221000D132181694F468E572E087EC93E0FF90F1
:10222000EF90DF90CF90BF90AF909F908F907F9076
:102230006F905F904F900C9440172FEF3FEF4FE758
:102240005FECC701B6010E94D82F87FDE4CF20E0E4
:1022500030E0A901C701B6010E94D82F87FF09C04D
:102260008DE20E946D0F4C01F7FAF094F7F8F094AC
:1022700002C0812C912CA12C60E070E080E09FE3F3
:10228000AB1441F020E030E040E251E40E942932FA
:10229000A394F6CF9B01AC01C701B6010E94BD31EA
:1022A0002B013C010E94A2326B017C010E94DD2FB8
:1022B0009B01AC01C301B2010E94BC312B013C0166
:1022C0004AE0C701B6010E9452107C01E80CF91CDB
:1022D000BB2029F08EE20E946D0FE80EF91EDB2C68
:1022E000DD2021F120E030E040E251E4C301B20101
:1022F0000E943E302B013C010E94A2324B01A12CD6
:10230000B12C4AE0C501B4010E945210E80EF91E3A
:10231000C501B4010E94DD2F9B01AC01C301B201D4
:102320000E94BC312B013C01DA94DACFC701FF9047
:10233000EF90DF90CF90BF90AF909F908F907F9065
:102340006F905F904F900895CF93DF9342E00E948B
:10235000CE10EC0167E472E087EC93E00E94401736
:102360008C0F9D1FDF91CF9108950F931F93CF93F3
:10237000DF938C01EB0161E08CE00E94081861E0C2
:102380008BE00E94081861E0012B09F060E08BE00F
:102390000E94D81761E0CD2B09F060E08CE0DF915E
:1023A000CF911F910F910C94D817E4E9F4E081814B
:1023B000F89482E08093B0008093B10094E690930B
:1023C000B3001092B20080937000789480831482DE
:1023D000818160E00E94081881E08093660508957D
:1023E0002091B00020622093B000009751F0BC0112
:1023F00080E090E0653071058105910510F00C9446
:102400004A1908952F923F924F925F926F927F9256
:102410008F929F92AF92BF92CF92DF92EF92FF92F4
:102420000F931F93CF93DF93CDB7DEB7AA970FB665
:10243000F894DEBF0FBECDBF8BE994E090931C03F0
:1024400080931B0380919804282E312C30921E0318
:1024500020921D038091650590E090932003809366
:102460001F0380919404853009F029C180919D0457
:1024700090919E04885891098D35910588F480913A
:102480009804843041F480919F049091A004809737
:10249000479708F4CCC180919804843408F07CC03C
:1024A00026E0221631040CF405C101EA14E083E0B1
:1024B00090E09AA789A775ECC72E7DE9D72E7CE11D
:1024C000E72E71E8F72EE9A5FAA5E215F3050CF061
:1024D00052C0F801608171813497A080B18080E0A2
:1024E00090E00E94DD2F2B013C01B50180E090E0DF
:1024F0000E94DD2F4B015C012DEC3CEC4CE45FE3D2
:102500000E943E309B01AC01C301B2010E94D82F52
:1025100087FD17C02DEC3CEC4CE45FE3C301B20136
:102520000E943E309B01AC01C501B4010E94D82F2E
:10253000E82F880FFF0BEE27FF0FEE1FFF273196C6
:1025400002C0E0E0F0E0A701960163E971E080E0FD
:1025500091E00E9412316F01FF0FEE08FF08C626BE
:10256000D726E826F92689A59AA501969AA789A7CC
:102570000E5F1F4FA8CFC0921503D0921603E092B2
:102580001703F092180380E290E090931A0380936F
:1025900019038FEF9FEF3EC080919F049091A0049C
:1025A000825491098E9708F07BCF20E030E080E0E4
:1025B00090E0DC01F901EF55FB4F4081518149501A
:1025C00051094930510508F06BCFF901ED55FB4F2A
:1025D00040815181475151094231510508F037C1BD
:1025E000880F991FAA1FBB1F81602C5F3F4F2038A7
:1025F000310501F720E230E030931A0320931903EC
:102600008093150390931603A0931703B0931803B8
:1026100083E090E09093120380931103609115037F
:102620007091160380911703909118036F3FFFEF8D
:102630007F078F079F07F1F16093050170930601F3
:1026400080930701909308010E94780F811132C096
:102650006091050170910601809107019091080138
:102660001CA21BA21EA21DA218A61FA220E1AE0141
:102670004F5F5F4F0E94142EBE016F5F7F4FCE01F0
:1026800083960E94A8166CE572E0CE0101960E9426
:102690000517BE016D5D7F4FCE0101960E94951614
:1026A0000E943B10CE0101960E94D416CE01839663
:1026B0000E94D41682E080939404109298040E94A1
:1026C000A30C892B09F456C00E94F4180091F80558
:1026D0001091F9052091FA053091FB05DC01CB0141
:1026E000801B910BA20BB30B85369105A105B1059B
:1026F00008F440C06AE07EEE80EE90E00E94780F21
:1027000081112EC01CA21BA21EA21DA218A61FA2D0
:1027100020E1AE014F5F5F4F6AE07EEE80EE90E019
:102720000E94FD2DBE016F5F7F4FCE0183960E94F8
:10273000A81668E672E0CE0101960E940517BE0158
:102740006D5D7F4FCE0101960E9495160E943B1051
:10275000CE0101960E94D416CE0183960E94D41613
:102760000E94F4186093F8057093F9058093FA05B8
:102770009093FB0588E00E94AF17892B09F074C085
:102780000E94F4180091F8051091F9052091FA05BE
:102790003091FB05DC01CB01801B910BA20BB30B2D
:1027A00085369105A105B10508F45EC06BE07EEEAB
:1027B00080EE90E00E94780F81112EC01CA21BA217
:1027C0001EA21DA218A61FA220E1AE014F5F5F4FFF
:1027D0006BE07EEE80EE90E00E94FD2DBE016F5F0B
:1027E0007F4FCE0183960E94A81668E672E0CE0164
:1027F00001960E940517BE016D5D7F4FCE010196C7
:102800000E9495160E943B10CE0101960E94D4169C
:10281000CE0183960E94D4160E94F4186093F805A6
:102820007093F9058093FA059093FB051DC0809184
:10283000A1049091A2040997099708F02CCE109258
:102840001A03109219038FEF9FEFDC01D9CE40815C
:102850005181465051094730510508F021CE880F6B
:10286000991FAA1FBB1FC1CEAA960FB6F894DEBF50
:102870000FBECDBFDF91CF911F910F91FF90EF90D1
:10288000DF90CF90BF90AF909F908F907F906F9090
:102890005F904F903F902F900895CF93C0919204F6
:1028A000880FCC2351F00E94750C811102C082E088
:1028B00001C080E08093930407C00E94830C8111C3
:1028C00001C0C2E0C093930481E080939204CF9151
:1028D00008950F931F93CF93DF93809191050E94EA
:1028E0004D1460E084E694E00E94460CC1E8D5E017
:1028F0008E01688184E694E00E94460C2296F801DD
:10290000618184E694E00E94460CF5E0C139DF075E
:1029100079F70E945C0C1092920410929304DF915C
:10292000CF911F910F9108950F931F93CF93DF9332
:1029300007E615E080E7F80182A7C4E6D4E01CA60C
:102940001DA61FA61EA60E948B0CF80182A50E9440
:102950004D1461E2CE010E94460C0E945C0C1EA642
:102960001FA6F80182A50E944D1461E8CE010E94C5
:10297000460C0E945C0C1EA61FA6F80182A50E94B0
:102980004D146FEECE010E94460C0E945C0C1EA6F8
:102990001FA6DF91CF911F910F910895CF92DF92E3
:1029A000EF92FF920F931F93CF93DF936C017A0105
:1029B0008B01C0E0D0E0CE15DF0589F0D8016D9124
:1029C0008D01D601ED91FC910190F081E02DC601C1
:1029D0000995892B11F47E0102C02196ECCFC70125
:1029E000DF91CF911F910F91FF90EF90DF90CF90EB
:1029F0000895FC01918D828D981761F0828DDF0121
:102A0000A80FB11D5D968C91928D9F5F9F73928FE1
:102A100090E008958FEF9FEF0895FC01918D828DD6
:102A2000981731F0828DE80FF11D858D90E00895A3
:102A30008FEF9FEF0895FC01918D228D892F90E0FB
:102A4000805C9F4F821B91098F739927089587ECB3
:102A500093E00E941B1521E0892B09F420E0822FCE
:102A60000895FC01848DDF01A80FB11DA35ABF4F4B
:102A70002C91848D90E001968F739927848FA6897D
:102A8000B7892C93A089B1898C9180648C93938DA4
:102A9000848D981306C00288F389E02D80818F7D94
:102AA00080830895EF92FF920F931F93CF93DF934C
:102AB000EC0181E0888F9B8D8C8D981305C0E8898F
:102AC000F989808185FD24C0F62E0B8D10E00F5F03
:102AD0001F4F0F731127E02E8C8DE8120CC00FB61C
:102AE00007FCFACFE889F989808185FFF5CFCE010F
:102AF0000E943115F1CF8B8DFE01E80FF11DE35AD5
:102B0000FF4FF0820B8FEA89FB898081806207C0CA
:102B1000EE89FF896083E889F989808180648083F8
:102B200081E090E0DF91CF911F910F91FF90EF90A6
:102B30000895CF93DF93EC01888D8823C9F0EA894B
:102B4000FB89808185FD05C0A889B9898C9186FDA6
:102B50000FC00FB607FCF5CF808185FFF2CFA889A3
:102B6000B9898C9185FFEDCFCE010E943115E7CF59
:102B7000DF91CF91089580E090E0892B29F00E94A9
:102B8000271581110C9400000895833081F028F4FA
:102B9000813099F08230A1F008958730A9F0883013
:102BA000B9F08430D1F4809180008F7D03C0809192
:102BB00080008F7780938000089584B58F7702C05E
:102BC00084B58F7D84BD08958091B0008F7703C058
:102BD0008091B0008F7D8093B00008953FB7F89446
:102BE0008091260390912703A0912803B091290397
:102BF00026B5A89B05C02F3F19F00196A11DB11D58
:102C00003FBFBA2FA92F982F8827820F911DA11D92
:102C1000B11DBC01CD0142E0660F771F881F991FCF
:102C20004A95D1F708950E9478360F931F93CF935A
:102C3000DF93EC0188819981009729F02A813B81FB
:102C40002617370788F48B016F5F7F4F0E94AE35E0
:102C5000009761F0998388831B830A832C813D81CF
:102C6000232B11F4FC01108281E001C080E0DF9190
:102C7000CF911F910F910895EF92FF920F931F93A1
:102C8000CF93DF93FC01248135816115710511F427
:102C900080E019C041155105A9F07B01EC018A01C2
:102CA000020F131FB8010E941516882389F328818B
:102CB00039818C819D81B701820F931F0E948D36CF
:102CC0001D830C8381E0DF91CF911F910F91FF90C5
:102CD000EF900895CF93DF93EC018881998100975D
:102CE00011F00E941635198218821D821C821B82E7
:102CF0001A82DF91CF910895CF93DF93EC01611594
:102D0000710561F0FB0101900020E9F73197AF01F7
:102D1000461B570B0E943C16811103C0CE010E9436
:102D20006A16CE01DF91CF910895CF93DF93EC0126
:102D3000FB0144815581608171810E943C168111A3
:102D400003C0CE010E946A16CE01DF91CF91089593
:102D5000EF92FF920F931F93CF93DF938C017B0130
:102D60006115710569F0FB0101900020E9F73197C9
:102D7000EF01C61BD70BBE010E941516811104C0BE
:102D8000C8010E946A1608C0F801D583C483B70140
:102D9000808191810E948D36C801DF91CF911F9172
:102DA0000F91FF90EF900895FC01808191810C9428
:102DB00016350F931F93CF93DF93CDB7DEB762978E
:102DC0000FB6F894DEBF0FBECDBF8C01CB01F8016A
:102DD00011821082138212821582148250E0BE0189
:102DE0006F5F7F4F0E94E72DBE016F5F7F4FC8016D
:102DF0000E94A81662960FB6F894DEBF0FBECDBF34
:102E0000DF91CF911F910F910895EF92FF920F9351
:102E10001F93CF93DF93EC01198218821B821A82D1
:102E20001D821C826115710521F18B01FB0101904E
:102E30000020E9F731977F01E61AF70AB7010E94EF
:102E40001516811109C0CE01DF91CF911F910F910D
:102E5000FF90EF900C946A16FD82EC82B801888195
:102E60009981DF91CF911F910F91FF90EF900C947A
:102E70008D36DF91CF911F910F91FF90EF900895C4
:102E80006115710579F0FB0101900020E9F7319798
:102E9000AF01461B570BDC01ED91FC910280F381E1
:102EA000E02D099480E090E008950C9440171F9263
:102EB0000F920FB60F9211242F933F934F935F936E
:102EC0006F937F938F939F93AF93BF93EF93FF93F2
:102ED00087EC93E00E943115FF91EF91BF91AF9184
:102EE0009F918F917F916F915F914F913F912F9122
:102EF0000F900FBE0F901F9018951F920F920FB654
:102F00000F9211242F938F939F93EF93FF93E09150
:102F1000D703F091D8038081E091DD03F091DE03C7
:102F200082FD12C090818091E0038F5F8F732091AA
:102F3000E103821751F0E091E003F0E0E953FC4F28
:102F4000958F8093E00301C08081FF91EF919F9165
:102F50008F912F910F900FBE0F901F901895CF93C8
:102F6000DF93282F30E0F901E55CF94F8491F901F6
:102F7000E958F94FD491F901ED59F94FC491CC2397
:102F800091F081110E94C515EC2FF0E0EE0FFF1FAC
:102F9000EF5CF94FA591B491EC91ED2381E090E0C5
:102FA00021F480E002C080E090E0DF91CF910895AD
:102FB0001F93CF93DF93282F30E0F901E55CF94FA1
:102FC0008491F901E958F94FD491F901ED59F94F7C
:102FD000C491CC23C9F0162F81110E94C515EC2F86
:102FE000F0E0EE0FFF1FE75AF94FA591B4918FB7AC
:102FF000F894111105C09C91ED2FE095E92302C0D2
:10300000EC91ED2BEC938FBFDF91CF911F91089541
:10301000CF93DF9390E0FC01E958F94F2491FC0134
:10302000ED59F94F8491882361F190E0880F991F41
:10303000FC01E15BF94FC591D491FC01E75AF94FCE
:10304000A591B491611109C09FB7F894888120952A
:1030500082238883EC912E230BC0623061F49FB7EA
:10306000F8943881822F809583238883EC912E2BCE
:103070002C939FBF06C08FB7F894E8812E2B28832E
:103080008FBFDF91CF9108951F93CF93DF93182FB8
:10309000EB0161E00E940818209711F460E004C081
:1030A000CF3FD10539F461E0812FDF91CF911F919E
:1030B0000C94D817E12FF0E0E55CF94FE491E33090
:1030C000F9F048F4E130B9F0E230A1F584B580625E
:1030D00084BDC8BD34C0E730E9F0E83019F1E43010
:1030E00049F580918000806280938000D0938B00AE
:1030F000C0938A0024C084B5806884BDC7BD1FC04A
:1031000080918000806880938000D0938900C09374
:10311000880015C08091B00080688093B000C09393
:10312000B3000DC08091B00080628093B000C09366
:10313000B40005C0C038D1050CF0B5CFAFCFDF91DA
:10314000CF911F9108958E3008F08E508770806463
:1031500080937C0080917A00806480937A008091D3
:103160007A0086FDFCCF809178002091790090E074
:10317000922B08958F929F92AF92BF92CF92DF923F
:10318000EF92FF926B017C010E94EE154B015C01F6
:10319000C114D104E104F104F1F00E94EE15DC0148
:1031A000CB0188199909AA09BB09883E9340A1055A
:1031B000B10570F321E0C21AD108E108F10888EEE8
:1031C000880E83E0981EA11CB11CC114D104E10437
:1031D000F10419F7DDCFFF90EF90DF90CF90BF9013
:1031E000AF909F908F9008952FB7F894609122032D
:1031F0007091230380912403909125032FBF08959C
:103200001F920F920FB60F9211242F933F938F931B
:103210009F93AF93BF938091220390912303A0913A
:103220002403B09125033091210323E0230F2D3790
:1032300020F40196A11DB11D05C026E8230F0296BA
:10324000A11DB11D2093210380932203909323039A
:10325000A0932403B0932503809126039091270324
:10326000A0912803B09129030196A11DB11D80935F
:10327000260390932703A0932803B0932903BF91BB
:10328000AF919F918F913F912F910F900FBE0F9013
:103290001F9018958F929F92AF92BF92CF92DF921C
:1032A000EF92FF926B017C010E94EE154B015C01D5
:1032B00084E0C81AD108E108F108C80CD91CEA1C3E
:1032C000FB1CC814D904EA04FB0438F40E94EE1570
:1032D00086169706A806B906C8F30E94EE156C1567
:1032E0007D058E059F05C8F3FF90EF90DF90CF908E
:1032F000BF90AF909F908F9008951F920F920FB63E
:103300000F9211242F933F934F935F936F937F936B
:103310008F939F93AF93BF93EF93FF938091950407
:103320000E94AF172091990430919A042F5F3F4F6C
:1033300030939A042093990490919804953618F04C
:1033400096E090939404909194049430C9F128F4F9
:10335000923069F09330D1F05EC0953009F451C0DD
:10336000963009F058C091E09093650551C08111E5
:1033700052C02091990430919A042436310508F402
:1033800042C010926505109298041CC0813009F06B
:1033900042C0E091980491E09E0F90939804F0E071
:1033A0002091990430919A04EE0FFF1FEC56FB4FC9
:1033B0003087278310929A041092990494E029C0D0
:1033C000811117C0E091980491E09E0F90939804AA
:1033D000F0E02091990430919A04EE0FFF1FEC5613
:1033E000FB4F3087278310929A041092990493E040
:1033F00010C02091990430919A042536310558F077
:1034000007C0811108C010929A041092990403C059
:1034100095E090939404909197049923B9F08111C9
:103420000AC080919604882321F08091960461E07F
:1034300009C02D9A0BC080919604882331F08091A9
:10344000960460E00E94D81701C02D98FF91EF917B
:10345000BF91AF919F918F917F916F915F914F91AC
:103460003F912F910F900FBE0F901F901895FF92D4
:103470000F931F93CF93DF93EC01FF24F394F60E89
:103480002F81F21679F1088519852150B9F06F3F27
:1034900059F430E040E050E06FEF7FEF80E090E0E3
:1034A0000E944431B9010CC08F2D90E0982F8827DD
:1034B0000197622F70E00E94603402C060E070E00B
:1034C000F8014C815D81CF01801B910B841795071A
:1034D00040F44081469FC001479F900D1124919375
:1034E000F0CFFF82DF91CF911F910F91FF90089550
:1034F0000F931F93DC0112968D919C91139768177F
:10350000790708F043C017968C911797882361F0CC
:10351000489FA0011124452F289F90011124232F9B
:10352000089F80011124012F1D968C911D971A96DA
:103530009C911A971896ED91FC911997891308C0E0
:10354000CB01880F991F680F791F6E0F7F1F0AC06C
:10355000660F771F660F771F6E0F7F1FFB01E80F47
:10356000F11D10821A968C911A97FB01E80FF11D3C
:1035700040831B968C911B97FB01E80FF11D208364
:103580001C968C91FB01E80FF11D00831F910F9198
:1035900008951F93CF93DF93EC01162F8981882321
:1035A00031F08E8187FD03C060E00E9408181E8301
:1035B0008981882341F061E0812F0E94081860E032
:1035C000812F0E94D817812F90E0FC01ED59F94F0F
:1035D000E491F0E0EE0FFF1FE75AF94F2591349187
:1035E0003B8B2A8BFC01E958F94FE491EC8BDF917E
:1035F000CF911F910895CF92DF92EF92FF920F9398
:103600001F93CF93DF93CDB7DEB729970FB6F8940A
:10361000DEBF0FBECDBF8C01DC0118968D919C9151
:103620001997892B09F49EC00E94EE15F801C684F3
:10363000D784E088F188DC01CB018C199D09AE09A3
:10364000BF09C297A105B10578F3F89484819581EB
:103650009A8389830084F185E02D7F01BFEFEB1A07
:10366000FB0A80818987F80190810288F389E02D27
:10367000D80154968C91992309F430C09081982BED
:1036800098879081809589238F838F818C8388E0B0
:103690008B8358856F8149853B812C8189819A81F3
:1036A000D701508347FD252F3A952083262F39F0E7
:1036B000441F00C000006083000000C0F2CF38E06B
:1036C0004D9160830000019761F7D8015396FC93F8
:1036D000EE93529749873B832C833AC09081982B75
:1036E00098879081809589238F838F818E8388E04E
:1036F0008D8358856F8149853D812E8189819A818D
:10370000D701508347FD252F00C000C0208300C093
:1037100000C000C000C000C060830000262F3A95A2
:1037200041F0441F000000C000C000C000C000C045
:10373000E8CF38E04D9100C0608300C0019709F7E1
:10374000D8015396FC93EE93529749873D832E837D
:103750009A83898378940E94EE15F80166877787AB
:10376000808B918B29960FB6F894DEBF0FBECDBF2C
:10377000DF91CF911F910F91FF90EF90DF90CF904D
:103780000895EF92FF920F931F93CF93DF93EC0175
:103790007B0188859985009711F00E9416359D85DB
:1037A0008A85981719F084E090E002C083E090E0E9
:1037B0008E9D80018F9D100D9E9D100D11241D83E7
:1037C0000C83C8010E94813499878887009741F053
:1037D000A80160E070E00E948636FB82EA8204C0A5
:1037E0001D821C821B821A82DF91CF911F910F9143
:1037F000FF90EF9008952F923F924F925F926F92B9
:103800007F928F929F92AF92BF92CF92DF92EF9270
:10381000FF920F931F93CF93DF93CDB7DEB7279718
:103820000FB6F894DEBF0FBECDBF6B017C018A01DD
:1038300060E472E48FE090E0A70196010E942231DB
:10384000EBE7F6E06491698387E696E0FC0164911A
:10385000E62FF0E0EE0FFF1FE75AF94F65917491E4
:103860007F836E83FC018491E82FF0E0EE0FFF1F51
:10387000E15BF94FA591B4918C91F9818F2B8C93D9
:103880002C833D834A835B830E94F4184B015C01C7
:103890002C813D814A815B81DA01C901B695A795EA
:1038A000979587951C017C01EE0CFF1CEE0CFF1C0C
:1038B00065E0E61AF108281B390B6901CC0CDD1C08
:1038C000CC0CDD1C75E0C71AD1082801612C712CC5
:1038D000198110952C833D830E94F418DC01CB01E3
:1038E00088199909AA09BB092C813D818415950580
:1038F000A605B705D8F4EE81FF818081F9818F2B71
:10390000EE81FF818083F2E02F16310418F0C701A9
:103910000197F1F7EE81FF8180818123808322303E
:103920003105C0F2C6010197F1F7D4CF27960FB643
:10393000F894DEBF0FBECDBFDF91CF911F910F91E5
:10394000FF90EF90DF90CF90BF90AF909F908F90BF
:103950007F906F905F904F903F902F900895CF93FE
:10396000DF939B01EA01BC01990F880B990B61154C
:1039700071058105910531F4B90180E090E00E9464
:10398000BA1803C0A9010E94FB1BBE01DD0F880B02
:10399000990BDF91CF910C94BA184F925F927F925E
:1039A0008F929F92AF92BF92CF92DF92EF92FF924F
:1039B0000F931F93CF93DF9300D000D0CDB7DEB726
:1039C0006C01FC0101900020E9F731978F01081B81
:1039D000190B412C512C84EFA82EBB24B39494E0F6
:1039E000892E912C2DE7722E401651060CF066C0E0
:1039F000F601E40DF51DE0818FE98E0F873038F474
:103A0000EE0FFF0BE954FF4FE080F18053C0E23727
:103A100009F44EC08EEC8E0F853040F42E2FEE0F41
:103A2000330B490180E3881A910844C0EA3389F4D2
:103A30008FEF481A580AF601E40DF51D8081082E13
:103A4000000C990BC097789E5001799EB00C112400
:103A500031C0E03279F5B40164507109072E000CD1
:103A6000880B990B0E94DF2F9B01AC0160E070E096
:103A700080E090E40E94D6329B01AC01B701FF0CBC
:103A8000880B990B29833A834B835C830E94DF2F39
:103A900029813A814B815C810E943E300E949B3299
:103AA000DC01CB017C01A501B5010E94AF1C02C065
:103AB000E12CF12C8FEF481A580A96CF0F900F90F7
:103AC0000F900F90DF91CF911F910F91FF90EF908A
:103AD000DF90CF90BF90AF909F908F907F905F903E
:103AE0004F900895CF92DF92EF92FF920F931F9322
:103AF000CF93DF93EC01072E000C880B990B0E94EB
:103B0000DF2F2091990330919A0340919B035091AC
:103B10009C030E943E300E949B326B017C018B0112
:103B2000D7FF0AC060E070E085E00E944418662775
:103B300077276C1B7D0B06C0BE0185E00E944418F0
:103B400060E070E086E00E94441817FF0AC0662714
:103B500077276C197D0989E00E94441860E070E0C5
:103B600006C060E070E089E00E944418B6018AE077
:103B7000DF91CF911F910F91FF90EF90DF90CF9049
:103B80000C9444182F923F924F925F926F927F92C3
:103B90008F929F92AF92BF92CF92DF92EF92FF925D
:103BA0000F931F93CF93DF93CDB7DEB727970FB651
:103BB000F894DEBF0FBECDBF9D838C8328E036E036
:103BC0003B832A838DE993E09F838E83C12CD12C84
:103BD0007601198200E010E0812C912C5401EA81D9
:103BE000FB8180813296FB83EA830E94A3181C012B
:103BF000EE81FF8144885588612C712C092E000CC0
:103C0000AA0BBB0B9C01AD012419350946095709C4
:103C1000A4E6B0E00E9463312285338540E050E0A5
:103C200024193509460957090E944431E4E6F0E0B9
:103C3000E21BF30B24E630E0DF010E9474349B01A9
:103C4000AC01C701B6010E941231860E971EA81E54
:103C5000B91E0E0F1F1FEE81FF81808191819F0190
:103C60002E5F3F4F3F832E832816390650F481E0A4
:103C700090E00C2C01C0880F0A94EAF73981382BA8
:103C800039838FEFC81AD80AE80AF80A95E0C916EE
:103C9000D104E104F10409F0A2CFE981EE2359F047
:103CA0009801110F440B550BC501B4010E9444311A
:103CB000285C310902C028EC30E0EC81FD813183C1
:103CC0002083898127960FB6F894DEBF0FBECDBF43
:103CD000DF91CF911F910F91FF90EF90DF90CF90E8
:103CE000BF90AF909F908F907F906F905F904F901C
:103CF0003F902F900895382F20919603909195032F
:103D0000213208F049C0809172038111FCCF42E05A
:103D100040937203309371033FEF3093700310921E
:103D20006F0320936E03A5E7B3E04EE453E0FA017E
:103D30003E2F341B321718F43D913193F9CF109276
:103D40004D0320914D03990F922B90934D03909129
:103D50004C03913061F410924C0390914D03909379
:103D6000BB009091BC0093FDF8CF95EC01C095EE9F
:103D70009093BC00909172039230E1F390917003A4
:103D80009F3F79F080917003803241F08091700301
:103D9000803331F084E005C081E003C082E001C0DF
:103DA00083E01092740310929603109273030895A7
:103DB0001F93CF93DF93162FCDEDD5E0998521E0AA
:103DC00020937303909395031092740310929603BB
:103DD000682F81ED95E00E941D0A612F81ED95E02D
:103DE0000E941D0A81E00E947B1E8E83DF91CF918D
:103DF0001F910895909172039111FCCF91E09093DF
:103E00007203909371032FEF2093700310926F034E
:103E1000260F20936E0390934D0390914D03880FCE
:103E2000892B80934D0380914C03813061F4109273
:103E30004C0380914D038093BB008091BC0083FDB7
:103E4000F8CF85EC01C085EE8093BC0080917203B1
:103E50008130E1F380916F03861710F460916F0356
:103E6000AEE4B3E02CE233E0F9018E2F821B86171B
:103E700018F48D918193F9CF862F0895BF92CF9238
:103E8000DF92EF92FF920F931F93CF93DF93809176
:103E9000E60591E090937303809395031092740369
:103EA0001092960368EA81ED95E00E941D0A81E078
:103EB0000E947B1E66E08091E6050E94FA1EE82EB5
:103EC00010922B0380932A030E94F4186B01F12CAB
:103ED00026E0E216F104ACF48091E7059091E80544
:103EE000892BB1F30E94F4186C197D098091E705C4
:103EF0009091E8058617970758F781E08093E905C8
:103F000033C081ED95E00E94D109C82E81ED95E086
:103F10000E94D109B82E81ED95E00E94D109E82ECA
:103F200081ED95E00E94D109D82E81ED95E00E94A7
:103F3000D109F82E81ED95E00E94D1091B2D00E0FA
:103F40000C291093DE050093DD05DD2D20E0C22F46
:103F5000CE29D093E005C093DF05982F88278F29BD
:103F60009093E2058093E105DF91CF911F910F912E
:103F7000FF90EF90DF90CF90BF9008950F931F9325
:103F8000CF93DF9307E913E0C0E0D0E0F80161913F
:103F90008F01CE010E9404312196C033D105B1F7C3
:103FA000DF91CF911F910F910895CF92DF92EF9201
:103FB000FF920F931F93E82FF92F05C001501109AD
:103FC0002109310961F1908196239417B9F305C055
:103FD000015011092109310911F19081962394139F
:103FE000F7CFC12CD12CE12CF12C0AC08FEFC81ACD
:103FF000D80AE80AF80A0C151D052E053F0579F0C8
:1040000080818623841791F36C2D7D2D8E2D9F2D1D
:104010001F910F91FF90EF90DF90CF90089560E097
:1040200070E080E090E01F910F91FF90EF90DF90A3
:10403000CF900895CF93DF93CDB7DEB762970FB6D9
:10404000F894DEBF0FBECDBF789484B5826084BD86
:1040500084B5816084BD85B5826085BD85B581608C
:1040600085BD80916E00816080936E00109281000A
:1040700080918100826080938100809181008160C5
:104080008093810080918000816080938000809186
:10409000B10084608093B1008091B0008160809312
:1040A000B00080917A00846080937A0080917A00D9
:1040B000826080937A0080917A00816080937A0098
:1040C00080917A00806880937A001092C1001092EB
:1040D0002B0310922A0310927403109296031092ED
:1040E000720381E08093710310924C0361E082E1DE
:1040F0000E94D81761E083E10E94D8178091B9002F
:104100008E7F8093B9008091B9008D7F8093B90034
:1041100088E48093B80085E48093BC00E091D703E5
:10412000F091D80382E08083E091D303F091D4032F
:104130001082E091D503F091D60380E18083109244
:10414000DF03E091DB03F091DC0386E08083E09104
:10415000D903F091DA03808180618083E091D903F3
:10416000F091DA03808188608083E091D903F09137
:10417000DA03808180688083E091D903F091DA03CB
:1041800080818F7D808360E070E086E00E9444182B
:1041900060E070E085E00E94441860E070E08AE032
:1041A0000E94441860E070E089E00E94441861E0D9
:1041B0008CE00E94081861E08BE00E94081862E021
:1041C00087E00E94081862E088E00E9408188CEBE3
:1041D00095E00E94D40B6DE08CEB95E00E94C91A2B
:1041E00064E68CEB95E00E94371A87EA95E00E941E
:1041F000D40B6BE087EA95E00E94C91A64E687EA6F
:1042000095E00E94371A82E995E00E94D40B6CE099
:1042100082E995E00E94C91A64E682E995E00E946D
:10422000371A57E9E52E53E0F52E00E010E0C801FB
:104230000E94FC30D7018D937D010F5F1F4F00332B
:104240001105A9F78091970390919803873C9440BA
:1042500089F180E1E7E9F3E0DF011D928A95E9F752
:1042600087EC94E0909398038093970380E090E02C
:10427000A0E8BFE38093990390939A03A0939B03D4
:10428000B0939C0388E790E090939E0380939D03F6
:104290009093A00380939F039093A2038093A10324
:1042A0009093A4038093A3039093A6038093A50304
:1042B0000E94BE1F00E020E040E060E070E08CEB78
:1042C00095E00E94781A20E040E061E070E08CEB1D
:1042D00095E00E94781A8CEB95E00E94FB1A60E052
:1042E00070E080E090E00E94B5110E94D5110E941C
:1042F000F4186093F8057093F9058093FA0590938C
:10430000FB05E2E1F6E000E010E0808181112AC0C7
:1043100023E1209FC001219F900D1124FC01EE5E3E
:10432000F94F7F0181E0808385E090E0A0E0B0E07C
:1043300081839283A383B4838FEF9FEF96838583DA
:1043400080E69AE0928781870E94F418D7011D9633
:104350006D937D938D939C93509752961C921E92D1
:10436000519707C00F5F1F4F73960A30110569F60A
:104370000FEF002E000C110B1093750200937402C6
:104380000E94DC0D8091720290917302009709F0F7
:1043900056C00E94A30C0197E9F586E391E00E94C4
:1043A000CD1C0E94A30C019799F44CE251E068ECFB
:1043B00070E088EE93E00E94AF1C4CE251E068ECA4
:1043C00070E088EE93E00E94AF1C0E94E80D22C0CE
:1043D0001092F7051092F6051092EA051092EB057F
:1043E0001092EC051092ED051092EE051092EF057B
:1043F0001092F0051092F1051092F2051092F3055B
:104400001092F4051092F50582E090E0909373020B
:104410008093720288E00E94AF17892B51F48BE2DF
:1044200091E00E94CD1C83E090E090937302809312
:1044300072020E940212FE0131964F01ECC08230DE
:10444000910509F066C00E94F4184B015C014AE135
:10445000E42E46E0F42E02E116E0D8012C9122234E
:1044600009F44CC01D968D919D910D90BC91A02D8D
:10447000B501A401481B590B6A0B7B0BF801818124
:104480009281A381B481481759076A077B0700F11D
:10449000213019F0223031F011C00184F285E02D75
:1044A00009950CC061E0F7018081811160E0D701BE
:1044B0006C93F701319780810E94D817F8018586A7
:1044C0009686A786B08A818992890196928B818B84
:1044D000D80115968D919C91169797FD0FC0519616
:1044E0002D913C9152972817390744F01C921B9646
:1044F000ED91FC911C97309709F009950D5E1F4FC7
:10450000B3E1EB0EF11CE6E0003D1E0709F0A5CF7C
:1045100092CF039709F08DCF0E94CA0F20E030E0C0
:1045200040E251E40E94D82F87FF1FC00E94890FEC
:1045300064E170E080E090E00E94BA1864E670E008
:104540008CE99FEF0E94721D0E94CA0F20E030E0AC
:1045500040E251E40E94D82F87FF34C062E370E04C
:1045600080E090E00E94BA18EFCF0E94762C6B0199
:104570007C010E94762C4B015C01C701B60124E648
:1045800030E040E050E00E9444316B017C01F2E3F6
:10459000CF0ED11CE11CF11CC501B40124E630E0B2
:1045A00040E050E00E944431DC01CB01C296A11DE5
:1045B000B11DB6010E94721D64E170E080E090E0E0
:1045C0000E94BA1888E00E94AF17892B09F033CFF8
:1045D00010927302109272020E94890F83E191E09F
:1045E0000E94CD1C28CF87EC93E00E94F914A09183
:1045F000C602E1E0EA0FE093C6020A2E000CBB0BF4
:10460000AA57BD4F8C938A3069F08091C6028034DE
:1046100014F01092C60287EC93E00E941B15892BC0
:1046200011F75EC60E2E000CFF0BEA57FD4F1082ED
:10463000809186028D3409F049C687E892E00E9495
:10464000992D8C01AE01475F5F4F6EE172E087E804
:1046500092E00E94C02D0131110509F4BBC30CF09A
:1046600064C00730110509F44AC204F5033011058E
:1046700009F486C194F40130110509F4EAC00CF084
:104680004EC1012B09F022C60E94DC0D81E090E0B2
:10469000909373028093720219C69A8589850530BA
:1046A000110509F4F5C10CF4BEC10EC20C301105A0
:1046B00009F473C27CF50930110509F44CC20CF4FD
:1046C0002DC20B30110509F001C667EF71E087ECD0
:1046D00093E00E9455170E94D511609105017091D9
:1046E000060180910701909108012FEF3FEFA9018A
:1046F0002093050130930601409307015093080170
:1047000040E10E94521067E472E087EC93E00E945F
:104710004017DCC50E30110509F400C30CF4C1C20A
:104720000031110509F417C3D1C5093C110509F47D
:1047300042C5CCF40531110509F442C43CF40331FF
:10474000110509F475C30CF44AC3C8C30E31110531
:1047500009F4E6C4083C110509F418C50631110531
:1047600009F0B4C598C4063D110509F460C5C4F547
:10477000013D110509F43DC5023D110509F448C587
:104780000A3C110509F0A2C59F928F92CE010396B3
:104790009F938F9302969F938F9383E092E09F93D2
:1047A0008F938A858F9389858F930E949436098190
:1047B0001A816B817C818D819E810E94721DB8015E
:1047C000110F880B990B0E94BA1860E070E080E02E
:1047D00090E00E94721D85E192E00E948F0F89C1D6
:1047E0000C3221E0120709F443C53CF5073D1105E1
:1047F00009F06CC59F928F9289E092E09F938F930E
:104800008A858F9389858F930E94943689819A81B6
:1048100090939E0380939D039093A00380939F03A6
:104820009093A2038093A1039093A4038093A30386
:104830009093A6038093A50314C5063341E01407A3
:1048400009F421C5073E134009F040C50C9400004F
:104850003DC59F928F9289E092E09F938F938A85C6
:104860008F9389858F930E94943609811A81F8016C
:10487000EE0FFF1FE85FF94F80810E94A318F80137
:10488000EE0FFF1FEF54FC4FC080D1800D2C000CA9
:10489000EE08FF08092E000CAA0BBB0B9C01AD0112
:1048A0002C193D094E095F09A8EEB3E00E9463315F
:1048B000000F111FF801E955FC4F2081318189015A
:1048C000330F220B330BA90198012C193D094E0916
:1048D0005F090E94443169017A016FED71E087EC54
:1048E00093E00E94551769817A81072E000C880B8E
:1048F000990B0F900F900F900F900F900F9097FFC4
:1049000003C00E94951003C04AE00E9452106EE15D
:1049100072E087EC93E00E945517C601B6C063EEC3
:1049200071E087EC93E00E9455176091FC0570914F
:10493000FD058091FE059091FF0542E00E94CE109A
:104940006EE172E087EC93E00E94551760910006DB
:1049500070910106809102069091030642E00E9448
:10496000CE106EE172E087EC93E00E9455176091E3
:104970000406709105068091060690910706CBC04B
:1049800009851A851A830983C12CD12C7601260149
:104990003701CB86DC86ED86FE86012B39F1A4013A
:1049A0006EE172E080E090E00E94C02D8C01DC019D
:1049B0008C91803549F4C80101960E94952D6B8732
:1049C0007C878D879E87E9CF893439F4C8010196A9
:1049D0000E94952D2B013C01E0CF8434F1F6C801F3
:1049E00001960E94952D6B017C01D7CF2B853C85CC
:1049F0004D855E852093FC053093FD054093FE05B3
:104A00005093FF0540920006509201066092020604
:104A100070920306C0920406D0920506E092060644
:104A2000F092070653C49F928F9229E032E03F93A1
:104A30002F939F938F930E94943667EE71E087ECDB
:104A400093E00E94551769817A81072E000C880B2C
:104A5000990B0F900F900F900F900F900F9097FF62
:104A600003C00E94951003C04AE00E9452106EE1FC
:104A700072E087EC93E00E945517E981FA81EE0F0E
:104A8000FF1FE356FC4F808191810E94B4101EC429
:104A90009F928F929E012D5F3F4F3F932F9326E071
:104AA00032E03F932F939F938F930E949436EB8134
:104AB000FC81EE0FFF1FE356FC4F89819A819183A1
:104AC00080830E94BE1F15C09F928F929E012D5F12
:104AD0003F4F3F932F9326E032E03F932F939F93D6
:104AE0008F930E94943669817A818B819C810E9488
:104AF000B5110FB6F894DEBF0FBECDBFE7C30E945D
:104B0000CA0F6B017C016BEE71E087EC93E00E94B1
:104B10005517C701B6010E94A411D8C385E10E94B0
:104B2000A3188C016FEE71E087EC93E00E9455179B
:104B3000B801110F880B990B0E94DF2F20E030E0A5
:104B400040E85AE30E943E3026E636E646EA50E464
:104B50000E943E30E0CF89859A850E94992D8C0174
:104B600063EF71E087EC93E00E9455170130110567
:104B700019F40E94A30C89CF0230110559F488E082
:104B80000E94AF1731E020E0892B09F030E0832F3D
:104B9000922F7BCF8FEF9FEF78CF9F928F928CEFEA
:104BA00091E09F938F938A858F9389858F930E943D
:104BB000943649805A80052C000C660877081092BC
:104BC000700061E083E00E94081860E083E00E94CA
:104BD000D81781E08093B00089E08093B10082ED26
:104BE0008093B30086E48093B40088E293E20E944D
:104BF000F0118091B0008F7D8093B00064E971E185
:104C000080E090E00E944A190F900F900F900F9053
:104C10000F900F9000E210E0C12CD12CE12CF0E8B5
:104C2000FF2ED701C60184219521A621B721892B0A
:104C30008A2B8B2B71F080E392E00E94F01180911F
:104C4000B0008F7D8093B0006AE976E080E090E06C
:104C50000DC080E392E00E94F0118091B0008F7D42
:104C60008093B00060E372E080E090E00E944A1917
:104C7000F694E794D794C7940150110991F680E314
:104C800092E00E94F0118091B0008F7D8093B0007F
:104C900065E070E080E090E00E94BA180E94D511B3
:104CA00015C39F928F92CE0103969F938F93029686
:104CB0009F938F9302969F938F9380E092E09F93B0
:104CC0008F938A858F9389858F930E949436E9808C
:104CD000FB801D816F8178850FB6F894DEBF0FBE13
:104CE000CDBF6115710571F40E2D2F2D412F60E0A0
:104CF00070E08CEB95E00E94781A2F2D412F61E037
:104D000070E005C0615071090E2D2F2D412F8CEBE5
:104D100095E00E94781A8CEB95E059C09F928F9293
:104D200089E092E09F938F938A858F9389858F93F3
:104D30000E9494361981612F8CEB95E00E94371AFE
:104D4000612F87EA95E00E94371A612F82E995E08A
:104D50000E94371A86C29F928F92CE0103969F932C
:104D60008F9302969F938F9302969F938F9380E0E9
:104D700092E09F938F938A858F9389858F930E946A
:104D80009436E980FB801D816F8178850FB6F89499
:104D9000DEBF0FBECDBF6115710571F40E2D2F2D35
:104DA000412F60E070E087EA95E00E94781A2F2D8D
:104DB000412F61E070E005C0615071090E2D2F2D6B
:104DC000412F87EA95E00E94781A87EA95E00E94D1
:104DD000FB1A7CC289859A850E94CD1C77C29F925E
:104DE0008F92CE0103969F938F9386E092E09F93DC
:104DF0008F938A858F9389858F930E9494364981FA
:104E00005A816B817C81072E000C880B990B0FB6A1
:104E1000F894DEBF0FBECDBF611571058105910508
:104E200021F4BA0180E090E056C00E94FB1B4EC204
:104E30009F928F92CE0103969F938F9386E092E08C
:104E40009F938F938A858F9389858F930E94943641
:104E50006B817C8165547109072E000C880B990BBE
:104E60000E94DF2F20E030E040E451E40E9429322C
:104E70009B01AC0160E070E080E090E40E94D632DB
:104E800029813A814DE7429F8001439F100D1124F3
:104E900020E030E04CED53E40E943E300E949B3213
:104EA000072E000C880B990B0FB6F894DEBF0FBECF
:104EB000CDBF611571058105910531F4B80180E020
:104EC00090E00E94BA1803C0A8010E94FB1BB80121
:104ED000110F880B990B0E94BA18F8C109851A8521
:104EE000F80101900020E9F731976F01C01AD10A4B
:104EF0000E949414E1E8F5E01192119225E0E13965
:104F0000F207D1F781E080937B0510927D0581E067
:104F100090E090937A05809379059093780580933B
:104F20007705F80101900020E9F731979F01201BD8
:104F3000310B4BEF42037001439FF00C11243AE018
:104F4000E31AF10845E0C416D10484F41092740504
:104F5000109273051092760510927505B80187E6D8
:104F600095E00E9455170E94691427C07FE0C72E64
:104F7000D12CCE14DF040CF1E1E8F5E0119211928E
:104F800055E0E139F507D1F7D0927405C092730569
:104F90001092760510927505B80187E695E00E949B
:104FA00055170E94691464E670E080E090E00E946A
:104FB000BA1881E0C81AD108DCCF8DE092E084C134
:104FC000E984FA8487010D5F1F4F66E7C62E62E011
:104FD000D62E93E2E90EF11CF8013397808180937D
:104FE0000201319680818093030131968081809304
:104FF0000001D8018C918093010140E150E060E014
:1050000070E080E091E00E94842CF601619371933E
:105010006F010C5F1F4F0E151F05F1F60E949414CF
:10502000E1E8F5E01192119225E0E139F207D1F7BC
:10503000B12CE12CF12C6701CC0CDD1C00E010E060
:10504000C80187709927892B11F0BB0C0BC0F801A0
:1050500053E0F595E7955A95E1F7EC0DFD1DEA58FB
:10506000FD4FB080B7FE08C021E030E0A701B801D5
:1050700087E695E00E946A080F5F1F4F0031110517
:10508000F9F63FEFE31AF30A48E0E416F10499F663
:105090000E9469141BC19F928F92CE0103969F9329
:1050A0008F9302969F938F9302969F938F9380E0A6
:1050B00092E09F938F938A858F9389858F930E9427
:1050C0009436C980DB801D816F8178850FB6F89496
:1050D000DEBF0FBECDBF6115710591F4E12CF12C3F
:1050E0000C2D2D2D412FB70182E995E00E94781AF1
:1050F0009FEFE91AF90AA0E1EA16F10489F709C05D
:10510000615071090C2D2D2D412F82E995E00E94EF
:10511000781A82E995E00E94FB1A81E192E0D4C0FE
:105120009F928F92CE0103969F938F9302969F93A7
:105130008F9383E092E09F938F938A858F938985E5
:105140008F930E94943609811A81FB80ED8061E083
:105150008CE00E94081861E08BE00E9408186E2D18
:105160008CE00E94D8176F2D8BE00E94D817B801F1
:10517000110F880B990B0E94BA1861E08CE00E9415
:10518000D81761E08BE00E94D817B3CC9F928F9222
:10519000CE0103969F938F9386E092E09F938F9327
:1051A0008A858F9389858F930E94943669817A814D
:1051B0008B819C811BC09F928F92CE0103969F93FF
:1051C0008F9386E092E09F938F938A858F93898552
:1051D0008F930E94943689819A81880F991F2B8121
:1051E0003C81B901681B790B820F931F0E94721DCD
:1051F00080CC89859A850E94952D60939903709340
:105200009A0380939B0390939C030E94BE1F5EC0F1
:105210006AE172E087EC93E00E9455176091990370
:1052200070919A0380919B0390919C0374CC9F9200
:105230008F92CE0103969F938F9386E092E09F9387
:105240008F938A858F9389858F930E949436898165
:105250009A81880F991F2B813C81BC01621B730BC3
:10526000C3CF0F900F900F900F900F900F902EC004
:105270000E94890F8BE60E94A20F8F3FBFEF9B0712
:1052800009F042C030C00E94E80D20C03FEF231A51
:10529000330A46E02416310409F03FC120E030E033
:1052A00040E85FE3C701B6010E94BD3160939903F6
:1052B00070939A0380939B0390939C030E94BE1F5C
:1052C0000E94890F80E292E00E948F0F80E4E6E85E
:1052D000F2E0DF011D928A95E9F71092C60295C9A6
:1052E0000E94BB154FC88AE60E94A20F8F3FBFEFF6
:1052F0009B0769F489E60E94A20F833D910509F09E
:105300002BC121E030E025C121E030E002C020E0E7
:1053100030E0873D910509F417C181E090E090935A
:10532000E5058093E405AC01415051094230510537
:1053300038F42130310511F02AE608C02BE606C00A
:105340002130310511F028E601C029E62093E60559
:10535000029721F460E089E30E94D81E60E083E2B6
:105360000E94D81E6FE680E20E94D81E85E1E82EDA
:10537000F12C10E000E0B12CA12CE1E0EE1AF108D4
:1053800079F10E943E1F23E333E343E35FE3612FA0
:10539000702F8B2D9A2D0E943E302B013C01609185
:1053A000E1057091E205072E000C880B990B0E9415
:1053B000DF2F2AE939E949E95EE30E943E309B018B
:1053C000AC01C301B2010E94BD31162F072FB82EC8
:1053D000A92E62E370E080E090E00E94BA18CDCF81
:1053E0001F87088BB98AAA8A0E94F4182B013C01F6
:1053F00020E030E040E85FE32093990330939A0384
:1054000040939B0350939C0368E770E088E790E02B
:105410000E94721DC12CD12C7601212C312C0E94AE
:105420003E1F23E333E343E35FE3612F702F8B2DB4
:105430009A2D0E943E306B877C878D879E87609176
:10544000E1057091E205072E000C880B990B0E9474
:10545000DF2F2AE939E949E95EE30E943E309B01EA
:10546000AC016B857C858D859E850E94BD31162F94
:10547000072FB82EA92E62E370E080E090E00E9432
:10548000BA180E94F418DC01CB0184199509A60909
:10549000B70985369105A105B10508F22F85388930
:1054A00049895A89612F702F8B2D9A2D0E94BC310A
:1054B0006B877C878D879E870E94F4182B013C01A7
:1054C00020E030E04AE754E46B857C858D859E853D
:1054D0000E94D13218164CF42AE037ED43EA5CE31F
:1054E000C701B6010E94BD3114C020E030E04AE798
:1054F00054EC6B857C858D859E850E94D82F87FF17
:10550000C5CE2AE037ED43EA5CE3C701B6010E944D
:10551000BC316B017C01212C312C20E030E040E8D3
:105520005FE3C701B6010E94BD3160939903709398
:105530009A0380939B0390939C0368E770E088E74D
:1055400090E00E94721D6BCF82E090E0E8CE20E0F8
:1055500030E080E090E0E3CE88E60E94A20F833D39
:105560009105A9F385E292E0AFCE82E995E00E9431
:105570004C0A87EA95E00E944C0A8CEB95E00C946B
:105580004C0ACF92DF92EF92FF92CF93DF9310926B
:10559000CA031092C90388EEC82E83E0D82EE12CEE
:1055A000F12CC092CB03D092CC03E092CD03F092C9
:1055B000CE038BE891E09093C8038093C70385ECFA
:1055C00090E09093D4038093D30384EC90E0909385
:1055D000D6038093D50380EC90E09093D80380931A
:1055E000D70381EC90E09093DA038093D90382ECA7
:1055F00090E09093DC038093DB0386EC90E0909343
:10560000DE038093DD031092E0031092E103109219
:10561000E2031092E3031092670410926604C092B2
:105620006804D0926904E0926A04F0926B048BE9FA
:1056300091E090936504809364041092BD051092EC
:10564000C3051092C5051092C4051092CA051092A8
:10565000CB051092CC051092CD05C1E0C093C905D1
:10566000C093C6051092C705D2E0D093C805C09379
:10567000BC0562E070E08CEB95E00E94C11B66E027
:105680008CEB95E00E94C91A1092A8051092AE0505
:105690001092B0051092AF051092B5051092B605A4
:1056A0001092B7051092B805C093B405C093B10528
:1056B0001092B205D093B305C093A70562E070E0E5
:1056C00087EA95E00E94C11B66E087EA95E00E94A8
:1056D000C91A109293051092990510929B05109289
:1056E0009A051092A0051092A1051092A2051092A1
:1056F000A305C0939F05C0939C0510929D05D09370
:105700009E05C093920560E170E082E995E00E94F9
:10571000C11B66E082E995E00E94C91A10926A05F1
:105720001092690520E130E030936C0520936B0501
:1057300088E090E090936E0580936D05309370053E
:1057400020936F05909372058093710510927C05EC
:1057500010927405109273051092760510927505DB
:10576000C0937B058FEF9FEF90937A058093790527
:105770009093780580937705C0937D0510927E0500
:105780001092800510927F058BEA91E09093680556
:1057900080936705D0939504109297041092D405D6
:1057A0001092D305C092D505D092D605E092D705C8
:1057B000F092D80583ED91E09093D2058093D105C6
:1057C000E2E1F6E01082739686E0E03DF807D1F75B
:1057D00080E090E0A0ECB0E48093FC059093FD05A0
:1057E000A093FE05B093FF058DEC9CECACECBEE302
:1057F0008093000690930106A0930206B0930306DF
:1058000080E090E0A8E4B3E480930406909305065A
:10581000A0930606B09307068AE0EFE6F1E0A8E061
:10582000B6E001900D928A95E1F783E090E09093C5
:10583000E5058093E4051092E8051092E7051092C3
:10584000E905DF91CF91FF90EF90DF90CF90089521
:105850008F929F92AF92BF92CF92DF92EF92FF9280
:10586000CF93DF93EC01688179818A819B816115F7
:1058700071058105910521F464E279ED8BE597E0EE
:105880002DE133EF41E050E00E94443149015A01DB
:105890009B01AC01A7EAB1E40E9463316B017C017A
:1058A000ACEEB4EFA50194010E947131DC01CB0193
:1058B0008C0D9D1DAE1DBF1DB7FF03C00197A10933
:1058C000B04888839983AA83BB83BC01CD019F77AD
:1058D000DF91CF91FF90EF90DF90CF90BF90AF908E
:1058E0009F908F9008950E94282C089589E091E060
:1058F0000E94282C08956093090170930A018093F7
:105900000B0190930C010895A0E0B0E0EAE8FCE2FE
:105910000C9476315C016B017A016115710519F007
:10592000FB0191838083E114F10429F0C701029700
:10593000839708F0F1C0E5012196F5011081812FD0
:1059400090E00E94B72D892B11F05E01F4CF1D323B
:1059500029F42196F501118101E007C01B3221F4E1
:10596000E5012296F501118100E0E114F10459F1FD
:10597000F0E1EF16F10461F41033E1F488818F7DDA
:10598000883569F519812296026070E1E72EF12CC5
:1059900088E0E816F10439F12CF4F2E0EF16F10496
:1059A000C9F12AC08AE0E816F10479F0E0E1EE16C8
:1059B000F10411F550E1E52EF12C812C912CA12C54
:1059C00068E0B62E2CC01033C9F23AE0E32EF12C79
:1059D0004CEC842E982CA82C4CE0B42E20C010E364
:1059E000E114F104A9F698E0E92EF12C812C912C18
:1059F000A12C20E1B22E13C060E070E080E090E8BE
:105A000097010F2C000C440B550B0E9422314901C9
:105A10005A0105C0812C912CA12C80E4B82E60E0A5
:105A200020E030E0A90127010F2C000C6608770860
:105A30001E01E0EDE10FEA3060F08FEB810F8A315B
:105A400010F4E9EC05C08FE9810F8A3128F5E9EA05
:105A5000E10F8E2F90E08E159F05F4F467FD18C0BE
:105A600082169306A406B50690F0C301B2010E9407
:105A700012319B01AC012E0F311D411D511D2130F2
:105A800031054105F0E85F0710F461E001C06FEFF8
:105A90002196F1011081CCCF802F8170C114D104E7
:105AA00071F0662329F02197F601D183C08307C0E6
:105AB00001FF19C02297F601D183C08314C067FF8C
:105AC00012C0811105C02FEF3FEF4FEF5FE704C019
:105AD00020E030E040E050E882E290E09093D10690
