:100000000C9474050C949C050C949C050C949C0514
:100010000C949C050C949C050C949C050C94E11D7F
:100020000C949C050C949C050C949C050C94051F49
:100030000C949C050C949C050C949C050C949C05BC
:100040000C94BB1E0C949C050C94891E0C94631E8E
:100050000C949C050C949C050C949C050C949C059C
:100060000C94F8200C949C0505A84CCDB2D44EB944
:100070003836A9020C50B9918688083CA6AAAA2A4B
:10008000BE000000803F07634236B79BD8A71A39ED
:10009000685618AEBAAB558C1D3CB7CC5763BD6DD6
:1000A000EDFD753EF6177231BF000000803F08007D
:1000B0000000BE922449123EABAAAA2ABECDCCCCE7
:1000C0004C3E00000080BEABAAAAAA3E0000000081
:1000D000BF000000803F0000000000084178D3BB53
:1000E0004387D1133D190E3CC3BD4282AD2B3E6800
:1000F000EC8276BED98FE1A93E4C80EFFFBE01C4F1
:10010000FF7F3F00000000004E414E494E495459C8
:10011000494E46CDCCCC3D0AD7233C17B7D13877D2
:10012000CC2B329595E6241FB14F0A0000204100E8
:1001300000C84200401C4620BCBE4CCA1B0E5AAE32
:10014000C59D746364696E6F70737578585B0067E2
:10015000353A3120642320632067343A3220623AF2
:10016000312063353A33200067343A31206335203B
:100170006520673A3220653A3120673A33200067BC
:10018000353A312066206520642063200063353ACB
:10019000312064206520662067200065333A3320D3
:1001A000723A312064233A3320723A3120643A346F
:1001B00020723A312063233A38200062353A3120E8
:1001C00065363A33200061343A31206220633520AD
:1001D000623420613A32207220613A312062206319
:1001E0003520623420613A32207220613A32206533
:1001F0003520642320652066206520642320652047
:1002000062343A31206335206420632062343A320C
:10021000207220623A3120633520642063206234EA
:100220003A32207220623A322065352064232065FC
:10023000206620652064232065200063333A332044
:100240007220643A32206423207220632072206678
:10025000233A38200063343A332067333A3120663A
:100260002320672067233A332067207220622063AF
:1002700034200063333A3420633A3320633A312028
:10028000633A342064233A3320643A3120643A33A9
:1002900020633A3120633A332062323A31206333AB
:1002A0003A34200063343A3420663A3320663A31D7
:1002B00020663A3820633A3420673A3320653A3171
:1002C00020663A3820633A3420663A3320613A3166
:1002D0002063353A342061343A3320663A3120665F
:1002E0003A3420653A3320663A3120673A382000A4
:1002F00063343A3320633A3120643A3420633A3429
:10030000206620653A3820633A3320633A3120640E
:100310003A3420633A34206720663A3820633A330F
:1003200020633A312063353A3420613420662065F9
:1003300020642061233A332061233A3120613A342A
:100340002066206720663A38200063323A32206502
:1003500020672061206123206120672065206332AF
:100360003A322065206720612061232061206720C8
:10037000652066206120633320642064232064208C
:10038000632061322063323A322065206720612089
:10039000612320612067206520672062206433206C
:1003A0006620663220612063332064232063323A62
:1003B0003220652067206520672066206520642044
:1003C0000063323A32206320642320633A3120668E
:1003D0003A3220633A3120663A3220662320672081
:1003E000632063206720633A312066233A3220631A
:1003F0003A312066233A3220662064232000633499
:100400003A31206420653A32206720643A31206511
:1004100020663A32206120653A31206620673A3200
:1004200020622063353A3420006623353A32206753
:10043000232063233A312064233A322062343A3154
:100440002064353A312063232062343A322062201E
:10045000632335206420643A312063232062343AD8
:1004600031206323353A312064232066232067231B
:1004700020642320662320632320642062342063C9
:100480002335206234206423353A3220006534203D
:100490006520662067206720662065206420632031
:1004A000632064206520653A3620643A3220643A3D
:1004B0003820653A34206520662067206720662052
:1004C000652064206320632064206520643A362020
:1004D000633A3220633A38200063343A3120652091
:1004E00067206335206520673420633520652063ED
:1004F000342065206720633520652067342063350C
:1005000020652063342064206720643520662067DE
:1005100034206435206620633420642067206435ED
:100520002066200064343A3120642320652063353E
:100530003A322065343A312063353A322065343A14
:10054000312063353A3320633A312064206423201C
:10055000652063206420653A322062343A31206499
:10056000353A3220633A34200072343A3220672020
:100570006720672065623A3820723A32206620662A
:10058000206620643A38200000000000003E5B4FE7
:100590005B3E3E6B4F6B3E1C3E7C3E1C183C7E3CE3
:1005A000181C577D571C1C5E7F5E1C00183C1800F1
:1005B000FFE7C3E7FF0018241800FFE7DBE7FF3081
:1005C000483A060E2629792926407F050507407FEF
:1005D00005253F5A3CE73C5A7F3E1C1C08081C1C62
:1005E0003E7F14227F22145F5F005F5F06097F0158
:1005F0007F006689956A606060606094A2FFA29443
:1006000008047E040810207E201008082A1C080810
:100610001C2A08081E101010100C1E0C1E0C30385E
:100620003E3830060E3E0E06000000000000005F5F
:1006300000000007000700147F147F14242A7F2A7B
:10064000122313086462364956205000080703003D
:10065000001C2241000041221C002A1C7F1C2A0889
:10066000083E0808008070300008080808080000EC
:1006700060600020100804023E5149453E00427F60
:10068000400072494949462141494D331814127FAF
:100690001027454545393C4A49493141211109074F
:1006A0003649494936464949291E000014000000D0
:1006B00040340000000814224114141414140041A2
:1006C00022140802015909063E415D594E7C12115F
:1006D000127C7F494949363E414141227F41414197
:1006E0003E7F494949417F090909013E4141517312
:1006F0007F0808087F00417F41002040413F017F83
:10070000081422417F404040407F021C027F7F044A
:1007100008107F3E4141413E7F090909063E415193
:10072000215E7F09192946264949493203017F0183
:10073000033F4040403F1F2040201F3F4038403F84
:10074000631408146303047804036159494D43009A
:100750007F4141410204081020004141417F0402D1
:100760000102044040404040000307080020545468
:1007700078407F2844443838444444283844442846
:100780007F385454541800087E090218A4A49C7899
:100790007F0804047800447D40002040403D007FF5
:1007A0001028440000417F40007C047804787C08D5
:1007B0000404783844444438FC18242418182424A9
:1007C00018FC7C08040408485454542404043F448E
:1007D000243C4040207C1C2040201C3C4030403CBD
:1007E00044281028444C9090907C4464544C44001D
:1007F0000836410000007700000041360800020181
:100800000204023C2623263C1EA1A161123A40406C
:10081000207A3854545559215555794122545478E9
:1008200042215554784020545579400C1E52721282
:10083000395555555939545454593955545458000B
:1008400000457C410002457D420001457C407D120F
:1008500011127DF0282528F07C5455450020545471
:100860007C547C0A097F4932494949323A4444441C
:100870003A324A4848303A4141217A3A4240207857
:10088000009DA0A07D3D4242423D3D4040403D3C58
:1008900024FF2424487E4943662B2FFC2F2BFF097D
:1008A00029F620C0887E0903205454794100004471
:1008B0007D413048484A32384040227A007A0A0A5C
:1008C000727D0D19317D2629292F282629292926CF
:1008D00030484D4020380808080808080808382F14
:1008E00010C8ACBA2F102834FA00007B000008149E
:1008F0002A142222142A14085500550055AA55AA74
:1009000055AAFF55FF55FF000000FF00101010FF13
:1009100000141414FF001010FF00FF1010F010F06E
:10092000141414FC001414F700FF0000FF00FF145F
:1009300014F404FC141417101F10101F101F1414AB
:10094000141F00101010F0000000001F10101010F5
:100950001F10101010F010000000FF1010101010E9
:1009600010101010FF10000000FF140000FF00FF27
:1009700000001F10170000FC04F4141417101714C3
:1009800014F404F40000FF00F714141414141414E5
:10099000F700F7141414171410101F101F14141458
:1009A000F4141010F010F000001F101F0000001FC2
:1009B00014000000FC140000F010F01010FF10FFF5
:1009C000141414FF141010101F00000000F010FF8A
:1009D000FFFFFFFFF0F0F0F0F0FFFFFF000000006E
:1009E00000FFFF0F0F0F0F0F3844443844FC4A4AF2
:1009F0004A347E02020606027E027E0263554941A7
:100A0000633844443C04407E201E2006027E0202DD
:100A100099A5E7A5991C2A492A1C4C7201724C30F1
:100A20004A4D4D303048784830BC625A463D3E49C8
:100A30004949007E0101017E2A2A2A2A2A44445F6C
:100A4000444440514A444040444A51400000FF0160
:100A500003E080FF000008086B6B0836123624366E
:100A6000060F090F060000181800000010100030D3
:100A700040FF0101001F01011E00191D1712003C5B
:100A80003C3C3C0000000000000000002400270067
:100A90002A00000000080002010000030407000013
:100AA00000000000000000000000250028002B00CE
:100AB00002000000002300260029000404040404AE
:100AC00004040402020202020203030303030301FB
:100AD00002040810204080010204081020010204D2
:100AE000081020009522132D11241FBECFEFD8E04F
:100AF000DEBFCDBF12E0A0E0B1E0E4E0F6E702C067
:100B000005900D92A434B107D9F727E0A4E4B2E030
:100B100001C01D92AA3FB207E1F715E0C3E7D5E097
:100B200004C02197FE010E94E935C237D107C9F7F9
:100B30000E9455230C94F53A0C94000028E030E014
:100B4000611571058105910529F4F0E0E0E0099552
:100B500081E008952150310999F780E008950895C2
:100B600008950895AF92BF92CF92DF92EF92FF92D5
:100B70000F931F93CF93DF936C017B018B01040FC5
:100B8000151FEB015E01AE18BF08C017D10759F061
:100B90006991D601ED91FC910190F081E02DC601A3
:100BA0000995892B79F7C501DF91CF911F910F919D
:100BB000FF90EF90DF90CF90BF90AF900895FC0131
:100BC000538D448D252F30E0842F90E0821B930BB2
:100BD000541710F0CF96089501970895FC01918D58
:100BE000828D981761F0A28DAE0FBF2FB11D5D965B
:100BF0008C91928D9F5F9F73928F90E008958FEFFD
:100C00009FEF0895FC01918D828D981731F0828DB0
:100C1000E80FF11D858D90E008958FEF9FEF089507
:100C2000FC01918D228D892F90E0805C9F4F821B6B
:100C300091098F739927089588EF94E00E94100618
:100C400021E0892B09F420E0822F089580E090E0D4
:100C5000892B29F00E941C0681110C940000089534
:100C6000FC01A48DA80FB92FB11DA35ABF4F2C9121
:100C7000848D90E001968F739927848FA689B78918
:100C80002C93A089B1898C91837080648C93938D0F
:100C9000848D981306C00288F389E02D80818F7DB2
:100CA00080830895EF92FF920F931F93CF93DF936A
:100CB000EC0181E0888F9B8D8C8D98131AC0E88998
:100CC000F989808185FF15C09FB7F894EE89FF8967
:100CD0006083E889F98980818370806480839FBF05
:100CE00081E090E0DF91CF911F910F91FF90EF9005
:100CF0000895F62E0B8D10E00F5F1F4F0F73112715
:100D0000E02E8C8D8E110CC00FB607FCFACFE8894F
:100D1000F989808185FFF5CFCE010E943006F1CFA1
:100D2000EB8DEC0FFD2FF11DE35AFF4FF0829FB7C3
:100D3000F8940B8FEA89FB8980818062CFCFCF93B3
:100D4000DF93EC01888D8823B9F0AA89BB89E889F3
:100D5000F9898C9185FD03C0808186FD0DC00FB699
:100D600007FCF7CF8C9185FFF2CF808185FFEDCF17
:100D7000CE010E943006E9CFDF91CF9108958330F4
:100D800081F028F4813099F08230A9F008958730FD
:100D9000A9F08830C9F08430B1F4809180008F7D53
:100DA00003C0809180008F7780938000089584B580
:100DB0008F7784BD089584B58F7DFBCF8091B0007F
:100DC0008F778093B00008958091B0008F7DF9CF28
:100DD000CF93DF93282F30E0F901EE56F54F849141
:100DE000F901E153F54FD491F901E554F54FC49160
:100DF000CC23A1F081110E94BF06EC2FF0E0EE0F92
:100E0000FF1FEF54F54FA591B491EC91ED2381E0D4
:100E100090E009F480E0DF91CF91089580E090E0C8
:100E2000FACF1F93CF93DF93282F30E0F901EE56CE
:100E3000F54F8491F901E153F54FD491F901E5544F
:100E4000F54FC491CC23A9F0162F81110E94BF0643
:100E5000EC2FF0E0EE0FFF1FEA55F54FA591B4918E
:100E60008FB7F894EC91111108C0D095DE23DC9374
:100E70008FBFDF91CF911F910895DE2BF8CFCF93D5
:100E8000DF9390E0FC01E153F54F24918554954F99
:100E9000FC0184918823C9F090E0880F991FFC0120
:100EA000E857F54FA591B491FC01EA55F54FC5916E
:100EB000D49161110DC09FB7F8948C912095822335
:100EC0008C938881282328839FBFDF91CF91089539
:100ED000623051F49FB7F8943C91822F8095832320
:100EE0008C93E8812E2BEFCF8FB7F894EC912E2BBB
:100EF0002C938FBFEACF0F931F93CF93DF938C0177
:100F0000EB0161E08CE00E943F0761E08AE00E9413
:100F10003F0761E0012B09F060E08AE00E941107C1
:100F200061E0CD2B09F060E08CE0DF91CF911F9163
:100F30000F910C941107E5ECF5E08181F894109283
:100F4000800089E08093810080E293E090938900A3
:100F500080938800109285001092840082E0809334
:100F60006F00789480831482818160E00E943F0743
:100F700081E08093970608954F925F926F927F92DF
:100F80008F929F92AF92BF92CF92DF92EF92FF9299
:100F90000F931F93CF93DF9300D000D01F92CDB754
:100FA000DEB78C012A013B01809109018430C9F030
:100FB0008F3F09F47FC00F900F900F900F900F900C
:100FC000DF91CF911F910F91FF90EF90DF90CF9025
:100FD000BF90AF909F908F907F906F905F904F9059
:100FE0000895E0EBFAE084918D8387FDE4CF61E022
:100FF00084E00E943F078D81882321F09D819230FB
:1010000009F05CC14801B12CA12C60E072E18AE7D3
:1010100090E0A50198010E94523229833A834B83C4
:101020005C8369017A0181E0C81AD108E108F108FE
:101030009FEFC916D104E104F10409F00CF413C1C7
:1010400060E472E48FE090E0A50198010E945232C2
:1010500069017A0181E0C81AD108E108F1089D818F
:10106000923009F098C08FEFC816D104E104F10462
:1010700009F00CF4DDC160E970ED83E090E0A501BA
:1010800098010E94523269017A0191E0C91AD1088F
:10109000E108F1088FEFC816D104E104F10411F062
:1010A0000CF0A3C183E09091B100987F892B8093CD
:1010B000B100E1C084E080930901E0EBFAE0949193
:1010C0009D839F3F09F477CF913029F158F09230FA
:1010D00009F43FC08D8187FD6ECF61E084E00E94FE
:1010E0003F078CCF14BC15BC84B5826084BD85B528
:1010F000816085BDEFEBFAE0E491F0E0EE0FFF1FB9
:10110000EA55F54F85919491E3EDFAE0E491E0938F
:10111000BB041D826CCF10928000109281008091E0
:10112000810088608093810080918100816080933C
:101130008100EFEBFAE0E491F0E0EE0FFF1FEA55DB
:10114000F54F85919491E3EDFAE0E491E093BA04D0
:101150004ECF1092B0001092B1008091B00082602A
:101160008093B0008091B10081608093B100EFEB7B
:10117000FAE0E491F0E0EE0FFF1FEA55F54F85919C
:1011800094919093B9048093B804E3EDFAE0E4916C
:10119000E093B7042CCF9FEFC916D104E104F1040A
:1011A00009F00CF489C068E478EE81E090E0A501D4
:1011B00098010E94523269017A0181E0C81AD1086F
:1011C000E108F1089D81992309F428C19FEFC91610
:1011D000D104E104F10409F00CF41EC162E17AE7E4
:1011E00080E090E0A50194010E94523269017A01E9
:1011F00081E0C81AD108E108F1089D81992309F41A
:10120000EBC08FEFC816D104E104F10411F008F02F
:10121000BFC086E048CF64E274EF80E090E0A501B3
:1012200094010E94523269017A0181E0C81AD10802
:10123000E108F10885E09FEFC916D104E104F1044B
:1012400009F008F430CF62E17AE780E090E0A50190
:1012500094010E94523269017A0191E0C91AD108C1
:10126000E108F108CECF81E09D8191111CCF95B5A9
:10127000987F892B85BD2FEF3FEFA90141145104C1
:101280006104710409F043C09D81913009F45EC08E
:10129000923009F46DC091118ECEC7BC2093C40466
:1012A0003093C5044093C6045093C70480916E00E8
:1012B000826080936E007FCE82E0D6CFB12CA12CCD
:1012C00060E072E18AE790E0A50198010E94523245
:1012D00069017A0181E0C81AD108E108F108C11456
:1012E000D10491E0E906F10404F591E08D818130AB
:1012F00011F680918100887F892B809381002FEFE8
:101300003FEFA9014114510461047104F9F0D801BF
:10131000AA0FBB1FA30192010E94713228EE33E095
:1013200040E050E00E943032AFCF68E478EE81E0D8
:1013300090E0A50198010E94523269017A0181E092
:10134000C81AD108E108F10893E0D0CFD092890003
:10135000C09288002093C0043093C1044093C2041B
:101360005093C30480916F00826080936F0023CEFE
:10137000C092B3002093BC043093BD044093BE04DC
:101380005093BF048091700082608093700013CEF0
:10139000C980DA80EB80FC809AE0F594E794D794DA
:1013A000C7949A95D1F791E0C91AD108E108F108DC
:1013B00087E079CEC980DA80EB80FC808AE0F59402
:1013C000E794D794C7948A95D1F791E0C91AD108C8
:1013D000E108F10885E04BCF8FEFC816D104E10496
:1013E000F10409F038F784E042CF68E478EE81E058
:1013F00090E0A50198010E94523269017A0191E0C2
:10140000C91AD108E108F1088FEFC816D104E10428
:10141000F10411F00CF0FFCE84E045CE8FEFC8163A
:10142000D104E104F10411F00CF0D8CE83E01FCF19
:1014300082E039CE1F93CF93DF93182FEB0161E049
:101440000E943F07209739F460E0812FDF91CF9110
:101450001F910C941107CF3FD10511F461E0F5CF36
:10146000E12FF0E0EE56F54FE491E33031F140F436
:10147000E130B1F0E230E1F0C038D1057CF7E4CFE3
:10148000E73029F1E83059F1E430B1F7809180007C
:10149000806280938000D0938B00C0938A0004C048
:1014A00084B5806884BDC7BDDF91CF911F91089539
:1014B00084B5806284BDC8BDF7CF8091800080680C
:1014C00080938000D0938900C0938800EDCF8091F5
:1014D000B00080688093B000C093B300E5CF8091E6
:1014E000B00080628093B000C093B400DDCFCF9293
:1014F000DF92EF92FF920F931F93CF93DF93EC0154
:10150000072E000C880B990B0E94ED302091CA0425
:101510003091CB044091CC045091CD040E944C31C9
:101520000E94AE336B018B01D7FF22C070E060E0F8
:1015300085E00E941A0A662777276C1B7D0B86E0E0
:101540000E941A0A17FF1BC0662777276C197D09AE
:1015500083E00E941A0A70E060E08BE0DF91CF9197
:101560001F910F91FF90EF90DF90CF900C941A0A8B
:10157000BE0185E00E941A0A70E060E0E0CF70E0F2
:1015800060E083E00E941A0AB601E7CF8E3008F0CF
:101590008E508770806480937C0080917A00806494
:1015A00080937A0080917A0086FDFCCF809178004C
:1015B000909179000895CF92DF92EF92FF92CF93AE
:1015C000DF93EC01FC01EE0FFF1FE45DF84F80811B
:1015D0000E94C60AFE01EE0FFF1FEE51FB4FC080B6
:1015E000D1800D2C000CEE08FF089C01990F440BD4
:1015F000550B2C193D094E095F09A8EEB3E00E9476
:101600007132CC0FDD1FC852DB4F28813981032E88
:10161000000C440B550B2C193D094E095F090E9423
:101620005232C901DF91CF91FF90EF90DF90CF90C0
:1016300008952F923F924F925F926F927F928F9276
:101640009F92AF92BF92CF92DF92EF92FF920F9351
:101650001F93CF93DF93CDB7DEB729970FB6F894DA
:10166000DEBF0FBECDBF9F838E832CE237E03B836E
:101670002A838EEC94E099878887812C912C5401E1
:10168000198210E000E0C12CD12C7601312C212CE4
:10169000EA81FB8180813296FB83EA830E94C60A3D
:1016A0009D838C83E885F98544885588712C612C4D
:1016B0009C01990F440B550B24193509460957090C
:1016C000A4E6B0E00E9471322285338550E040E00C
:1016D00024193509460957090E945232E4E6F0E020
:1016E000E21BF30B24E630E0DF010E94E2359B01B0
:1016F000AC01C501B4010E942032C60ED71EE81EFF
:10170000F91E0E0F1F1FE885F985808191819F01C9
:101710002E5F3F4F39872887EC81FD81E817F90755
:1017200050F481E090E0022C01C0880F0A94EAF79F
:10173000F981F82BF9832FEF221A320A3FEF831A2F
:10174000930AA30AB30A85E02816310409F0A0CF52
:10175000998128EC30E0992351F09801110F440B46
:10176000550BC701B6010E945232285C3109EE8147
:10177000FF8131832083898129960FB6F894DEBFDB
:101780000FBECDBFDF91CF911F910F91FF90EF90D2
:10179000DF90CF90BF90AF909F908F907F906F9091
:1017A0005F904F903F902F9008953FB7F8948091AD
:1017B000480490914904A0914A04B0914B0426B585
:1017C000A89B05C02F3F19F00196A11DB11D3FBF79
:1017D000BA2FA92F982F8827BC01CD01620F711D48
:1017E000811D911D42E0660F771F881F991F4A9542
:1017F000D1F708958F929F92AF92BF92CF92DF92CE
:10180000EF92FF926B017C010E94D50B4B015C01B2
:10181000C114D104E104F104B9F00E94D50B681998
:1018200079098A099B09683E73408105910580F317
:1018300021E0C21AD108E108F10888EE880E83E0A1
:10184000981EA11CB11CE4CFFF90EF90DF90CF90C9
:10185000BF90AF909F908F900895CF93DF93EA0150
:10186000AB01770F660B770B0E94BC07BE01DD0F43
:10187000880B990BDF91CF910C94FA0B2FB7F8944A
:10188000609144047091450480914604909147040E
:101890002FBF08958F929F92AF92BF92CF92DF9207
:1018A000EF92FF926B017C010E94D50B4B015C0112
:1018B00084E0C81AD108E108F108C80CD91CEA1C58
:1018C000FB1CC814D904EA04FB0438F40E94D50BAD
:1018D00086169706A806B906C8F30E94D50B6C15A4
:1018E0007D058E059F05C8F3FF90EF90DF90CF90A8
:1018F000BF90AF909F908F900895209180002F7798
:10190000209380008530910528F0BC0190E080E0B4
:101910000C944A0C0895E0E8F0E0208120682083D0
:10192000BC0190E080E00C944A0CFF920F931F934F
:10193000CF93DF93EC01FF24F394F60E2F812F1544
:1019400081F108851985215041F16F3FE1F430E0C4
:1019500050E040E06FEF7FEF80E090E00E94523275
:10196000B901F8014C815D81CF01801B910B841777
:101970009507B0F44081469FC001479F900D112408
:1019800090833196EFCF8F2D90E0982F8827019785
:10199000622F70E00E94CE35E4CF70E060E0E1CFCE
:1019A000FF82DF91CF911F910F91FF9008950F93C8
:1019B0001F93DC0112968D919C91139768177907FC
:1019C000C0F517968C911797882361F0489FA00166
:1019D0001124452F829F90011124232F809F800185
:1019E0001124012F1D968C911D971896ED91FC9155
:1019F00019971A969C911A9789131EC0CB01880FCC
:101A0000991F680F791F6E0F7F1F1A96EC911A9716
:101A1000E60FF72FF11D40831B96EC911B97E60F05
:101A2000F72FF11D20831C968C91680F711DFB010F
:101A300000831F910F910895660F771F660F771F20
:101A40006E0F7F1FFB01E80FF11D1082DECF1F9389
:101A5000CF93DF93EC01162F8981882331F08E819B
:101A600087FD03C060E00E943F071E8389818823B1
:101A700041F061E0812F0E943F0760E0812F0E94CA
:101A80001107812F90E0FC01E554F54FE491F0E05F
:101A9000EE0FFF1FEA55F54F259134913B8B2A8BB2
:101AA000FC01E153F54FE491EC8BDF91CF911F9155
:101AB0000895CF92DF92EF92FF920F931F93CF93EF
:101AC000DF93CDB7DEB729970FB6F894DEBF0FBE10
:101AD000CDBF8C01DC0118968D919C91892B09F466
:101AE00062C00E94D50BF801C684D784E088F188D3
:101AF0006C197D098E099F09623371058105910575
:101B000080F3F894848195819A8389830084F18598
:101B1000E02D7F01BFEFEB1AFB0A80818987F80176
:101B200090810288F389E02DD80154968C919923F5
:101B300009F448C09081982B9887908180958923DB
:101B40008F838F818C8388E08B8358856F81498553
:101B50003B812C8189819A81D701508347FD252FB4
:101B60003A952083262F39F0441F00C0000060837F
:101B7000000000C0F2CF38E04D9160830000019773
:101B800061F7D8015396FC93EE93529749873B83B4
:101B90002C839A83898378940E94D50BF8016687F9
:101BA0007787808B918B29960FB6F894DEBF0FBE96
:101BB000CDBFDF91CF911F910F91FF90EF90DF90FC
:101BC000CF9008959081982B988790818095892354
:101BD0008F838F818E8388E08D8358856F814985BF
:101BE0003D812E8189819A81D701508347FD252F20
:101BF00000C000C0208300C000C000C000C000C002
:101C000060830000262F3A9541F0441F000000C079
:101C100000C000C000C000C0E8CF38E04D9100C057
:101C2000608300C0019709F7D8015396FC93EE93A7
:101C3000529749873D832E83ACCFCF93DF93EC013E
:101C40008E8187FD07C061E00E943F0760E08E81C2
:101C50000E94110781E08983DF91CF910895089553
:101C6000FC016370658B84819581268137816130A9
:101C700039F0633029F09187808733872287089570
:101C8000318720879387828708952F923F924F92C2
:101C90005F926F927F928F929F92AF92BF92CF92FC
:101CA000DF92EF92FF920F931F93CF93DF93CDB705
:101CB000DEB769970FB6F894DEBF0FBECDBF998F20
:101CC000888F5B011A01D22E1F830E833701C982D0
:101CD000DC0158962D913C9159972115310509F059
:101CE00004C118968D919C911997681779070CF08B
:101CF000C0C11A968D919C911B97481759070CF0FB
:101D0000B8C18C2C912CFB0126E0C29EE00DF11D88
:101D10001124F987E8871E161F060CF0AAC1A4013A
:101D200093E0440F551F9A95E1F75D874C87CA01F0
:101D3000820D931D181619060CF09BC157968C91B5
:101D4000811104C05FEA5D1508F4D394A88DB98DA4
:101D5000ED91FC9111970284F385E02DCD01099559
:101D6000F5013596F98BE88BBB82AA82250188E8BC
:101D700095E08A199B099C0145E0D49E200D311DF8
:101D800011243B8B2A8BEA89FB89E40DF51D2491F4
:101D90003D822C82D12CC12C622F70E07F876E8710
:101DA000E88DF98DA081B18120FF7CC0F981F130EF
:101DB00009F069C01C96ED91FC912E813F81A10133
:101DC0004C0D5D1DB201888D998D0995EE85FF85BD
:101DD000F595E7952E2F4FEFC41AD40A6C817D81BB
:101DE000680D791D7D836C8378E0C716D104A1F658
:101DF0008FEF481A580AAA81BB81A80DB91DBB8371
:101E0000AA83E889F989E415F50509F0BCCF2E818C
:101E10003F8126153705A9F0A88DB98DED91FC916C
:101E2000B981B13009F051C0B5016B5F7F4F0088B7
:101E3000F189E02D830128E030E0A101888D998DA2
:101E40000995A88DB98DED91FC9111970688F789B8
:101E5000E02DCD0169960FB6F894DEBF0FBECDBF61
:101E6000DF91CF911F910F91FF90EF90DF90CF9076
:101E7000BF90AF909F908F907F906F905F904F90AA
:101E80003F902F9009941E96ED91FC91EE80FF807B
:101E9000840194014C815D816A817B81888D998D5B
:101EA000099594CF2E813F812615370509F48ECFF1
:101EB0003981313029F41C96ED91FC9193017FCF4B
:101EC0001E96ED91FC917301E3CF688579856819C1
:101ED00079090684F785E02D73010C851D85940131
:101EE000A101888D998D0995ACCFF9013496949113
:101EF000329745915491D91AB7E0DB9E400D511DA0
:101F00001124F90125913491398B288BFA014590E0
:101F10005490FA01329664903196C490329614919E
:101F2000319604913981323008F48AC0E12E012EB5
:101F3000000CFF08402F002E000C550B59874887D6
:101F4000A88DB98DED91FC9111970284F385E02D58
:101F5000CD010995B9818B2E912CE89CC001E99C9B
:101F6000900DF89C900D1124FC01EA0DFB1DFF87DC
:101F7000EE871C82D12C712C9B868A869101200FC2
:101F8000311D07FD3A953D8B2C8BA501410F511D4D
:101F900017FD5A955F8B4E8B7C1408F052CF872D1E
:101FA00090E048855985480F591F6A857B85469F73
:101FB0009001479F300D569F300D1124D901A20D7D
:101FC000B31DBD87AC87EE85FF85FB83EA83B12C0B
:101FD000A12C2C893D89280F391F3B8B2A8B8C81A2
:101FE0008A0DA61408F040C0877041F4C201019622
:101FF000E889F989E40DF51DD4902C01D7FE15C0B0
:10200000A88DB98DED91FC91B981B130F1F40484C2
:10201000F585E02D2E813F814A895B896E897F8914
:102020006A0D7B1D888D998D0995DD0CEFEFAE1A39
:10203000BE0A2A813B81280D391D3B832A83CFCFDD
:1020400019861886F12CE12C7BCF0684F785E02DCC
:10205000EE80FF80840194014C855D856A817B81DF
:10206000888D998D0995E1CF3C81360D3C83739421
:1020700093CF69960FB6F894DEBF0FBECDBFDF9148
:10208000CF911F910F91FF90EF90DF90CF90BF9075
:10209000AF909F908F907F906F905F904F903F9008
:1020A0002F900895AF92BF92CF92EF92FF920F932D
:1020B0001F93CF93DF93EC01262F888D998D009786
:1020C00009F04FC06A30C9F41D861C868C8998E0DF
:1020D000899F900111248E859F85820F931F9F8772
:1020E0008E8781E090E0DF91CF911F910F91FF905B
:1020F000EF90CF90BF90AF9008956D3091F3CC8862
:102100008E898823C1F08C859D85E6E0CE9E800D6A
:10211000911D1124488559854817590764F44E8547
:102120005F851D861C86F8E0CF9EC0011124840FB8
:10213000951F9F878E87EA88FB88088919894E85B5
:102140005F856C857D85CE010E94450E2C898C852E
:102150009D8536E0239F800D911D11249D878C87DE
:10216000C0CF6A3069F41D861C86FC013696E49166
:102170002C898E859F85E29F800D911D1124AFCF04
:102180006D3009F4AECFFC0134963491631708F436
:10219000A8CF3196E491E61708F4A3CFFC0132965C
:1021A00045915491E62FE31BFF0B37E03E9F500112
:1021B0003F9FB00C1124A40EB51EF5013296349148
:1021C0003196E4913323A1F1EE2391F1CC88F5010E
:1021D0003596E4914E89442301F10E2E000CFF0B3D
:1021E000E30FF11DCE9EA001CF9E500D11246C85F2
:1021F0007D85460F571F68857985641775076CF4D0
:102200004E855F851D861C860696FC018491C89EBE
:10221000400D511D11245F874E87EA88FB8808898D
:1022200019894E855F856C857D85CE010E94450E9E
:10223000F5013496E4912C898C859D85E29F800D73
:10224000911D11248BCF6F927F928F929F92AF92AC
:10225000BF92CF92DF92EF92FF920F931F93CF9393
:10226000DF93EC016B015A0139014801E881F981E2
:102270000284F385E02D0995E881F9810288F389CC
:10228000E02D87019301A501B601CE010995A501B5
:10229000480D591D41505109E881F9810288F3899F
:1022A000E02D9301B601CE010995E881F9810088FE
:1022B000F189E02D9401A501B601CE010995C60C66
:1022C000D71CB60161507109E881F9810088F18954
:1022D000E02D9401A501CE010995E881F9810688D8
:1022E000F789E02DCE01DF91CF911F910F91FF90E3
:1022F000EF90DF90CF90BF90AF909F908F907F90A6
:102300006F9009946F927F928F929F92AF92BF923B
:10231000CF92DF92EF92FF920F931F93CF93DF93B1
:102320005C01EB016A01490138018701DC01ED9193
:10233000FC916217730719F5641675062CF0962D3B
:10234000872D3A01C92ED82E9601261937092F5FFD
:102350003F4F048CF58DE02DA301BE01C501099509
:10236000DF91CF911F910F91FF90EF90DF90CF9071
:10237000BF90AF909F908F907F906F90089546157B
:10238000570591F42617370724F0892D4B01C22FEA
:10239000D82F9E01281939092F5F3F4F068CF78DE2
:1023A000E02DA601B401DACF0284F385E02D099572
:1023B000D501ED91FC910488F589E02D830194010C
:1023C000A601BE01C5010995D501ED91FC910688D4
:1023D000F789E02DC501DF91CF911F910F91FF90FB
:1023E000EF90DF90CF90BF90AF909F908F907F90B5
:1023F0006F900994EF92FF920F931F93DC011A964E
:102400000D911C911B9718962D913C911997ED9168
:10241000FC9100A0F1A1E02D7B0150E040E070E0D4
:1024200060E009951F910F91FF90EF9008954F92F2
:102430005F926F927F928F929F92AF92BF92CF9254
:10244000DF92EF92FF920F931F93CF93DF936C0174
:102450002B015A0139014801DC01ED91FC91028404
:10246000F385E02D0995E201640C751CD601ED9110
:10247000FC91C615D7055CF40088F189E02D870131
:102480009401A501BE01C60109952196EFCF0688EA
:10249000F789E02DC601DF91CF911F910F91FF9039
:1024A000EF90DF90CF90BF90AF909F908F907F90F4
:1024B0006F905F904F9009948F929F92AF92BF92CE
:1024C000CF92DF92EF92FF920F931F93CF93DF9300
:1024D000EC015B014A016901E881F9810284F3851D
:1024E000E02D099595012C0D3D1D21503109E88104
:1024F000F9810488F589E02D78018401A401B501F2
:10250000CE010995E881F9810688F789E02DCE0191
:10251000DF91CF911F910F91FF90EF90DF90CF90BF
:10252000BF90AF909F908F9009948F929F92AF929F
:10253000BF92CF92DF92EF92FF920F931F93CF93B0
:10254000DF93EC015B014A0169017801E881F981BF
:102550000284F385E02D0995C80CD91C8601015031
:102560001109E881F9810488F589E02D9501A4011C
:10257000B501CE010995E881F9810688F789E02D3A
:10258000CE01DF91CF911F910F91FF90EF90DF90DF
:10259000CF90BF90AF909F908F900994EF92FF9251
:1025A0000F931F93DC01ED91FC9100A0F1A1E02DB0
:1025B00009951F910F91FF90EF9008950F931F932E
:1025C000DC01ED91FC91068CF78DE02D09951F91B2
:1025D0000F9108950F931F93DC01ED91FC91048CF2
:1025E000F58DE02D09951F910F910895DC01ED9176
:1025F000FC910084F185E02D09942F923F924F9237
:102600005F926F927F928F929F92AF92BF92CF9282
:10261000DF92EF92FF920F931F93CF93DF9300D03F
:1026200000D000D0CDB7DEB73C016A013E832D83D8
:10263000FC82EB825801A41AB50AB7FE03C0B1941C
:10264000A194B1088D809E80861A970A97FE03C0D8
:102650009194819491088A149B045CF0902F812FAF
:102660000D811E819D838E839C2D8D2D6B01692F85
:10267000782F0C151D055CF09D818E817E836D8306
:10268000692F782F902F812F8601C92ED82E160101
:10269000201A310A2B012D813E81421A530A57FE1E
:1026A00003C0519441945108710137FE03C03FEFBC
:1026B000E31AF30AF594E7948D819E8186179707B4
:1026C0005CF5A1E0B0E0BA83A983C016D1064CF155
:1026D000D301ED91FC910484F585E02D2B813C81A3
:1026E000A8016D817E818A149B041CF04D815E815E
:1026F000B801C3010995E418F508F7FE0AC02D8159
:102700003E8189819A81280F391F3E832D83E20CF7
:10271000F31C0F5F1F4FD9CF2FEF3FEF3A83298371
:10272000D4CF26960FB6F894DEBF0FBECDBFDF9193
:10273000CF911F910F91FF90EF90DF90CF90BF90BE
:10274000AF909F908F907F906F905F904F903F9051
:102750002F90089548305105E8F460317105D0F4A8
:10276000440F551FDC01A40FB51F5A968D919C9103
:102770005B97E1E0F0E0AF0102C0440F551F6A959E
:10278000E2F7BA01232B39F0682B792B5B967C9307
:102790006E935A9708956095709568237923F6CFC4
:1027A0000895DC019C96EC919C979D962C91E217E4
:1027B00030F4E80FF92FF11D848590E008958FEF34
:1027C0009FEF0895FC0194A585A52FEF3FEF981783
:1027D00040F4DF01A90FB11D1C962C9130E09F5FE2
:1027E00094A7C9010895FC0185A594A5891B990B9F
:1027F0000895CF92DF92EF92FF920F931F93CF93A2
:10280000DF936C01EB017B01E40EF51E10E000E0AC
:10281000CE15DF0561F06991D601ED91FC91019033
:10282000F081E02DC6010995080F191FF1CFC801ED
:10283000DF91CF911F910F91FF90EF90DF90CF909C
:10284000089587E00E94E80621E030E0892B11F02E
:1028500030E020E0C90108952091F903260F3327C5
:10286000331F21323105ECF420911D04FC0190E06E
:1028700080E0243069F082E00895A091F90321916D
:10288000AC0147525C4FA40FB52FB11D2C9301969C
:10289000861798F38091F903680F6093F90380E03D
:1028A000089581E0089510921D0481E080931F0433
:1028B00010921E0461E082E10E94110761E083E151
:1028C0000E941107E9EBF0E080818E7F8083808198
:1028D0008D7F808388E48093B80085E48093BC007A
:1028E0000895E091530480915204E81730F4F0E029
:1028F000ED54FC4F808190E008958FEF9FEF089595
:1029000090915304809152042FEF3FEF981748F4B1
:10291000E92FF0E0ED54FC4F208130E09F5F909371
:102920005304C90108958091520490915304891B66
:10293000990B0895CF93DF93CB01EA01642F0E9496
:102940002C14CE01DF91CF910895CF93DF931F9286
:10295000CDB7DEB7698361E0CE0101960E942C14E9
:1029600081E090E00F90DF91CF91089590E080E0BA
:1029700008950F931F93CF93DF9308EC14E0D0E0FA
:10298000C0E0F80161918F01CE010E9412322196C0
:10299000C033D105B1F7DF91CF911F910F91089509
:1029A000FB0101900020E9F73197AF01461B570B5F
:1029B000DC01ED91FC910280F381E02D09948F926E
:1029C0009F92AF92BF920F931F93CF93DF93CDB798
:1029D000DEB7A1970FB6F894DEBF0FBECDBF19A228
:1029E000423008F44AE08E010F5D1F4F842E912C77
:1029F000B12CA12CA50194010E943032E62FB9011F
:102A0000CA01EA3004F5E05DD801EE938D01232B75
:102A1000242B252B79F790E080E0109729F0BD0159
:102A200088EF94E00E94D014A1960FB6F894DEBF10
:102A30000FBECDBFDF91CF911F910F91BF90AF908F
:102A40009F908F900895E95CDFCFCF92DF92EF9255
:102A5000FF92CF93DF936C01990FEE08FF08F7FE0A
:102A600019C06DE288EF94E00E945206EC016627DF
:102A70007727CB016C197D098E099F094AE00E94D6
:102A8000DF148C0F9D1FDF91CF91FF90EF90DF90AF
:102A9000CF9008954AE0C701B601DF91CF91FF9032
:102AA000EF90DF90CF900C94DF14CF93DF930E94D0
:102AB0002515EC0165EF71E088EF94E00E94D014D9
:102AC0008C0F9D1FDF91CF9108954F925F926F926F
:102AD0007F928F929F92AF92BF92CF92DF92EF92AE
:102AE000FF920F931F93CF936B017C01742EAC0167
:102AF0009B010E94803460EC71E0811126C0460188
:102B00005701E894B7F82FEF3FEF4FE75FE7C501B4
:102B1000B4010E94803481110CC02FEF3FEF4FE7CA
:102B20005FE7C501B4010E94E63064EC71E018165D
:102B300064F02FEF3FEF4FE75FE4C701B6010E945B
:102B400023341816ACF468EC71E088EF94E0CF9170
:102B50001F910F91FF90EF90DF90CF90BF90AF90BB
:102B60009F908F907F906F905F904F900C94D014B7
:102B70002FEF3FEF4FE75FECC701B6010E94E63051
:102B800087FDE1CF20E030E0A901C701B6010E9436
:102B9000E63010E000E087FF0AC06DE288EF94E0C5
:102BA0000E9452068C01F7FAF094F7F8F094C0E016
:102BB00060E070E080E09FE37C1641F020E030E0D0
:102BC00040E251E40E943C33CF5FF6CFA70196016B
:102BD0000E94CB322B013C010E94B5334B015C01BA
:102BE0004AE00E94DF147C01E00EF11ECC23C1F10B
:102BF000C501B4010E94EB309B01AC01C301B201DD
:102C00000E94CA324B015C016EE288EF94E00E94A0
:102C10005206E80EF91EC15018F120E030E040E203
:102C200051E4C501B4010E944C312B013C010E94CA
:102C3000B5334B01B12CA12C4AE0C501B4010E946F
:102C4000DF14E80EF91EC501B4010E94EB309B01B0
:102C5000AC01C301B2010E94CA324B015C01DBCF5F
:102C6000C701CF911F910F91FF90EF90DF90CF9010
:102C7000BF90AF909F908F907F906F905F904F909C
:102C80000895CF93DF9342E00E946515EC0165EF54
:102C900071E088EF94E00E94D0148C0F9D1FDF91AB
:102CA000CF910895CF93DF93BC0188EF94E00E9409
:102CB000D014EC0165EF71E088EF94E00E94D0142D
:102CC0008C0F9D1FDF91CF9108956115710511F053
:102CD0000C94D01490E080E008952F923F924F9290
:102CE0005F926F927F928F929F92AF92BF92CF929C
:102CF000DF92EF92FF920F931F93CF93DF938CECB1
:102D000095E09093B2048093B1040091C90510E05E
:102D10001093B4040093B3048091960690E09093CE
:102D2000B6048093B5048091C505853009F06AC06A
:102D30008091CE059091CF05885891098D359105E8
:102D400008F01AC18091C905843009F0E7C080916C
:102D5000D0059091D1058097479708F0DFC080910A
:102D6000D2059091D3050997099708F0D7C0109222
:102D7000B0041092AF048FEF9FEFDC018093AB049F
:102D80009093AC04A093AD04B093AE0483E090E0C4
:102D90009093A8048093A7046091AB047091AC0455
:102DA0008091AD049091AE046F3F2FEF72078207C0
:102DB000920719F160930501709306018093070152
:102DC000909308010E949E05811117C06CEC71E080
:102DD00088EF94E00E9465166091050170910601EC
:102DE000809107019091080140E10E94DF1465EF96
:102DF00071E088EF94E00E94D01482E08093C505D2
:102E00001092C9050E942114892BC1F10E943E0C29
:102E100000911C0710911D0720911E0730911F077C
:102E2000601B710B820B930B653671058105910553
:102E300028F16AE07EEE80EE90E00E949E0581110E
:102E400013C068ED71E088EF94E00E94651640E1E0
:102E50006AE07EEE80EE90E00E94DF1465EF71E0A4
:102E600088EF94E00E94D0140E943E0C60931C07EF
:102E700070931D0780931E0790931F0788E00E94A0
:102E8000E806892BC1F50E943E0C00911C071091A9
:102E90001D0720911E0730911F07601B710B820BCD
:102EA000930B653671058105910528F16BE07EEE87
:102EB00080EE90E00E949E05811113C068ED71E0E4
:102EC00088EF94E00E94651640E16BE07EEE80EEB4
:102ED00090E00E94DF1465EF71E088EF94E00E94BB
:102EE000D0140E943E0C60931C0770931D078093C2
:102EF0001E0790931F07DF91CF911F910F91FF90B5
:102F0000EF90DF90CF90BF90AF909F908F907F9089
:102F10006F905F904F903F902F9008958091C905DA
:102F2000843450F18091D0059091D105825491095B
:102F30008E9710F530E020E080E090E0DC01F901B0
:102F4000EE52FA4F408151814950510949305105A3
:102F500098F4F901EC52FA4F4081518147515109DF
:102F60004231510508F467C04081518146505109F2
:102F70004730510508F471C0063011050CF43DCFFF
:102F8000C5ECD5E083E0282E312C95ECC92E9DE9C7
:102F9000D92E9CE1E92E91E8F92E201631060CF08D
:102FA00061C06D857E85A984BA8490E080E00E942E
:102FB000EB302B013C01B50190E080E00E94EB304A
:102FC0004B015C012DEC3CEC4CE45FE30E944C3186
:102FD0009B01AC01C301B2010E94E630F0E0E0E0E9
:102FE00087FD14C02DEC3CEC4CE45FE3C301B2015F
:102FF0000E944C319B01AC01C501B4010E94E63036
:10300000E1E0F0E087FF02C0E2E0F0E0A701960116
:1030100063E971E080E091E00E9420326F01FF0FD0
:10302000EE08FF08C626D726E826F9262FEF221A33
:10303000320A2296B2CF880F991FAA1FBB1F816048
:103040002C5F3F4F2038310509F079CF20E230E086
:103050003093B0042093AF0491CE880F991FAA1F1C
:10306000BB1FEECFC092AB04D092AC04E092AD0493
:10307000F092AE0480E290E09093B0048093AF04AD
:103080008FEF9FEF85CE62EE71E088EF94E00E94B3
:10309000651666EE71E088EF94E00C946516CF92A9
:1030A000DF92EF92FF920F931F93CF93DF9361E034
:1030B0008CE00E943F0761E08CE00E94110783E2F0
:1030C00090E00197F1F760E08CE00E94110760E06A
:1030D0008CE00E943F07D0E0C0E08CE00E94E80650
:1030E000019761F42296C636D105B9F7C12C80E864
:1030F000D82E89E7E82E84E4F82E4EC0EBEDFAE0F6
:103100006491E7ECFAE0E491F0E0EE0FFF1FEF547A
:10311000F54F8591949100EE13E924E030E0462FBD
:103120000E941722611571058105910529F06F5FD5
:103130007F4F8F4F9F4F9F7090E080E00E94EB3059
:103140002DEC3CEC48E652E40E943C336B017C01E0
:103150002A9790F420E030E040EC50E40E942334C1
:10316000181654F42AE037ED43EA5FE3C701B601CD
:103170000E944C316B017C0120E030E0A901C701C5
:10318000B6010E94E630811107C0C12C90ECD92E07
:1031900099E7E92E94E4F92EC701B601DF91CF91AA
:1031A0001F910F91FF90EF90DF90CF9008953F9285
:1031B0004F925F926F927F928F929F92AF92BF9247
:1031C000CF92DF92EF92FF920F931F93CF93DF93F3
:1031D0007C01FC0101900020E9F731972F01481A8A
:1031E000590AD0E0C0E084EFC82EDD24D39494E0E7
:1031F000692E712C2DE7322EC415D5050CF05AC05E
:10320000F701EC0FFD1FE0818FE98E0F873040F44E
:10321000EE0FFF0BE257FF4F008111812196ECCF9B
:10322000E23709F444C08EEC8E0F853038F46E2EF0
:10323000EE0F770880E3681A7108F0CFEA3379F46B
:103240002196F701EC0FFD1F8081082E000C990BD1
:10325000C097389E6001399ED00C1124DFCFE03238
:10326000E9F6B30164507109072E000C880B990B25
:103270000E94ED309B01AC0160E070E080E090E4E2
:103280000E9428344B015C01B801110F880B990B87
:103290000E94ED30A50194010E944C310E94AE3392
:1032A000CB018B01A601B6010E942D0CB7CF10E017
:1032B00000E0B4CFDF91CF911F910F91FF90EF907D
:1032C000DF90CF90BF90AF909F908F907F906F9046
:1032D0005F904F903F900895CF93DF93EC018881EA
:1032E0009981009711F00E948B36198218821D82F5
:1032F0001C821B821A82DF91CF910895FC0180818C
:103300009181009711F00C948B3608950E94D1376B
:103310000F931F93CF93DF93EC01888199810097DE
:1033200059F02A813B812617370730F081E0DF9181
:10333000CF911F910F9108958B016F5F7F4F0E9476
:103340001437009759F0998388831B830A832C8153
:103350003D81232B59F7FC011082E8CF80E0E7CFB5
:10336000CF92DF92EF92FF920F931F93CF93DF9351
:10337000CDB7DEB762970FB6F894DEBF0FBECDBFF4
:103380008C01CB01F8011182108213821282158206
:1033900014824AE09E012F5F3F4F6901B9010E94EC
:1033A0003E2FF60101900020E9F731977F01EC18DC
:1033B000FD08B701C8010E948819811112C0C80117
:1033C0000E946C1962960FB6F894DEBF0FBECDBF97
:1033D000DF91CF911F910F91FF90EF90DF90CF90F1
:1033E0000895F801F582E482B601808191810E94FE
:1033F000E637E8CFEF92FF920F931F93CF93DF93BF
:103400006115710541F480E0DF91CF911F910F911B
:10341000FF90EF90089541155105B1F07B01EC014B
:103420000C811D81040F151FB8010E948819882383
:1034300051F3288139818C819D81B701820F931FBF
:103440000E94E6371D830C8381E0DECFCF93DF93AC
:10345000EC01FB0101900020E9F73197AF01461B19
:10346000570B0E94FA19811103C0CE010E946C19FA
:10347000CE01DF91CF910895CF93DF93EC01FB0153
:1034800044815581608171810E94FA19811103C0C4
:10349000CE010E946C19CE01DF91CF9108952F9239
:1034A0003F924F925F926F927F928F929F92AF92D4
:1034B000BF92CF92DF92EF92FF920F931F93CF9321
:1034C000DF93CDB7DEB7E4970FB6F894DEBF0FBE3B
:1034D000CDBF8AE0E4E1F1E0DE01119601900D92AA
:1034E0008A95E1F7FE013B968AE0DF011D928A95FD
:1034F000E9F7F12CE12CE114F10409F02DC16CE3A2
:1035000070E084EC9FEF0E94770A9CE2292E97E0FE
:10351000392ECE0101969CAB8BAB6E019BE0C90EA0
:10352000D11C4601DE0111965D01F1018081F2E0BE
:103530002F0E311C0E94C60A8C01D5016D917D9120
:103540005D01861797070CF017C1072E000C880B3A
:10355000990B0E94ED3023E333E343E35FE30E94E2
:103560004C312B013C01B801110F880B990B0E94C3
:10357000ED302AE939E949E95EE30E944C319B01CB
:10358000AC01C301B2010E94CB320E94AE33F501FF
:10359000329771836083B2E08B0E911CAC14BD0432
:1035A00021F6EFEFEE1AFE0A65E070E080E090E0B1
:1035B0000E94FA0BF0E2EF16F3E0FF0609F09BCF52
:1035C00070E060E090E080E00E94770A8EECE82EE8
:1035D00084E0F82E10E000E0D6018D909D906D0102
:1035E000EBA9FCA9A190B190FCABEBABB4016A19BB
:1035F0007B09072E000C880B990B0E94ED302AE9FD
:1036000039E949E95EE30E944C312B013C01B501E7
:103610000B2C000C880B990B0E94ED309B01AC0128
:10362000C301B2010E94CB320E94AE332B01CE0106
:103630008D960E94B019B401CE0187960E94B019F0
:10364000B501CE0181960E94B019B801CE014B960A
:103650000E94B0191E8A1D8A188E1F8A1A8E198E12
:1036600062E070E0CE0145960E9488198111B1C0D8
:10367000CE0145960E946C19BE01655E7F4FCE015A
:1036800045960E943C1A69EF71E00E94261ABE011D
:103690006F5D7F4F0E943C1A62E472E00E94261A1E
:1036A000BE01695D7F4F0E943C1A6BEF71E00E9482
:1036B000261ABE01635D7F4F0E943C1ADC011496FE
:1036C0004D915C9115976D917C9188EF94E00E94EB
:1036D000B20565EF71E088EF94E00E94D014CE014E
:1036E00045960E947E19CE014B960E947E19CE010E
:1036F00081960E947E19CE0187960E947E19CE0186
:103700008D960E947E19F701419251927F01918618
:103710008086B38AA28A0F5F1F4F0530110509F01A
:103720005BCF0E94B914E4960FB6F894DEBF0FBECB
:10373000CDBFDF91CF911F910F91FF90EF90DF9060
:10374000CF90BF90AF909F908F907F906F905F9041
:103750004F903F902F900895B8ECEB16F10429F4A8
:1037600064EC7FEF8CE390E0CECEE8E5EE16E2E08D
:10377000FE0609F0CACEC3CEF401608171816817DC
:1037800079070CF008CF072E000C880B990B0E94CC
:10379000ED3023E333E343E35FE30E944C312B013D
:1037A0003C01B801110F880B990B0E94ED302AE9FA
:1037B00039E949E95EE30E944C319B01AC01C30148
:1037C000B2010E94CB320E94AE33D4016D937C9340
:1037D000E2CE82E090E09A8F898F68EF71E08D8968
:1037E0009E890E94E63748CFCF93DF9385ED809383
:1037F000BC008091D5039091D603A091D703B091DE
:10380000D8030796A11DB11D23E0B695A7959795FE
:1038100087952A95D1F72091BC0024FD03C0109212
:103820001D0436C04091D5035091D6036091D70353
:103830007091D803452B462B472B69F30097A105C0
:10384000B10541F025E32A95F1F700000197A109A0
:10385000B109E1CF8091D40391E09093D303882301
:10386000B9F0C091B800D091BA008091BC008A7BB9
:103870008093BC0060E082E10E94110760E083E178
:103880000E9411070E945314D093BA00C093B8004D
:10389000DF91CF9108950F931F93CF93DF93880FFC
:1038A000991FFC01E85DFE4F00811181C8010E9453
:1038B0000E2FEC01AC01B80186E492E00E94052FC6
:1038C000CA5BDD4F188286E492E0DF91CF911F91B1
:1038D0000F910C94D7184F925F926F927F928F92B4
:1038E0009F92AF92BF92CF92DF92EF92FF92CF93CF
:1038F000DF9300D000D000D0CDB7DEB784E492E0F3
:103900000E94190B882311F08F3159F580911A0705
:1039100090911B07019690931B0780931A0764EC04
:103920007FEF84EC9FEF0E94770ACE0101960E9400
:10393000190B8E70D1F380911A0790911B070B978A
:103940000CF423C170E060E090E080E00E94770A10
:1039500083E190E00E944B1C1092A6041092A504F3
:1039600014C1813069F46CE370E084EC9FEF0E9435
:10397000770ACE0101960E94190B8E70D1F3DBCF2E
:10398000803169F464EC7FEF8CE390E00E94770A69
:10399000CE0101960E94190B8E70D1F3CCCF20E09E
:1039A00030E040E05FE360910E0770910F07809177
:1039B0001007909111070E944C316B017C016091BE
:1039C000440270914502072E000C880B990B0E944F
:1039D000ED3020E030E040E05FE30E944C319B019D
:1039E000AC01C701B6010E94CB324B015C01809251
:1039F0000E0790920F07A0921007B0921107209126
:103A000012073091130740911407509115070E9437
:103A1000CA326B837C838D839E83209116073091FD
:103A200017074091180750911907C501B4010E946A
:103A3000CB326B017C0120E030E048E452EC0E9484
:103A4000E63087FD7CC020E030E048E452E4C70166
:103A5000B6010E94233418160CF478C0C0921607E1
:103A6000D0921707E0921807F092190720912007CB
:103A7000309121074091220750912307C501B401DD
:103A80000E944C312B013C012091240730912507E5
:103A90004091260750912707C701B6010E944C317B
:103AA0009B01AC01C301B2010E94CB326B017C01CE
:103AB000209128073091290740912A0750912B0720
:103AC0006B817C818D819E810E944C319B01AC0178
:103AD000C701B6010E94CB326B017C0180921207B4
:103AE00090921307A0921407B092150720E030E0DF
:103AF00046E153EC0E94E63087FD5CC020E030E0F8
:103B000046E153E4C701B6010E94233418162CF194
:103B100020E030E0A901C701B6010E942334181645
:103B200014F120E030E046E153E4C701B6010E9401
:103B3000CB320E94AE33CB0166E970E020C0C12CCD
:103B4000D12C38E4E32E32ECF32E88CFC12CD12CCB
:103B500028E4E22E22E4F22E81CFC12CD12C96E172
:103B6000E92E93E4F92EA701960160E070E086E16A
:103B700093E40E94CA320E94AE3386E990E00E942C
:103B8000770A10921B0710921A0726960FB6F89420
:103B9000DEBF0FBECDBFDF91CF91FF90EF90DF90E2
:103BA000CF90BF90AF909F908F907F906F905F90DD
:103BB0004F900895C12CD12C86E1E82E83ECF82E8D
:103BC000B0CF1F920F920FB60F9211242F933F93F5
:103BD0004F935F936F937F938F939F93AF93BF9315
:103BE000EF93FF938091BC049091BD04A091BE041B
:103BF000B091BF04892B8A2B8B2BD1F19091B70404
:103C0000E091B804F091B904808189278083809184
:103C1000BC049091BD04A091BE04B091BF041816DD
:103C200019061A061B069CF48091BC049091BD04F1
:103C3000A091BE04B091BF040197A109B10980937E
:103C4000BC049093BD04A093BE04B093BF04FF9145
:103C5000EF91BF91AF919F918F917F916F915F9104
:103C60004F913F912F910F900FBE0F901F9018957D
:103C700080910901E0EBFAE0E4919FEF9093090154
:103C8000E13051F030F0E23069F060E00E9411075D
:103C9000DECF10926E00F9CF90916F009D7F9093D0
:103CA0006F00F3CF909170009D7F9093700091E032
:103CB0009093B0009091B100987F94609093B10080
:103CC0001092B300E2CF1F920F920FB60F92112401
:103CD0002F933F934F935F936F937F938F939F9314
:103CE000AF93BF93EF93FF9388EF94E00E94300669
:103CF000FF91EF91BF91AF919F918F917F916F91C4
:103D00005F914F913F912F910F900FBE0F901F9099
:103D100018951F920F920FB60F9211242F938F9325
:103D20009F93EF93FF93E0910805F091090580813F
:103D3000E0910E05F0910F0582FD1BC090818091EE
:103D400011058F5F8F7320911205821741F0E0916A
:103D50001105F0E0E850FB4F958F80931105FF911E
:103D6000EF919F918F912F910F900FBE0F901F9009
:103D700018958081F4CF1F920F920FB60F921124E5
:103D80002F933F938F939F93AF93BF93809144045E
:103D900090914504A0914604B091470430914304AA
:103DA00023E0230F2D3758F50196A11DB11D209357
:103DB00043048093440490934504A0934604B09335
:103DC00047048091480490914904A0914A04B0911D
:103DD0004B040196A11DB11D8093480490934904A2
:103DE000A0934A04B0934B04BF91AF919F918F91E0
:103DF0003F912F910F900FBE0F901F90189526E8BE
:103E0000230F0296A11DB11DD2CF1F920F920FB6A4
:103E10000F9211242F933F934F935F936F937F9350
:103E20008F939F93AF93BF93EF93FF938091C605BA
:103E30000E94E8062091CA053091CB052F5F3F4FC5
:103E40003093CB052093CA059091C905953618F09B
:103E500096E09093C5059091C505943009F466C02D
:103E6000B8F49230F1F0933009F444C09091C80551
:103E7000992309F46BC081117AC08091C70588230A
:103E800009F463C08091C70561E00E9411075EC01C
:103E9000953009F457C0963049F791E09093960613
:103EA0004FC08111E3CF2091CA053091CB05243654
:103EB000310528F41092CB051092CA05D7CF109285
:103EC00096061092C905E091C90591E09E0F909366
:103ED000C905F0E02091CA053091CB05EE0FFF1F18
:103EE000EB53FA4F308727831092CB051092CA0507
:103EF00093E019C0813009F0B9CFE091C90591E094
:103F00009E0F9093C905F0E02091CA053091CB0532
:103F1000EE0FFF1FEB53FA4F308727831092CB052C
:103F20001092CA0594E09093C505A0CF882359F25A
:103F30002091CA053091CB052536310508F496CF7E
:103F400095E0F1CF811192CFB5CF2D9AFF91EF91EE
:103F5000BF91AF919F918F917F916F915F914F91A1
:103F60003F912F910F900FBE0F901F901895809149
:103F7000C705882321F08091C70560E086CF2D9882
:103F8000E5CF71E0249A22980000000000002BD1B8
:103F9000249829D1A8940000000000001C9B1ED189
:103FA000B2F088941A990894771F60F7249A8030A9
:103FB00011F0229801C0229A00000000000013D1E5
:103FC0002498A894000000001C9B08D10CD100008C
:103FD0000000249A872F9927089580E20895089475
:103FE000881F01C0880FB9F0249A0000000000006B
:103FF00018F40000229802C0229A00C0F4D024983D
:10400000A8940000000000001C9BE8D012F4882750
:1040100012C0E9D0E7CF249A000000002298E3D034
:10402000992788272498A89400001C9BD7D07AF35E
:104030001A9B81E0D8D000000000249A089581E006
:104040000895CF93DF93EC01862F0E94EF1F81111B
:1040500008C08FA5811102C083E08FA790E080E0A7
:1040600002C081E090E0DF91CF910895249A229AD6
:10407000BAD02498B8D01C9BB1D02298B4D008955F
:104080008F938F918F931C9BA9D0229AACD0A7DFDE
:10409000882311F4EBDFF5CF0F9008950895249A4B
:1040A000A2D02298A0D024989ED01C9B97D0229A70
:1040B0009AD095DF089581E008951C9B8FD0229AB5
:1040C00092D08DDF089581E00895CF93C091C3050C
:1040D000880FCC2371F00E944F20882341F080E0AC
:1040E0008093C40581E08093C305CF91089582E059
:1040F000F7CF0E945D20811101C0C2E0C093C405CA
:10410000F1CFCF93DF938091C2060E94652060E0DB
:1041100085E995E00E942120C8E9D6E06A8D85E90D
:1041200095E00E9421206B8D85E995E00E94212079
:10413000229686E0C83AD80789F70E943620109266
:10414000C3051092C405DF91CF9108952298249859
:104150002A982C98882799271A9B08951C9B0895C4
:1041600081E0089581E008950F931F93CF93DF932B
:1041700008E916E080E7F80182A7C5E9D5E01CA6AA
:104180001DA61FA61EA60E94A620F80182A50E94B9
:10419000652061E2CE010E9421200E9436201EA6E9
:1041A0001FA6F80182A50E94652061E8CE010E9449
:1041B00021200E9436201EA61FA6F80182A50E947B
:1041C00065206FEECE010E9421200E9436201EA69F
:1041D0001FA6DF91CF911F910F9108951C9BFECFD9
:1041E000A8940895089591E09A95F1F70895089597
:1041F0001F920F920FB60F9211242F933F934F935C
:104200005F936F937F938F939F93AF93BF93EF933E
:10421000FF938091B900887F803609F44AC0F0F599
:10422000883209F4A7C018F5803109F49BC0B8F4AE
:10423000882309F4F9C0883009F494C0FF91EF9104
:10424000BF91AF919F918F917F916F915F914F91AE
:104250003F912F910F900FBE0F901F9018958831AE
:1042600009F488C0803251F780931C0414C0803454
:1042700009F49DC040F48033B9F38833F9F6809394
:104280001C0485ECB0C0803509F485C0883509F47C
:1042900096C0883499F60E94F41BD0CF883909F46F
:1042A0008CC038F5883729F050F4883611F0803703
:1042B00029F683E080931D0410921B0457C08838B0
:1042C00009F47BC0803919F0803809F0B7CF8091AC
:1042D0001B04803208F071C0E0911B0481E08E0F56
:1042E00080931B048091BB00F0E0E550FC4F80837D
:1042F0003DC0803B39F0E0F4803A09F479C0883A57
:1043000009F09CCF84E080931D041092FA03109270
:10431000F903E0914E04F0914F0409958091F9035F
:1043200081110FC081E08093F9031092D90309C075
:10433000803C09F4A6CF883C09F4A3CF883B09F060
:104340007DCFE091FA0381E08E0F8093FA03F0E0D5
:10435000E752FC4F80818093BB009091FA038091DB
:10436000F90329C0809142048093BB0085EC8093BF
:10437000BC0064CF9091410480914004981758F597
:10438000E091410481E08E0F80934104F0E0E05E13
:10439000FB4F8081E9CFE091410481E08E0F809353
:1043A00041048091BB00F0E0E05EFB4F8083909180
:1043B0004104809140049817C8F285E8D8CFE09175
:1043C000410481E08E0F809341048091BB00F0E0B6
:1043D000E05EFB4F808380911F0481115CCF81E000
:1043E00080931E0484EA8093BC0010921D0426CFA3
:1043F00085EC8093BC0010921D0480911B048032D8
:1044000030F4E0911B04F0E0E550FC4F1082609125
:104410001B0470E0E0914C04F0914D048BEF93E0AD
:10442000099510921B040ACF10921C0434CFCF922E
:10443000DF92EF92FF920F931F93E82FF92F05C0A1
:10444000015011092109310961F1908196239417D6
:10445000B9F305C0015011092109310911F1908109
:1044600096239413F7CFC12CD12CE12CF12C0AC048
:104470008FEFC81AD80AE80AF80A0C151D052E0590
:104480003F0579F080818623841791F36C2D7D2D73
:104490008E2D9F2D1F910F91FF90EF90DF90CF9069
:1044A000089560E070E080E090E01F910F91FF9030
:1044B000EF90DF90CF900895EF92FF920F931F93AC
:1044C000CF93DF93EC017B0119821F821E861F862A
:1044D000188A198A81E08D878A871B8692E09C87DB
:1044E00088838B01000F111F060F171F1D830C837C
:1044F000C8010E94EF3599878887009789F0A80145
:1045000070E060E00E94DF37FB82EA8266E0CE0165
:10451000DF91CF911F910F91FF90EF900C94270D99
:104520001D821C821B821A82F1CFCF92DF92EF9202
:10453000FF92E8EFF4E01382128288EEC82E83E047
:10454000D82EE12CF12CC482D582E682F78282E655
:1045500091E09183808385EC90E09587848784EC5B
:1045600090E09787868780EC90E0918B808B81EC40
:1045700090E0938B828B82EC90E0958B848B86EC21
:1045800090E0978B868B118E128E138E148EE5E938
:10459000F5E013821282C482D582E682F78284E734
:1045A00091E09183808362E070E08DEE96E00E945E
:1045B0005C2262E070E088ED96E00E945C2260E19F
:1045C00070E083EC96E00E945C22E8E9F6E013825A
:1045D000128220E130E03583248388E090E09783E5
:1045E00086833187208793878287158A158614866C
:1045F0001786168681E0848B2FEF3FEF338B228B5B
:10460000318B208B868B178A118E108E86E891E075
:1046100091838083E5ECF5E082E081831382E2E020
:10462000F7E013821282C482D582E682F78282EB9F
:1046300091E091838083E6E3F7E01082138A16A26B
:1046400011AE10928207109295071092A80710924F
:10465000BB071092CE071092E107EEE0F7E080E092
:1046600090E0A0ECB0E4828B938BA48BB58B8DECA7
:104670009CECACECBEE3868B978BA08FB18F80E077
:1046800090E0A8E4B3E4828F938FA48FB58F8AE083
:10469000EEE1F1E0ACE2B7E001900D928A95E1F72E
:1046A000FF90EF90DF90CF900895CF93DF93CDB739
:1046B000DEB76E970FB6F894DEBF0FBECDBF78940D
:1046C00084B5826084BD84B5816084BD85B5826017
:1046D00085BD85B5816085BD80916E0081608093C8
:1046E0006E00109281008091810082608093810031
:1046F0008091810081608093810080918000816041
:10470000809380008091B10084608093B10080919B
:10471000B00081608093B00080917A0084608093C3
:104720007A0080917A00826080937A0080917A008A
:10473000816080937A0080917A00806880937A000B
:104740001092C1001092530410925204109251041E
:10475000109250040E94531480EB95E090934F0404
:1047600080934E0481EB95E090934D0480934C042C
:10477000E0910805F091090582E08083E09104054D
:10478000F09105051082E0910605F091070580E1A2
:10479000808310921005E0910C05F0910D0586E0E4
:1047A0008083E0910A05F0910B0580818061808310
:1047B000E0910A05F0910B05808188608083E0918B
:1047C0000A05F0910B05808180688083E0910A05DD
:1047D000F0910B0580818F7D808370E060E086E042
:1047E0000E941A0A70E060E085E00E941A0A70E0F8
:1047F00060E08BE00E941A0A70E060E083E00E94B3
:104800001A0A61E08CE00E943F0761E08AE00E94A2
:104810003F0762E087E00E943F0762E088E00E9475
:104820003F078DEE96E00E941D0E6DE08DEE96E046
:104830000E94270D64E68DEE96E00E94950C88EDAF
:1048400096E00E941D0E6AE088ED96E00E94270D1A
:1048500064E688ED96E00E94950C83EC96E00E9459
:104860001D0E6CE083EC96E00E94270D64E683EC5D
:1048700096E00E94950C88ECE82E84E0F82E10E07B
:1048800000E0C8010E940A32D7018D937D010F5FBD
:104890001F4F00331105A9F78091C8049091C904F6
:1048A000873C944051F187EC94E09093C904809345
:1048B000C80480E090E0A0E8BFE38093CA0490932E
:1048C000CB04A093CC04B093CD0488E790E0909300
:1048D000CF048093CE049093D1048093D00490931E
:1048E000D3048093D2049093D5048093D4049093FE
:1048F000D7048093D6040E94B91400E020E040E081
:1049000070E060E08DEE96E00E94D70C20E040E081
:1049100061E070E08DEE96E00E94D70C8DEE96E09F
:104920000E94590D70E060E090E080E00E947B07FB
:104930000E949B070E943E0C60931C0770931D070A
:1049400080931E0790931F07E6E3F7E090E080E076
:104950002081222311F40C94D52C019673968A3071
:104960009105B1F70E944318FE0131961F013E01E7
:10497000F3E06F0E711C9E012B5F3F4F3C872B872E
:104980008091A5049091A604009709F0B8C00E94F8
:1049900021140197D9F482E190E00E944B1C0E94FF
:1049A0002114019709F088C04CE251E068EC70E0F6
:1049B00088EE93E00E942D0C4CE251E068EC70E030
:1049C00088EE93E00E942D0C0E944F1A88E00E940E
:1049D000E806892B51F48EE090E00E944B1C83E0A6
:1049E00090E09093A6048093A5040E946D169E010A
:1049F000295F3F4F3E872D871AE2412E12E0512E4C
:104A000088EF94E00E941006892B09F4BEC788EF56
:104A100094E00E94EE05A091A404E1E0EA0FE09387
:104A2000A4040A2E000CBB0BAC59BB4F8C938A30EC
:104A3000D9F50E2E000CFF0BEC59FB4F1082809124
:104A400064048D3449F585E694E00E94DE2E8C01E5
:104A5000AE01475F5F4F62E472E085E694E00E943A
:104A6000172F0231110509F453C50CF080C108302D
:104A7000110509F4C4C30CF037C10330110509F462
:104A800012C30CF016C10130110509F4AEC20CF0CE
:104A9000D7C2012B09F4A0C280E4A4E6B4E01D92C1
:104AA0008A95E9F71092A4048091A40480340CF450
:104AB000A7CF1092A404A0CF10921B0710921A0740
:104AC00010920E0710920F07109210071092110704
:104AD00010921207109213071092140710921507E4
:104AE00010921607109217071092180710921907C4
:104AF00082E090E09093A6048093A50467CF823073
:104B0000910509F05FC00E943E0C6B017C0106E339
:104B100017E0D8018C918823D1F11D964D915D91BC
:104B20006D917C91509746015701841A950AA60A07
:104B3000B70A11964D915D916D917C9114978416F1
:104B40009506A606B70670F0813049F1823061F112
:104B5000F801C586D686E786F08A81899289019612
:104B6000928B818BD80115968D919C91169797FD0C
:104B70000EC051962D913C915297281739073CF061
:104B80001C921B96ED91FC91309709F009950D5EF2
:104B90001F4FB7E0043F1B0709F0BBCF28CF199682
:104BA000ED91FC910995D4CF61E0F80180858111E8
:104BB00060E0D80118966C93189717968C910E9414
:104BC0001107C6CF039709F010CF0E944F1820E0BD
:104BD00030E040E251E40E94E63087FF23C070E0FD
:104BE00060E090E080E00E94770A64E170E080E09D
:104BF00090E00E94FA0B64E670E08CE99FEF0E945F
:104C0000770A0E944F1820E030E040E251E40E9411
:104C1000E63087FF39C062E370E080E090E00E94F8
:104C2000FA0BEFCF0E946B2D4B015C010E946B2DA4
:104C30006F87788B898B9A8B04E6C02ED12CE12C60
:104C4000F12CC501B401A70196010E9452324B011B
:104C50005C01E2E38E0E911CA11CB11C6F8578896A
:104C600089899A89A70196010E945232DC01CB0101
:104C7000C296A11DB11DB4010E94770A64E170E0E3
:104C800080E090E00E94FA0B88E00E94E806892B01
:104C900009F0ADCE1092A6041092A50470E060E079
:104CA00090E080E00E94770A8CE090E00E944B1C2C
:104CB0009ECE0530110509F471C20CF44AC20630CB
:104CC000110509F489C20730110509F0E5CE0E94EB
:104CD0004F186B017C016AE072E088EF94E00E945B
:104CE0006516C701B601DCC10C30110509F402C319
:104CF0005CF50A30110509F4C2C20CF49DC26BE1E7
:104D000072E088EF94E00E9465160E949B07609114
:104D100005017091060180910701909108012FEF24
:104D20003FEFA9012093050130930601409307014D
:104D30005093080140E10E94DF1465EF71E088EFB5
:104D400094E00E94D014A8CE0E30110509F486C359
:104D50000CF445C30031110509F49DC3013111055F
:104D600009F09ACE89859A850E94D71895CE01328E
:104D7000110509F463C50CF0ACC00631110509F446
:104D8000BDC40CF087C00431110509F412C40CF441
:104D9000D6C309851A8534E5C32E34E0D32E44E604
:104DA000E42E44E0F42ED8018C91809302011196F8
:104DB0008C9111978093030112968C911297809396
:104DC000000113968C918093010140E150E070E066
:104DD00060E080E091E00E94C32DF6016193719341
:104DE0006F010C5F1F4FEE16FF06E9F60E94B4201C
:104DF0001092B3061092B2061092B5061092B40645
:104E00001092B7061092B6061092B9061092B80624
:104E10001092BB061092BA061092BD061092BC0604
:104E20001092BF061092BE061092C1061092C006E4
:104E3000B12CF12CE12C6701CC0CDD1C10E000E062
:104E4000C80187709927BB0C892B59F4F80193E0AE
:104E5000F595E7959A95E1F7EC0DFD1DEC5AFB4FA2
:104E6000B080B7FE08C021E030E0A701B80188E9B2
:104E700096E00E94F6120F5F1F4F0031110501F7F7
:104E8000FFEFEF1AFF0A28E0E216F104A1F60E94F4
:104E9000812002CE0E31110509F474C45CF407318F
:104EA000110509F0F9CD89859A850E94DE2E0E94B0
:104EB0004B1CF2CD0F31110509F499C400321105D4
:104EC00009F0EACD8EE090E00E944B1C83E090E078
:104ED00087C0013D110509F423C50CF059C0083203
:104EE000110509F4B8C40CF50232110509F0D4CD4E
:104EF00061E08CE00E943F0761E08AE00E943F078A
:104F00008AE00E94E80661E0892B09F060E08AE00F
:104F10000E9411078CE00E94E80661E0892B09F0ED
:104F200060E08CE00E941107B7CD083C110509F440
:104F3000E6C40A3C110509F0AFCD3F922F927F9253
:104F40006F923C853F934B854F9387E292E09F930E
:104F50008F938A858F9389858F930E94ED3709817E
:104F60001A816B817C818D819E810E94770AB801B4
:104F7000110F880B990B0E94FA0B70E060E090E033
:104F800080E00E94770A89E392E00E9452161EC1D7
:104F9000073D110509F4D3C49CF4023D110509F045
:104FA0007BCD6EE372E088EF94E00E94651660911D
:104FB000CA047091CB048091CC049091CD0470C050
:104FC000063331E0130709F4DDC4073E134009F04E
:104FD00063CD0C94000060CD0E94431881E090E006
:104FE0009093A6048093A50457CD3F922F928DE213
:104FF00092E09F938F938A858F9389858F930E94E8
:10500000ED3789819A810E94DB0A8C016EEF71E095
:1050100088EF94E00E94651689819A810E94251587
:1050200062E472E088EF94E00E946516C8010E9475
:1050300055150F900F900F900F900F900F902CCD53
:1050400062E072E088EF94E00E94651660912007AC
:1050500070912107809122079091230742E00E94DE
:10506000651562E472E088EF94E00E946516609135
:10507000240770912507809126079091270742E029
:105080000E94651562E472E088EF94E00E94651664
:10509000609128077091290780912A0790912B072A
:1050A0000E944116F9CC09851A851A830983012BC0
:1050B00059F1A10162E472E090E080E00E94172FB4
:1050C0008C01FC018081803549F4C80101960E9461
:1050D000DA2E6B8B7C8B8D8B9E8BE9CF893449F4D8
:1050E000C80101960E94DA2E6B8F7C8F8D8F9E8F68
:1050F000DECF8434E1F6C80101960E94DA2E6F8B70
:10510000788F898F9A8FD3CF2B893C894D895E897F
:1051100020932007309321074093220750932307C1
:105120008B8D9C8DAD8DBE8D80932407909325072C
:10513000A0932607B09327072F89388D498D5A8D64
:10514000209328073093290740932A0750932B0771
:10515000A3CC3F922F924DE252E05F934F938A850A
:105160008F9389858F930E94ED3766E072E088EF18
:1051700094E00E94651689819A810E94251562E457
:1051800072E088EF94E00E946516E981FA81EE0FE3
:10519000FF1FE253FB4F8081918149CF3F922F92B5
:1051A0007F926F925F924F928A858F9389858F93BA
:1051B0000E94ED37EB81FC81EE0FFF1FE253FB4FA6
:1051C00089819A81918380830E94B9140FB6F894E3
:1051D000DEBF0FBECDBF60CC3F922F927F926F9209
:1051E0005F924F928A858F9389858F930E94ED37C6
:1051F00069817A818B819C810E947B07E7CF85E161
:105200000E94C60A8C016EE072E088EF94E00E9472
:105210006516B801110F880B990B0E94ED3020E044
:1052200030E040E85AE30E944C3126E636E646EA92
:1052300050E40E944C3134CF89859A850E94DE2E3D
:105240008C0162E172E088EF94E00E946516013003
:10525000110529F40E9421140E9455151DCC8FEFD1
:105260009FEF02301105C1F788E00E94E80631E0A7
:1052700020E0892B09F030E0832F922FEDCF66E1FB
:1052800072E088EF94E00E94651690E080E00E9452
:10529000DB0A0E94251562E472E088EF94E00E9428
:1052A000651681E090E00E94DB0A0E94251562E409
:1052B00072E088EF94E00E94651682E090E00E9420
:1052C000DB0A0E94251562E472E088EF94E00E94F8
:1052D000651683E090E00E94DB0A0E94251562E4D7
:1052E00072E088EF94E00E94651684E090E00E94EE
:1052F000DB0AB2CF3F922F9280E292E09F938F938E
:105300008A858F9389858F930E94ED3789809A8053
:10531000092C000CAA08BB0810926F0061E089E01C
:105320000E943F0760E089E00E94110782E08093BD
:10533000800081E18093810082ED90E0909387006E
:105340008093860086E490E09093890080938800A3
:1053500088E293E20E948B0C84E991E10E947D0C2B
:105360000F900F900F900F900F900F9000E210E0B1
:10537000C12CD12CE12C70E8F72ED501C4018C2171
:105380009D21AE21BF21892B8A2B8B2B09F180E334
:1053900092E00E948B0C8AE996E00E947D0CF694C4
:1053A000E794D794C7940150110939F780E392E04C
:1053B0000E948B0C809180008F778093800065E045
:1053C00070E080E090E00E94FA0B0E949B0764CBA3
:1053D00080E392E00E948B0C80E392E0DECF3F926C
:1053E0002F927F926F923C853F934B854F935E85C2
:1053F0005F938D858F93A4E2B2E0BF93AF938A85CC
:105400008F9389858F930E94ED37E980FB801D8102
:105410006F8178850FB6F894DEBF0FBECDBF6115E2
:105420007105B1F40E2D2F2D412F70E060E08DEE4F
:1054300096E00E94D70C2F2D412F61E070E08DEE99
:1054400096E00E94D70C8DEE96E00E94590D24CB79
:10545000615071090E2D2F2D412FF1CF3F922F92C8
:105460004DE252E05F934F938A858F9389858F93A6
:105470000E94ED371981612F8DEE96E00E94950C08
:10548000612F88ED96E00E94950C612F83EC96E0E9
:105490000E94950CCECD3F922F927F926F929C8569
:1054A0009F93AB85AF93BE85BF93ED85EF9324E2C9
:1054B00032E03F932F938A858F9389858F930E9443
:1054C000ED37E980FB801D816F8178850FB6F894F8
:1054D000DEBF0FBECDBF61157105A1F40E2D2F2DBE
:1054E000412F70E060E088ED96E00E94D70C2F2DF0
:1054F000412F61E070E088ED96E00E94D70C88EDC6
:1055000096E0A3CF615071090E2D2F2D412FF3CFBF
:105510003F922F927F926F925F924F928A858F93E4
:1055200089858F930E94ED3749815A81052E000CA1
:10553000660B770B8B819C810E94BC0747CE3F9204
:105540002F927F926F925F924F928A858F93898577
:105550008F930E94ED376B817C8165547109072E12
:10556000000C880B990B0E94ED3020E030E040E405
:1055700051E40E943C339B01AC0160E070E080E0AC
:1055800090E40E94283429813A814DE7429F8001AE
:10559000439F100D112420E030E04CED53E40E94B5
:1055A0004C310E94AE33CB01A801B8010E942D0CF2
:1055B0000DCE09851A85F80101900020E9F7319791
:1055C0007F01E01AF10A0E94B4201092B3061092F3
:1055D000B2061092B5061092B4061092B706109259
:1055E000B6061092B9061092B8061092BB06109239
:1055F000BA061092BD061092BC061092BF06109219
:10560000BE061092C1061092C00681E08093AC06DF
:105610001092AE0681E090E09093AB068093AA06CC
:105620009093A9068093A806F80101900020E9F75D
:1056300031979F01201B310BF5E0EF16F10408F4C0
:1056400049C04BEF42037001439FF00C11242AE044
:10565000E21AF1085FE0C52ED12CCE14DF040CF461
:1056600048C01092B3061092B2061092B50610927E
:10567000B4061092B7061092B6061092B9061092B0
:10568000B8061092BB061092BA061092BD06109290
:10569000BC061092BF061092BE061092C106109270
:1056A000C006D092A506C092A4061092A70610923A
:1056B000A606B80188E996E00E9465160E9481203E
:1056C00064E670E080E090E00E94FA0B31E0C31ADB
:1056D000D108C3CF1092A5061092A4061092A70677
:1056E0001092A606B80188E996E00E9465160E940D
:1056F000812081E392E00E945216CEC93F922F9200
:105700007F926F923C853F934B854F935E855F936D
:105710008D858F93A4E2B2E0BF93AF938A858F9378
:1057200089858F930E94ED37C980DB801D81EF80D2
:10573000F8840FB6F894DEBF0FBECDBFE114F104BC
:10574000B1F40C2D2D2D412FB70183EC96E00E9472
:10575000D70C3FEFE31AF30A40E1E416F10489F7AE
:1057600083EC96E00E94590D85E392E0C4CFB70127
:10577000615071090C2D2D2D412F83EC96E00E9474
:10578000D70CEECF3F922F927F926F925C855F9302
:105790008B858F93A7E2B2E0BF93AF938A858F93F7
:1057A00089858F930E94ED3709811A81FB80ED80F6
:1057B00061E08CE00E943F0761E08AE00E943F07C1
:1057C0006E2D8CE00E9411076F2D8AE00E94110758
:1057D000B801110F880B990B0E94FA0B61E08CE065
:1057E0000E94110761E08AE00E941107EFCC82E17C
:1057F00090E00E944B1C10921B0710921A07109207
:105800000E0710920F0710921007109211071092B6
:105810001207109213071092140710921507109296
:10582000160710921707109218071092190742E0F6
:1058300050E05093A6044093A5042EC91092A604EC
:105840001092A50470E060E090E080E00E94770A8A
:1058500083E190E02CCB3F922F927F926F925F92E8
:105860004F928A858F9389858F930E94ED37698146
:105870007A81072E000C880B990B0E94ED304B01AA
:105880005C016B817C81660F771F072E000C880BF3
:10589000990B0E94ED302AED3FE049E450E40E946C
:1058A0004C3120E030E044EB53E40E943C336B0188
:1058B0007C010E9437339B01AC01C501B4010E94F9
:1058C0004C310E94AE336F87788B898B9A8BC701DE
:1058D000B6010E9478349B01AC01C501B4010E945D
:1058E0004C310E94AE339B01AF85B8892A1B3B0B1C
:1058F000CD01860F971FB9010E94770A67CC3F92AE
:105900002F927F926F925F924F928A858F938985B3
:105910008F930E94ED3769817A818B819C81ECCFD6
:1059200089859A850E94DA2E6093CA047093CB040D
:105930008093CC049093CD040E94B914ADC83F92DB
:105940002F922DE232E03F932F938A858F938985A2
:105950008F930E94ED3789819A819093CF04809331
:10596000CE049093D1048093D0049093D304809379
:10597000D2049093D5048093D4049093D704809359
:10598000D60457CB0E944F1A87C880E090E0892B3D
:1059900011F40C94C0240E941C06882311F40C946A
:1059A000C0240E9400000C94C02423E1289F8001A1
:1059B000299F100D11240A5C184F81E0F8018083A3
:1059C00085E090E0A0E0B0E081839283A383B4837C
:1059D0008FEF9FEF968385838BE69CE1928781878B
:1059E0000E943E0CD8011D966D937D938D939C93E0
:1059F000509752961C921E9251970C94B224CF93BA
:105A0000DF93EC0188859985009711F00E948B3611
:105A10008E8187FD05C060E0DF91CF910C943F0738
:105A2000DF91CF91089583EC96E00E94FF2C88EDE2
:105A300096E00E94FF2C8DEE96E00C94FF2C8F9246
:105A40009F92AF92BF92CF92DF92EF92FF92CF934D
:105A5000DF93EC01688179818A819B8161157105F1
:105A60008105910521F464E279ED8BE597E02DE164
:105A700033EF41E050E00E94523249015A019B014C
:105A8000AC01A7EAB1E40E9471326B017C01ACEE7B
:105A9000B4EFA50194010E947F32C60ED71EE81E06
:105AA000F91EF7FE06C081E0C81AD108E10880E8B7
:105AB000F80AC882D982EA82FB82C701B6019F77C1
:105AC000DF91CF91FF90EF90DF90CF90BF90AF909C
:105AD0009F908F9008958F929F92AF92BF92CF9296
