:100000000C9414060C943C060C943C060C943C0690
:100010000C943C060C943C060C943C060C94830A0D
:100020000C943C060C943C060C943C060C94A70BD8
:100030000C943C060C943C060C943C060C943C0638
:100040000C946B220C943C060C94420B0C941C0BED
:100050000C943C060C943C060C943C060C943C0618
:100060000C94DB160C943C0607634236B79BD8A76A
:100070001A39685618AEBAAB558C1D3CB7CC5763CD
:10008000BD6DEDFD753EF6177231BF000000803F7B
:1000900008000000BE922449123EABAAAA2ABECD97
:1000A000CCCC4C3E00000080BEABAAAAAA3E000009
:1000B0000000BF000000803F000000000008417801
:1000C000D3BB4387D1133D190E3CC3BD4282AD2B38
:1000D0003E68EC8276BED98FE1A93E4C80EFFFBE30
:1000E00001C4FF7F3F00000000004E414E494E49D1
:1000F0005459494E46CDCCCC3D0AD7233C17B7D1F5
:100100003877CC2B329595E6241FB14F0A0000209A
:10011000410000C84200401C4620BCBE4CCA1B0E19
:100120005AAEC59D746364696E6F70737578585B61
:1001300000000000080002010000030407000000A6
:10014000000000000000000000003E5B4F5B3E3EF0
:100150006B4F6B3E1C3E7C3E1C183C7E3C181C5773
:100160007D571C1C5E7F5E1C00183C1800FFE7C317
:10017000E7FF0018241800FFE7DBE7FF30483A06E6
:100180000E2629792926407F050507407F05253F52
:100190005A3CE73C5A7F3E1C1C08081C1C3E7F143E
:1001A000227F22145F5F005F5F06097F017F006688
:1001B00089956A606060606094A2FFA29408047EE2
:1001C000040810207E201008082A1C08081C2A0891
:1001D000081E101010100C1E0C1E0C30383E38304B
:1001E000060E3E0E06000000000000005F0000004A
:1001F00007000700147F147F14242A7F2A12231378
:1002000008646236495620500008070300001C228B
:1002100041000041221C002A1C7F1C2A08083E08BD
:1002200008008070300008080808080000606000BE
:1002300020100804023E5149453E00427F400072B2
:10024000494949462141494D331814127F10274529
:100250004545393C4A494931412111090736494947
:100260004936464949291E00001400000040340068
:10027000000008142241141414141400412214081C
:1002800002015909063E415D594E7C1211127C7FD4
:10029000494949363E414141227F4141413E7F49E2
:1002A0004949417F090909013E414151737F0808CD
:1002B000087F00417F41002040413F017F08142218
:1002C000417F404040407F021C027F7F0408107F36
:1002D0003E4141413E7F090909063E4151215E7F71
:1002E00009192946264949493203017F01033F4044
:1002F00040403F1F2040201F3F4038403F631408CC
:10030000146303047804036159494D43007F41415C
:10031000410204081020004141417F04020102040F
:100320004040404040000307080020545478407F7C
:10033000284444383844444428384444287F3854B6
:1003400054541800087E090218A4A49C787F08045D
:10035000047800447D40002040403D007F10284448
:100360000000417F40007C047804787C0804047815
:100370003844444438FC1824241818242418FC7CDD
:1003800008040408485454542404043F44243C40C2
:1003900040207C1C2040201C3C4030403C44281025
:1003A00028444C9090907C4464544C44000836415E
:1003B000000000770000004136080002010204023C
:1003C0003C2623263C1EA1A161123A4040207A38E7
:1003D0005454555921555579412254547842215548
:1003E00054784020545579400C1E5272123955559C
:1003F0005559395454545939555454580000457C72
:10040000410002457D420001457C407D1211127D74
:10041000F0282528F07C545545002054547C547C09
:100420000A097F4932494949323A4444443A324AF6
:100430004848303A4141217A3A42402078009DA014
:10044000A07D3D4242423D3D4040403D3C24FF2492
:1004500024487E4943662B2FFC2F2BFF0929F620C9
:10046000C0887E090320545479410000447D413006
:1004700048484A32384040227A007A0A0A727D0D92
:1004800019317D2629292F28262929292630484D4A
:100490004020380808080808080808382F10C8AC99
:1004A000BA2F102834FA00007B000008142A142206
:1004B00022142A14085500550055AA55AA55AAFF1A
:1004C00055FF55FF000000FF00101010FF0014142E
:1004D00014FF001010FF00FF1010F010F01414149F
:1004E000FC001414F700FF0000FF00FF1414F404D4
:1004F000FC141417101F10101F101F1414141F00C9
:10050000101010F0000000001F101010101F10102D
:100510001010F010000000FF10101010101010103C
:1005200010FF10000000FF140000FF00FF00001F7C
:1005300010170000FC04F414141710171414F4041A
:10054000F40000FF00F714141414141414F700F747
:10055000141414171410101F101F141414F4141072
:1005600010F010F000001F101F0000001F1400000A
:1005700000FC140000F010F01010FF10FF14141411
:10058000FF141010101F00000000F010FFFFFFFF0D
:10059000FFF0F0F0F0F0FFFFFF0000000000FFFFB1
:1005A0000F0F0F0F0F3844443844FC4A4A4A347E38
:1005B00002020606027E027E026355494163384408
:1005C000443C04407E201E2006027E020299A5E7DC
:1005D000A5991C2A492A1C4C7201724C304A4D4D77
:1005E000303048784830BC625A463D3E494949005F
:1005F0007E0101017E2A2A2A2A2A44445F4444407B
:10060000514A444040444A51400000FF0103E08009
:10061000FF000008086B6B083612362436060F09F7
:100620000F06000018180000001010003040FF01F5
:1006300001001F01011E00191D1712003C3C3C3C2B
:10064000000000000067353A3120642320632067F2
:10065000343A3220623A312063353A33200067342D
:100660003A31206335206520673A3220653A3120DF
:10067000673A33200067353A3120662065206420D0
:1006800063200063353A31206420652066206720AE
:100690000065333A3320723A312064233A332072B2
:1006A0003A3120643A3420723A312063233A3820B8
:1006B0000062353A312065363A33200061343A31F0
:1006C000206220633520623420613A32207220613A
:1006D0003A31206220633520623420613A32207240
:1006E00020613A322065352064232065206620652C
:1006F00020642320652062343A3120633520642051
:10070000632062343A32207220623A31206335200D
:100710006420632062343A32207220623A322065CB
:100720003520642320652066206520642320652011
:100730000063333A33207220643A322064232072FB
:10074000206320722066233A38200063343A332035
:1007500067333A3120662320672067233A332067C6
:1007600020722062206334200063333A3420633ADD
:100770003320633A3120633A342064233A332064CF
:100780003A3120643A3320633A3120633A332062AD
:10079000323A312063333A34200063343A342066ED
:1007A0003A3320663A3120663A3820633A3420677B
:1007B0003A3320653A3120663A3820633A3420666D
:1007C0003A3320613A312063353A342061343A3388
:1007D00020663A3120663A3420653A3320663A3151
:1007E00020673A38200063343A3320633A3120647A
:1007F0003A3420633A34206620653A3820633A332D
:1008000020633A3120643A3420633A34206720660A
:100810003A3820633A3320633A312063353A342042
:1008200061342066206520642061233A33206123EF
:100830003A3120613A342066206720663A38200039
:1008400063323A32206520672061206123206120D5
:100850006720652063323A3220652067206120617D
:100860002320612067206520662061206333206497
:10087000206423206420632061322063323A3220D6
:100880006520672061206123206120672065206743
:10089000206220643320662066322061206333208A
:1008A00064232063323A3220652067206520672068
:1008B0006620652064200063323A3220632064237E
:1008C00020633A3120663A3220633A3120663A3268
:1008D000206623206720632063206720633A31204D
:1008E00066233A3220633A312066233A322066206A
:1008F0006423200063343A31206420653A32206753
:1009000020643A31206520663A32206120653A3110
:10091000206620673A3220622063353A3420006630
:1009200023353A322067232063233A312064233A67
:10093000322062343A312064353A31206323206218
:10094000343A32206220632335206420643A312017
:1009500063232062343A31206323353A3120642303
:10096000206623206723206423206623206323201E
:100970006420623420632335206234206423353AB6
:10098000322066232067233A312064232066232007
:100990006323206423206234206435206423206490
:1009A0002063232062342063233520643A3220629E
:1009B000343A3120632335206423206623206323C7
:1009C0002064206323206234206323353A3220627E
:1009D00034206323352062342066233A3120672394
:1009E00020623A322066233A312067232062206356
:1009F000233520642320623420653520642320655C
:100A00002066232062343A3220622066233A312065
:100A1000672320622066232065352064232063231A
:100A20002062342066232064232065206623206210
:100A30003A322066233A3120672320623A32206618
:100A4000233A31206723206220622063233520640B
:100A50002320623420662320672320662320623A05
:100A60003220623A312061232062206623206723EE
:100A700020622065352064232065206623206234AF
:100A80003A322063233520006534206520662067D4
:100A90002067206620652064206320632064206531
:100AA00020653A3620643A3220643A3820653A3478
:100AB000206520662067206720662065206420630B
:100AC00020632064206520643A3620633A32206334
:100AD0003A38200063343A3120652067206335209E
:100AE00065206734206335206520633420652067E6
:100AF000206335206520673420633520652063340A
:100B00002064206720643520662067342064352007
:100B100066206334206420672064352066206734B3
:100B200020643520662062332064342067206435D9
:100B300020662067342064352066206233206434C8
:100B400020672064352066206734206435206620C5
:100B50006334206520672063352065206734206377
:100B600035206520633420652067206335206520AB
:100B700067342063352065200064343A31206423D3
:100B800020652063353A322065343A312063353AA6
:100B9000322065343A312063353A3320633A3120CC
:100BA0006420642320652063206420653A3220623B
:100BB000343A312064353A3220633A3420007234BA
:100BC0003A322067206720672065623A3820723AFF
:100BD0003220662066206620643A3820000000003B
:100BE00000250028002B0002000000002300260042
:100BF00029000404040404040404020202020202A0
:100C000003030303030301020408102040800102D0
:100C10000408102001020408102000000000240035
:100C200027002A00BC2CB02C11241FBECFEFD8E027
:100C3000DEBFCDBF12E0A0E0B1E0E6EBF6E702C018
:100C400005900D92A434B107D9F727E0A4E4B2E0EF
:100C500001C01D92A63FB207E1F716E0C3E1D6E05E
:100C600004C02197FE010E941D36C231D107C9F789
:100C70000E94FA220C944E3B0C940000CF92DF921B
:100C8000EF92FF920F931F93CF93DF936C017A0142
:100C90008B01C0E0D0E0CE15DF0581F0D8016D9169
:100CA0008D01D601ED91FC910190F081E02DC601FE
:100CB0000995892B11F02196EECF7E01C701DF91B6
:100CC000CF911F910F91FF90EF90DF90CF900895FB
:100CD000FC01538D448D252F30E0842F90E0821B42
:100CE000930B541710F0CF96089501970895FC01C7
:100CF000918D828D981761F0828DDF01A80FB11D53
:100D00005D968C91928D9F5F9F73928F90E0089576
:100D10008FEF9FEF0895FC01918D828D981731F030
:100D2000828DE80FF11D858D90E008958FEF9FEF84
:100D30000895FC01918D228D892F90E0805C9F4F5A
:100D4000821B91098F739927089580EE94E00E9489
:100D5000990621E0892B09F420E0822F0895FC01F7
:100D6000848DDF01A80FB11DA35ABF4F2C91848D34
:100D700090E001968F739927848FA689B7892C9369
:100D8000A089B1898C91837080648C93938D848DBC
:100D9000981306C00288F389E02D80818F7D8083BF
:100DA0000895EF92FF920F931F93CF93DF93EC017F
:100DB00081E0888F9B8D8C8D981305C0E889F98917
:100DC000808185FD26C0F62E0B8D10E00F5F1F4F32
:100DD0000F731127E02E8C8DE8120CC00FB607FCA4
:100DE000FACFE889F989808185FFF5CFCE010E948D
:100DF000AF06F1CF8B8DFE01E80FF11DE35AFF4FD7
:100E0000F0829FB7F8940B8FEA89FB89808180621A
:100E10000AC09FB7F894EE89FF896083E889F98951
:100E200080818370806480839FBF81E090E0DF9148
:100E3000CF911F910F91FF90EF900895CF93DF9383
:100E4000EC01888D8823C9F0EA89FB89808185FDC2
:100E500005C0A889B9898C9186FD0FC00FB607FC23
:100E6000F5CF808185FFF2CFA889B9898C9185FF64
:100E7000EDCFCE010E94AF06E7CFDF91CF9108956D
:100E800080E090E0892B29F00E94A50681110C9446
:100E9000000008950895FC016370668B848195813C
:100EA00026813781613039F0633029F0918780875E
:100EB0003387228708953187208793878287089513
:100EC0006F927F928F929F92AF92BF92CF92DF925A
:100ED000EF92FF920F931F93CF93DF93EC014B019F
:100EE0005A0169013801E881F9810284F385E02D16
:100EF0000995E881F9810288F389E02D870196013F
:100F0000A501B401CE010995A501460D571D41501B
:100F10005109E881F9810288F389E02D9601B40135
:100F2000CE010995E881F9810088F189E02D9301CE
:100F3000A501B401CE010995C80CD91CB6016150B8
:100F40007109E881F9810088F189E02D9301A501FB
:100F5000CE010995E881F9810688F789E02DCE0157
:100F6000DF91CF911F910F91FF90EF90DF90CF9085
:100F7000BF90AF909F908F907F906F9009948F92C9
:100F80009F92AF92BF92CF92DF92EF92FF920F9318
:100F90001F93CF93DF934C016B015A01E901DC01F0
:100FA000ED91FC916217730781F40417150724F47F
:100FB0008B2D5801042F182F0A191B0998012F5F38
:100FC0003F4F048CF58DE02D12C04017510709F5F5
:100FD0002617370724F48D2D6901C62FD82F9E01BF
:100FE0002C193D092F5F3F4F068CF78DE02D8701AF
:100FF000A501B601C4010995DF91CF911F910F9111
:10100000FF90EF90DF90CF90BF90AF909F908F9028
:1010100008950284F385E02D0995D401ED91FC91AA
:101020000488F589E02D9E01A501B601C40109954A
:10103000D401ED91FC910688F789E02DC401DF9180
:10104000CF911F910F91FF90EF90DF90CF90BF90C5
:10105000AF909F908F900994EF92FF920F931F9300
:10106000DC011A960D911C911B9718962D913C91BD
:101070001997ED91FC9100A0F1A1E02D7B0140E0DA
:1010800050E060E070E009951F910F91FF90EF90A4
:1010900008954F925F926F927F928F929F92AF923C
:1010A000BF92CF92DF92EF92FF920F931F93CF9355
:1010B000DF936C012B015A0139014801DC01ED91EC
:1010C000FC910284F385E02D0995E201640C751C06
:1010D000D601ED91FC91C615D7055CF40088F18925
:1010E000E02D87019401A501BE01C6010995219655
:1010F000EFCF0688F789E02DC601DF91CF911F91D0
:101100000F91FF90EF90DF90CF90BF90AF909F90A6
:101110008F907F906F905F904F9009948F929F92E5
:10112000AF92BF92CF92DF92EF92FF920F931F93F5
:10113000CF93DF93EC015B014A016901E881F981FA
:101140000284F385E02D099595012C0D3D1D21505C
:101150003109E881F9810488F589E02D780184015D
:10116000A401B501CE010995E881F9810688F789C6
:10117000E02DCE01DF91CF911F910F91FF90EF9065
:10118000DF90CF90BF90AF909F908F9009948F92F7
:101190009F92AF92BF92CF92DF92EF92FF920F9306
:1011A0001F93CF93DF93EC015B014A016901780142
:1011B000E881F9810284F385E02D0995C80CD91CDA
:1011C000860101501109E881F9810488F589E02D33
:1011D0009501A401B501CE010995E881F981068840
:1011E000F789E02DCE01DF91CF911F910F91FF90F4
:1011F000EF90DF90CF90BF90AF909F908F90099429
:101200000895EF92FF920F931F93DC01ED91FC91F3
:1012100000A0F1A1E02D09951F910F91FF90EF9093
:1012200008950F931F93DC01ED91FC91068CF78DCF
:10123000E02D09951F910F9108950F931F93DC01E5
:10124000ED91FC91048CF58DE02D09951F910F9186
:1012500008950E940A388F929F92AF92CF92EF9298
:10126000FF920F931F93CF93DF93EC01262F898D6D
:101270009A8D009709F042C06A3059F41D861C8689
:101280002D898E859F8538E0239F800D911D112427
:1012900043C06D3009F4AAC08F898823C9F03C8906
:1012A0008C859D8546E0349F800D911D11244885D5
:1012B00059854817590764F41D861C863D898E851B
:1012C0009F8548E0349F800D911D11249F878E8754
:1012D000EA88FB88088919894E855F856C857D853C
:1012E000AD88CC88CE010E946E0F2C898C859D859F
:1012F00036E0239F800D911D11243EC06A3079F4A1
:101300001D861C862D89FC013696E4918E859F856D
:101310002E9F800D911D11249F878E8767C06D3091
:1013200009F464C0FC0134963491631708F45EC07C
:101330003196E491E61708F459C0462F431B342F29
:10134000FC0132968590949047E0349F800C911C6C
:101350001124F401329634913196E491332311F043
:10136000E1110DC0F4013496E4912C898C859D85A2
:10137000E29F800D911D11249D878C8737C0F40159
:10138000359644915F89552319F15C89E32FF0E08C
:10139000E40FF11D47FDFA955E9FB0015F9F700D50
:1013A00011244C855D85460F571F68857985641724
:1013B000750774F41D861C863D89FC013696E49100
:1013C0008E859F853E9F800D911D11249F878E875E
:1013D000EA88FB88088919894E855F856C857D853B
:1013E000AD88CC88CE010E946E0FBCCF81E090E02A
:1013F000DF91CF911F910F91FF90EF90CF90AF9021
:101400009F908F9008950F931F93CF93DF93EC01DC
:1014100088819981009729F02A813B812617370717
:1014200088F48B016F5F7F4F0E944437009761F013
:10143000998388831B830A832C813D81232B11F49C
:10144000FC01108281E001C080E0DF91CF911F910B
:101450000F910895EF92FF920F931F93CF93DF9315
:101460006115710511F480E01CC041155105C1F0F2
:101470007B01EC018C819D818A01080F191FB80145
:10148000CE010E94030A882371F3288139818C815F
:101490009D81B701820F931F0E941F381D830C830B
:1014A00081E0DF91CF911F910F91FF90EF90089510
:1014B000CF93DF93EC0188819981009711F00E940E
:1014C000BB36198218821D821C821B821A82DF9110
:1014D000CF910895CF93DF93EC016115710561F011
:1014E000FB0101900020E9F73197AF01461B570B34
:1014F0000E942A0A811103C0CE010E94580ACE011F
:10150000DF91CF9108951F920F920FB60F92112481
:101510002F933F934F935F936F937F938F939F93FB
:10152000AF93BF93EF93FF938091AB049091AC0482
:10153000A091AD04B091AE04892B8A2B8B2B59F16D
:101540009091A804E091A904F091AA0480818927D0
:1015500080838091AB049091AC04A091AD04B091D4
:10156000AE04181619061A061B060CF03DC0809131
:10157000AB049091AC04A091AD04B091AE0401977E
:10158000A109B1098093AB049093AC04A093AD047E
:10159000B093AE0429C080910901E7EEFBE0E4912D
:1015A0009FEF90930901E130B9F098F0E230C9F46F
:1015B000909170009D7F9093700091E09093B000A7
:1015C0009091B100987F94609093B1001092B30015
:1015D00008C010926E0005C090916F009D7F90939F
:1015E0006F0060E00E94B913FF91EF91BF91AF913E
:1015F0009F918F917F916F915F914F913F912F912B
:101600000F900FBE0F901F9018956115710579F01E
:10161000FB0101900020E9F73197AF01461B570B02
:10162000DC01ED91FC910280F381E02D099480E0D2
:1016300090E008950C94050B1F920F920FB60F9235
:1016400011242F933F934F935F936F937F938F93C7
:101650009F93AF93BF93EF93FF9380EE94E00E942C
:10166000AF06FF91EF91BF91AF919F918F917F91C5
:101670006F915F914F913F912F910F900FBE0F90FF
:101680001F9018951F920F920FB60F9211242F934F
:101690008F939F93EF93FF93E091F004F091F10407
:1016A0008081E091F604F091F70482FD12C09081F0
:1016B0008091F9048F5F8F732091FA04821751F0A3
:1016C000E091F904F0E0E052FB4F958F8093F9042C
:1016D00001C08081FF91EF919F918F912F910F9089
:1016E0000FBE0F901F9018958F929F92AF92BF924E
:1016F000CF92DF92EF92FF926B017C010E94002259
:101700004B015C0184E0C81AD108E108F108C80C5B
:10171000D91CEA1CFB1CC814D904EA04FB0438F4E5
:101720000E94002286169706A806B906C8F30E94F2
:1017300000226C157D058E059F05C8F3FF90EF9084
:10174000DF90CF90BF90AF909F908F9008951F92A1
:101750000F920FB60F9211242F933F934F935F93E5
:101760006F937F938F939F93AF93BF93EF93FF9369
:101770008091AE050E94A2112091B2053091B3056F
:101780002F5F3F4F3093B3052093B2059091B10581
:10179000953618F096E09093AD059091AD05943094
:1017A000C9F128F4923069F09330D1F05EC09530E1
:1017B00009F451C0963009F058C091E090937E062C
:1017C00051C0811152C02091B2053091B305243629
:1017D000310508F442C010927E061092B1051CC07B
:1017E000813009F042C0E091B10591E09E0F9093E5
:1017F000B105F0E02091B2053091B305EE0FFF1F67
:10180000E355FA4F308727831092B3051092B20543
:1018100094E029C0811117C0E091B10591E09E0FBD
:101820009093B105F0E02091B2053091B305EE0F31
:10183000FF1FE355FA4F308727831092B3051092AC
:10184000B20593E010C02091B2053091B305253662
:10185000310558F007C0811108C01092B3051092ED
:10186000B20503C095E09093AD059091B005992322
:10187000B9F081110AC08091AF05882321F08091D1
:10188000AF0561E009C02D9A0BC08091AF05882398
:1018900031F08091AF0560E00E94B91301C02D982E
:1018A000FF91EF91BF91AF919F918F917F916F9138
:1018B0005F914F913F912F910F900FBE0F901F900E
:1018C0001895FF920F931F93CF93DF93EC01FF24A2
:1018D000F394F60E2F81F21679F1088519852150BF
:1018E000B9F06F3F59F430E040E050E06FEF7FEF28
:1018F00080E090E00E94E632B9010CC08F2D90E0AC
:10190000982F88270197622F70E00E94023602C04C
:1019100060E070E0F8014C815D81CF01801B910B8C
:101920008417950740F44081469FC001479F900D62
:1019300011249193F0CFFF82DF91CF911F910F91EE
:10194000FF9008950F931F93DC0112968D919C9147
:1019500013976817790708F043C017968C9117976B
:10196000882361F0489FA0011124452F829F900198
:101970001124232F809F80011124012F1D968C910B
:101980001D971A969C911A971896ED91FC911997AC
:10199000891308C0CB01880F991F680F791F6E0F3C
:1019A0007F1F0AC0660F771F660F771F6E0F7F1F9E
:1019B000FB01E80FF11D10821A968C911A97FB011A
:1019C000E80FF11D40831B968C911B97FB01E80FDC
:1019D000F11D20831C968C91FB01E80FF11D008303
:1019E0001F910F9108951F93CF93DF93EC01162F52
:1019F0008981882331F08E8187FD03C060E00E94D9
:101A00004E211E838981882341F061E0812F0E944D
:101A10004E2160E0812F0E94B913812F90E0FC01DC
:101A2000EE50F44FE491F0E0EE0FFF1FE352F44F5D
:101A3000259134913B8B2A8BFC01EA5FF34FE491B3
:101A4000EC8BDF91CF911F910895CF92DF92EF92AF
:101A5000FF920F931F93CF93DF93CDB7DEB72997F4
:101A60000FB6F894DEBF0FBECDBF8C01DC01189617
:101A70008D919C911997892B09F49EC00E94002298
:101A8000F801C684D784E088F188DC01CB018C1989
:101A90009D09AE09BF09C297A105B10578F3F89475
:101AA000848195819A8389830084F185E02D7F016B
:101AB000BFEFEB1AFB0A80818987F80190810288C9
:101AC000F389E02DD80154968C91992309F430C004
:101AD0009081982B98879081809589238F838F811F
:101AE0008C8388E08B8358856F8149853B812C816D
:101AF00089819A81D701508347FD252F3A9520830C
:101B0000262F39F0441F00C000006083000000C091
:101B1000F2CF38E04D9160830000019761F7D80162
:101B20005396FC93EE93529749873B832C833AC09C
:101B30009081982B98879081809589238F838F81BE
:101B40008E8388E08D8358856F8149853D812E8104
:101B500089819A81D701508347FD252F00C000C09D
:101B6000208300C000C000C000C000C0608300002F
:101B7000262F3A9541F0441F000000C000C000C06D
:101B800000C000C0E8CF38E04D9100C0608300C0C5
:101B9000019709F7D8015396FC93EE935297498722
:101BA0003D832E839A83898378940E940022F801D2
:101BB00066877787808B918B29960FB6F894DEBF66
:101BC0000FBECDBFDF91CF911F910F91FF90EF908E
:101BD000DF90CF900895CF93DF93EC018E8187FD46
:101BE00007C061E00E944E2160E08E810E94B9131F
:101BF00081E08983DF91CF91089528E030E061157D
:101C000071058105910529F4E0E0F0E0099581E096
:101C100008952150310999F780E00895CF93DF931B
:101C2000EA01AB01770F660B770B0E94B31EBE0172
:101C3000DD0F880B990BDF91CF910C9425223F92F9
:101C40004F925F926F927F928F929F92AF92BF92CC
:101C5000CF92DF92EF92FF920F931F93CF93DF9378
:101C60007C01FC0101900020E9F731972F01481A0F
:101C7000590AC0E0D0E084EFC82EDD24D39494E06C
:101C8000692E712C2DE7322EC415D5050CF05BC0E2
:101C9000F701EC0FFD1FE0818FE98E0F873038F4DC
:101CA000EE0FFF0BEE5AFF4F008111814AC0E23761
:101CB00009F445C08EEC8E0F853038F46E2EEE0F91
:101CC000770880E3681A71083CC0EA3379F42196FA
:101CD000F701EC0FFD1F8081082E000C990BC097B7
:101CE000389E6001399ED00C11242BC0E03249F59A
:101CF000B30164507109072E000C880B990B0E94E8
:101D000081319B01AC0160E070E080E090E40E94D2
:101D100078344B015C01B801110F880B990B0E94BC
:101D20008131A50194010E94E0310E943D34DC0123
:101D3000CB018C01A601B6010E940E0E02C000E08C
:101D400010E02196A1CFDF91CF911F910F91FF90CD
:101D5000EF90DF90CF90BF90AF909F908F907F904B
:101D60006F905F904F903F9008952F923F924F92C7
:101D70005F926F927F928F929F92AF92BF92CF921B
:101D8000DF92EF92FF920F931F93CF93DF93CDB724
:101D9000DEB727970FB6F894DEBF0FBECDBF9D8389
:101DA0008C8325E137E03B832A8386EB94E09F8395
:101DB0008E83C12CD12C7601198200E010E0812C99
:101DC000912C5401EA81FB8180813296FB83EA8366
:101DD0000E94E9211C01EE81FF8144885588612C15
:101DE000712C092E000CAA0BBB0B9C01AD01241910
:101DF000350946095709A4E6B0E00E94053322855B
:101E0000338540E050E024193509460957090E94FE
:101E1000E632E4E6F0E0E21BF30B24E630E0DF011B
:101E20000E9416369B01AC01C701B6010E94B43274
:101E3000860E971EA81EB91E0E0F1F1FEE81FF8172
:101E4000808191819F012E5F3F4F3F832E83281613
:101E5000390650F481E090E00C2C01C0880F0A9400
:101E6000EAF73981382B39838FEFC81AD80AE80A84
:101E7000F80A95E0C916D104E104F10409F0A2CFF3
:101E8000E981EE2359F09801110F440B550BC50160
:101E9000B4010E94E632285C310902C028EC30E02F
:101EA000EC81FD8131832083898127960FB6F894D8
:101EB000DEBF0FBECDBFDF91CF911F910F91FF907D
:101EC000EF90DF90CF90BF90AF909F908F907F90DA
:101ED0006F905F904F903F902F9008952F923F9278
:101EE0004F925F926F927F928F929F92AF92BF922A
:101EF000CF92DF92EF92FF920F931F93CF93DF93D6
:101F0000CDB7DEB76B970FB6F894DEBF0FBECDBF6F
:101F10009B8F8A8F1B014A01D22E198708873701B0
:101F2000A982DC0159962D913C915A9721153105D2
:101F300009F0FFC018968D919C9119976817790741
:101F40000CF0E7C11A968D919C911B974817590781
:101F50000CF0DFC1EC2DF0E0FB83EA839B0146E04F
:101F6000C49E200D311D11243D872C8712161306A7
:101F70000CF0CFC16A2D70E07B876A8783E0660F23
:101F8000771F8A95E1F77F876E87CB01880D991DB2
:101F9000181619060CF0BDC158968C91811104C019
:101FA0008FEA8D1508F4D394AA8DBB8DED91FC9129
:101FB00011970284F385E02DCD010995B5E0DB9EF4
:101FC000C0011124EC2DF0E0F98BE88B91012B5F1F
:101FD0003F4F3B8B2A8B3D822C822101AC01421961
:101FE00053095D8B4C8B7981672F70E07F8B6E8BF3
:101FF000C4010896998F888FEC89FD89E40DF51D41
:10200000EB5BFE4FD49054019F828E82D0FE16C0AF
:10201000AA8DBB8DED91FC91B1E0CB1209C0298155
:10202000213031F40484F585E02D2885398519C0E7
:102030000684F785E02DE884F9841DC0488559851C
:102040004615570519F1AA8DBB8DED91FC91B1E0B4
:10205000CB120DC02981213051F40484F585E02D87
:102060009301A501B2018A8D9B8D09950FC006844D
:10207000F785E02D73010A851B852A813B814E81FE
:102080005F816C817D818A8D9B8D0995D6943FEF10
:10209000A31AB30A4E815F816E897F89460F571F4D
:1020A0005F834E83888D998DA816B90609F0AECF4F
:1020B0009FEF491A590AAC81BD81E889F989AE0FB1
:1020C000BF1FBD83AC832A893B894216530609F0A2
:1020D00093CF488559854615570509F4F8C0AA8D50
:1020E000BB8DED91FC91B1E0CB1211C02981213063
:1020F00071F4B1016B5F7F4F0088F189E02D83019E
:1021000028E030E0A4018A8D9B8D0995E0C06C85A4
:102110007D854A815B81641B750B0684F785E02D04
:1021200073010E851F859A01A4018A8D9B8D0995E7
:10213000CEC0F9013496E491DE1AF9013296859108
:102140009491B7E0DB9E800D911D1124F90125913A
:1021500034913B8B2A8BFC01259134915901FC0170
:1021600032965490319634913C87329674903196E1
:10217000149141E04C1518F05981523068F0672DE8
:10218000072C000C770B7D836C83812F012E000CB4
:10219000990B9B838A8304C01B821A821D821C8236
:1021A000AA8DBB8DED91FC9111970284F385E02DF2
:1021B000CD010995412CD12C612CF981EF2FF0E054
:1021C000FF83EE832C2D30E03B872A87A401410F4B
:1021D000511D17FD5A955F8B4E8BB101670D711D17
:1021E00077FC7A95798F688F7C85671608F06FC0C9
:1021F000262D30E04A815B81420F531FAE81BF81A3
:10220000A49FC001A59F900DB49F900D1124F401CF
:10221000E80FF91FF98BE88B842D712C4E895F89AB
:10222000420F531F5D8B4C8B751408F04DC051E06D
:10223000580F5E87877041F4C5010196EA89FB89D2
:10224000EA0DFB1DD4905C01D7FE3AC061E0C612D6
:1022500016C07981713099F4AA8DBB8DED91FC91F6
:1022600011970484F585E02D288539854C895D8991
:10227000688D798D670D711DCD01099521C08C8107
:102280009D81870D911DEA85FB858E9FB0018F9FF3
:10229000700D9E9F700D1124620D731DAA8DBB8D54
:1022A000ED91FC9111970684F785E02DE884F9847F
:1022B0000E811F812A853B8548895989CD01099561
:1022C000DD0C73948E85B0CF450C63948DCFAA8DB1
:1022D000BB8DED91FC9111970688F789E02DCD011A
:1022E0006B960FB6F894DEBF0FBECDBFDF91CF91D6
:1022F0001F910F91FF90EF90DF90CF90BF90AF9024
:102300009F908F907F906F905F904F903F902F9015
:1023100009946B960FB6F894DEBF0FBECDBFDF9168
:10232000CF911F910F91FF90EF90DF90CF90BF90D2
:10233000AF909F908F907F906F905F904F903F9065
:102340002F900895CF93DF93282F30E0F901EF5CB1
:10235000FE4F8491F901EA5FF34FD491F901EE50F9
:10236000F44FC491CC2391F081110E942521EC2FD0
:10237000F0E0EE0FFF1FE851F44FA591B491EC91FE
:10238000ED2381E090E021F480E002C080E090E065
:10239000DF91CF9108952F923F924F925F926F926B
:1023A0007F928F929F92AF92BF92CF92DF92EF92E5
:1023B000FF920F931F93CF93DF9384EB95E090935D
:1023C000AD028093AC022090B105312C3092AF0267
:1023D0002092AE0280917E0690E09093B1028093AD
:1023E000B0028091AD05853009F0C7C08091B60577
:1023F0009091B705885891098D35910588F48091A1
:10240000B105843041F48091B8059091B905809769
:10241000479708F44BC18091B105843408F02DC171
:1024200026E0221631040CF4A3C0CAEBD5E003E089
:1024300010E075ECC72E7DE9D72E7CE1E72E71E820
:10244000F72E021513050CF04EC068817981FE014C
:102450003497A080B18080E090E00E947F312B0112
:102460003C01B50180E090E00E947F314B015C01AE
:102470002DEC3CEC4CE45FE30E94E0319B01AC01AD
:10248000C301B2010E947A3187FD17C02DEC3CECEC
:102490004CE45FE3C301B2010E94E0319B01AC0157
:1024A000C501B4010E947A31E82F880FFF0BEE2797
:1024B000FF0FEE1FFF27319602C0E0E0F0E0A7011A
:1024C000960163E971E080E091E00E94B4326F010F
:1024D000FF0FEE08FF08C626D726E826F9260F5F6D
:1024E0001F4F2296AECFC092A602D092A702E092D2
:1024F000A802F092A90280E290E09093AB02809350
:10250000AA028FEF9FEF9093A3028093A2026091A3
:10251000A6027091A7028091A8029091A9026F3F34
:102520002FEF72078207920719F1609305017093EC
:10253000060180930701909308010E94FD0D81110F
:1025400017C066E072E080EE94E00E941A0B609182
:10255000050170910601809107019091080140E109
:102560000E940D1C6FE272E080EE94E00E94050B69
:1025700082E08093AD051092B1050E94D016892BA0
:10258000D1F10E945F22009105071091060720916A
:10259000070730910807DC01CB01801B910BA20BD0
:1025A000B30B85369105A105B10528F16AE07EEEF1
:1025B00080EE90E00E94FD0D811113C062E172E097
:1025C00080EE94E00E941A0B40E16AE07EEE80EE1D
:1025D00090E00E940D1C6FE272E080EE94E00E9499
:1025E000050B0E945F226093050770930607809396
:1025F00007079093080788E00E94A211892B09F031
:10260000A5C00E945F220091050710910607209146
:10261000070730910807DC01CB01801B910BA20B4F
:10262000B30B85369105A105B10508F48FC06BE0A9
:102630007EEE80EE90E00E94FD0D811113C062E1FC
:1026400072E080EE94E00E941A0B40E16BE07EEEB7
:1026500080EE90E00E940D1C6FE272E080EE94E04C
:102660000E94050B0E945F22609305077093060786
:10267000809307079093080769C08091B8059091EF
:10268000B905825491098E9708F0CACE20E030E057
:1026900080E090E0DC01F901E654FA4F408151817D
:1026A0004950510949305105F8F0BACE8091BA0528
:1026B0009091BB050997099708F0ADCE1092AB0237
:1026C0001092AA028FEF9FEFDC018093A6029093F5
:1026D000A702A093A802B093A90283E090E0909390
:1026E000A3028093A20244CFF901E454FA4F40813F
:1026F00051814751510942315105D8F4880F991F32
:10270000AA1FBB1F81602C5F3F4F2038310519F68F
:1027100020E230E03093AB022093AA028093A6021D
:102720009093A702A093A802B093A90283E090E03F
:10273000EACE40815181465051094730510508F099
:102740006FCE880F991FAA1FBB1FDDCFDF91CF91DE
:102750001F910F91FF90EF90DF90CF90BF90AF90BF
:102760009F908F907F906F905F904F903F902F90B1
:1027700008951F93CF93DF93282F30E0F901EF5C8A
:10278000FE4F8491F901EA5FF34FD491F901EE50C5
:10279000F44FC491CC23C1F0162F81110E94252142
:1027A000EC2FF0E0EE0FFF1FE352F44FA591B49130
:1027B0009FB7F894111104C08C91D095D82302C012
:1027C000EC91DE2BDC939FBFDF91CF911F91089599
:1027D000CF93C091AB05880FCC2351F00E94A21675
:1027E000811102C082E001C080E08093AC0507C087
:1027F0000E94B016811101C0C2E0C093AC0581E017
:102800008093AB05CF9108950F931F93CF93DF93E0
:102810008091AB060E94E81360E08DE795E00E948E
:102820007316CBE9D6E08E0168818DE795E00E94B2
:1028300073162296F80161818DE795E00E94731668
:10284000F6E0CB3ADF0779F70E9489161092AB05C4
:102850001092AC05DF91CF911F910F9108950F93C6
:102860001F93CF93DF9300E816E080E7F80183A77A
:10287000CDE7D5E01CA61DA61FA61EA60E94B81671
:10288000F80183A50E94E81361E2CE010E9473164D
:102890000E9489161EA61FA6F80183A50E94E813B0
:1028A00061E8CE010E9473160E9489161EA61FA61B
:1028B000F80183A50E94E8136FEECE010E94731603
:1028C0000E9489161EA61FA6DF91CF911F910F911E
:1028D0000895DC01ED91FC910084F185E02D0994CF
:1028E0002F923F924F925F926F927F928F929F9220
:1028F000AF92BF92CF92DF92EF92FF920F931F930E
:10290000CF93DF9300D000D000D0CDB7DEB72C013D
:102910007E836D836A015901C801FC82EB82480104
:10292000841A950A97FE03C0919481949108350109
:102930002D813E81621A730A77FE03C071946194FF
:102940007108681479045CF43A2D2B2D5C01832FF7
:10295000922F3D812E81DE82CD82C32ED22EAD817B
:10296000BE81AA16BB065CF43C2D2D2D6C01832F75
:10297000922F3D812E81BE82AD82A32EB22E850183
:102980002D813E81021B130B1C012C183D0837FEC4
:1029900003C0319421943108780117FF03C03FEF41
:1029A000E31AF30AF594E794C816D9062CF08FEFD2
:1029B0009FEF9A83898304C0A1E0B0E0BA83A98322
:1029C0002D813E81A216B30624F1D201ED91FC9136
:1029D0000484F585E02D2B813C816814790424F46E
:1029E0004D815E81B60103C0A6016D817E81C20169
:1029F0000995E218F308F7FE06C029813A81C20E54
:102A0000D31EE00EF11E8D819E8101969E838D83E3
:102A1000D7CF26960FB6F894DEBF0FBECDBFDF919D
:102A2000CF911F910F91FF90EF90DF90CF90BF90CB
:102A3000AF909F908F907F906F905F904F903F905E
:102A40002F90089548305105F0F460317105D8F4A5
:102A5000440F551FFC01E40FF51F81E090E002C018
:102A6000880F991F6A95E2F7232B29F0238D348D67
:102A7000822B932B06C080959095238D348D8223D5
:102A80009323948F838F08950895FC0124A535A581
:102A9000231728F4E20FF11D848590E008958FEF4D
:102AA0009FEF0895FC0194A585A5981748F4DF01D0
:102AB000A90FB11D1C962C9130E09F5F94A702C016
:102AC0002FEF3FEFC9010895FC0125A530E084A553
:102AD000A901481B5109CA010895CF92DF92EF92D4
:102AE000FF920F931F93CF93DF936C01EB017B0158
:102AF000E40EF51E00E010E0CE15DF0561F06991EF
:102B0000D601ED91FC910190F081E02DC60109956F
:102B1000080F191FF1CFC801DF91CF911F910F91BD
:102B2000FF90EF90DF90CF90089585ED8093BC00EB
:102B30008091BC0084FDFCCF10924A020895409120
:102B40006104262F30E0240F311D21323105DCF4E1
:102B500020914A022430C9F4FC0180E090E08617FD
:102B600058F4309161042191DC01AF5BBB4FA30F9E
:102B7000B11D2C930196F3CF80916104680F60938F
:102B8000610480E0089581E0089582E00895089549
:102B90000895E0914E0280914D02E81730F4F0E084
:102BA000EF5DFB4F808190E008958FEF9FEF0895D8
:102BB00090914E0280914D02981750F4E92FF0E069
:102BC000EF5DFB4F208130E09F5F90934E0202C08B
:102BD0002FEF3FEFC901089580914D0290E02091C1
:102BE0004E02821B91090895CF93DF93CB01EA0136
:102BF000642F0E949F15CE01DF91CF910895CF934E
:102C0000DF931F92CDB7DEB7698361E0CE010196F5
:102C10000E949F1581E090E00F90DF91CF91089581
:102C200080E090E0089571E0249A2298000000006E
:102C30000000B1D02498AFD0A8940000000000009C
:102C40001C9BA4D0B2F088941A990894771F60F75F
:102C5000249A803011F0229801C0229A00000000CE
:102C6000000099D02498A894000000001C9B8ED0EE
:102C700092D000000000249A872F9927089580E2BF
:102C800008950894881F01C0880FB9F0249A0000A5
:102C90000000000018F40000229802C0229A00C030
:102CA0007AD02498A8940000000000001C9B6ED0ED
:102CB00012F4882712C06FD0E7CF249A00000000DA
:102CC000229869D0992788272498A89400001C9BF3
:102CD0005DD07AF31A9B81E05ED000000000249A58
:102CE000089581E00895CF93DF93EC01862F0E9431
:102CF0004116811106C08FA5811106C083E08FA700
:102D000003C081E090E002C080E090E0DF91CF91CD
:102D10000895249A229A3FD024983DD01C9B36D007
:102D2000229839D008958F938F918F931C9B2ED02A
:102D3000229A31D0A6DF882311F4EBDFF5CF0F9074
:102D400008950895249A27D0229825D0249823D036
:102D50001C9B1CD0229A1FD094DF089581E0089517
:102D60001C9B14D0229A17D08CDF089581E008951F
:102D7000229824982A982C98882799271A9B089596
:102D80001C9B089581E0089581E008951C9BFECF6F
:102D9000A8940895089591E09A95F1F708950895FB
:102DA00087E00E94A21121E030E0892B11F020E0A1
:102DB00030E0C90108951F920F920FB60F921124AF
:102DC0002F933F934F935F936F937F938F939F9333
:102DD000AF93BF93EF93FF938091B900887F8036C4
:102DE00009F49CC068F5883209F45BC090F4803126
:102DF00009F454C038F4882309F4F6C0883009F483
:102E00004DC0F6C0883109F44CC0803209F45DC071
:102E1000EFC0803409F468C048F4803309F455C029
:102E2000883309F0E5C080938404D8C0803509F464
:102E30004FC0883509F45DC0883409F0D9C0D6C0C8
:102E4000883909F4C7C0A8F4883709F467C038F492
:102E5000883609F463C0803709F460C0C9C0883877
:102E600009F4B8C0803909F45FC0803809F0C0C0E7
:102E70005BC0803B09F486C038F4803A09F466C030
:102E8000883A09F47FC0B4C0803C09F4A7C0883CEC
:102E900009F4A4C0883B09F48AC0AAC08091A704A1
:102EA00010C09091A6048091A504981770F5E09148
:102EB000A60481E08E0F8093A604F0E0EB57FB4F51
:102EC00080818093BB0085EC86C0809384048EC093
:102ED000E091A60481E08E0F8093A6048091BB0050
:102EE000F0E0EB57FB4F80839091A6048091A504FE
:102EF0006EC0E091A60481E08E0F8093A6048091BD
:102F0000BB00F0E0EB57FB4F8083809149028111B9
:102F10006DC081E08093480284EA61C083E08093C1
:102F20004A0210928304CFCF80918304803208F04C
:102F300051C0E091830481E08E0F809383048091DF
:102F4000BB00F0E0ED59FB4F8083BDCF85EC809353
:102F5000BC0010924A0280918304803230F4E091E8
:102F60008304F0E0ED59FB4F10826091830470E020
:102F7000E0914402F091450283E694E009951092B5
:102F8000830436C084E080934A0210926204109257
:102F90006104E0914602F091470209958091610435
:102FA000811105C081E08093610410924104E09199
:102FB000620481E08E0F80936204F0E0EF5BFB4FD0
:102FC00080818093BB009091620480916104981786
:102FD00008F479CF85E88093BC000AC085EC809323
:102FE000BC0010924A0204C0109284040E949515FD
:102FF000FF91EF91BF91AF919F918F917F916F91D1
:103000005F914F913F912F910F900FBE0F901F90A6
:1030100018950F931F93CF93DF93880F991FFC018F
:10302000E45DFE4F00811181C8010E94A42FEC01D4
:10303000AC01B80184EB92E00E949B2FCC54DD4F91
:10304000188284EB92E0DF91CF911F910F910C9445
:103050001F0E4F925F926F927F928F929F92AF92CC
:10306000BF92CF92DF92EF92FF92CF93DF9300D087
:1030700000D000D0CDB7DEB782EB92E00E94B50E53
:10308000882311F08F31B1F48091030790910407E8
:103090000196909304078093030764EC7FEF84EC20
:1030A0009FEF0E94491BCE0101960E94B50E8E70C3
:1030B000D1F31AC1813069F46CE370E084EC9FEFC6
:1030C0000E94491BCE0101960E94B50E8E70D1F36D
:1030D0000BC1803169F464EC7FEF8CE390E00E94D7
:1030E000491BCE0101960E94B50E8E70D1F3FCC033
:1030F00020E030E040E05FE36091F7067091F80671
:103100008091F9069091FA060E94E0316B017C01F2
:103110006091B2027091B302072E000C880B990BDC
:103120000E94813120E030E040E05FE30E94E03126
:103130009B01AC01C701B6010E945F334B015C01EA
:103140006093F7067093F8068093F9069093FA0659
:103150002091FB063091FC064091FD065091FE0641
:103160000E945E336B837C838D839E832091FF0658
:10317000309100074091010750910207C501B40149
:103180000E945F336B017C0120E030E048E452ECA8
:103190000E947A3187FD11C020E030E048E452E41B
:1031A000C701B6010E94733418166CF4C12CD12CDF
:1031B00028E4E22E22E4F22E06C0C12CD12C38E401
:1031C000E32E32ECF32EC092FF06D0920007E0927D
:1031D0000107F09202072091090730910A074091F8
:1031E0000B0750910C07C501B4010E94E0312B017F
:1031F0003C0120910D0730910E0740910F0750912F
:103200001007C701B6010E94E0319B01AC01C30168
:10321000B2010E945F336B017C0120911107309154
:10322000120740911307509114076B817C818D81A7
:103230009E810E94E0319B01AC01C701B6010E9452
:103240005F336B017C018092FB069092FC06A0929A
:10325000FD06B092FE0620E030E046E153EC0E940D
:103260007A3187FD27C020E030E046E153E4C70112
:10327000B6010E947334181654F020E030E0A90122
:10328000C701B6010E94733418163CF019C0C12C56
:10329000D12C96E1E92E93E4F92EA701960160E086
:1032A00070E086E193E40E945E330E943D3486E93B
:1032B00090E013C0C12CD12C86E1E82E83ECF82ECF
:1032C00020E030E046E153E4C701B6010E945F33DD
:1032D0000E943D34CB0166E970E00E94491B1092C8
:1032E00004071092030714C080910307909104070C
:1032F0000B9774F060E070E080E090E00E94491B62
:1033000083E190E00E9409181092500210924F023F
:1033100026960FB6F894DEBF0FBECDBFDF91CF91DA
:10332000FF90EF90DF90CF90BF90AF909F908F90E5
:103330007F906F905F904F9008956CE172E080EE07
:1033400094E00E941A0B60E272E080EE94E00C942C
:103350001A0B2F923F924F925F926F927F928F92B1
:103360009F92AF92BF92CF92DF92EF92FF920F9314
:103370001F93CF93DF93CDB7DEB7E6970FB6F894E0
:10338000DEBF0FBECDBF8AE0E2E2F1E0DE011196C2
:1033900001900D928A95E1F75E018BE0A80EB11CB9
:1033A0008AE0F50111928A95E9F7E12CF12CE114FC
:1033B000F10429F46CE370E084EC9FEF08C0F8ECB2
:1033C000EF16F10439F464EC7FEF8CE390E00E9497
:1033D000491B05C088E5E81682E0F80659F395E137
:1033E000292E97E0392EFE013196FCABEBABBEAA3D
:1033F000ADAA45016F01F1018081F2E02F0E311C71
:103400000E94E9218C01F60160817181861797077E
:1034100024F5072E000C880B990B0E94813123E3C1
:1034200033E343E35FE30E94E0312B013C01B80149
:10343000110F880B990B0E9481312AE939E949E97A
:103440005EE30E94E0319B01AC01C301B2010E9426
:103450005F330E943D34F60129C0F401608171811F
:10346000681779072CF5072E000C880B990B0E9422
:10347000813123E333E343E35FE30E94E0312B0137
:103480003C01B801110F880B990B0E9481312AE988
:1034900039E949E95EE30E94E0319B01AC01C301D7
:1034A000B2010E945F330E943D34F4017183608356
:1034B000F2E0CF0ED11C82E0880E911CCA14DB040E
:1034C00009F099CF9FEFE91AF90A65E070E080E012
:1034D00090E00E942522E0E2EE16E3E0FE0609F00D
:1034E00066CF60E070E080E090E00E94491B86EBD0
:1034F000E82E84E0F82E00E010E0EDA9FEA9A190EE
:10350000B190FEABEDABEBA9FCA9C190D190FCABA7
:10351000EBABB5016C197D09072E000C880B990BDC
:103520000E9481312AE939E949E95EE30E94E031EC
:103530002B013C01B6010D2C000C880B990B0E944D
:1035400081319B01AC01C301B2010E945F330E9433
:103550003D342B013C01CE018D960E94C31BB50169
:10356000CE0187960E94C31BB601CE0181960E94B0
:10357000C31BB801CE014B960E94C31B1E8A1D8A35
:10358000188E1F8A1A8E198E62E070E0CE01459661
:103590000E94030A811105C0CE0145960E94580A77
:1035A0000AC082E090E09A8F898F62E372E08D8991
:1035B0009E890E941F38BE01655E7F4FCE014596F1
:1035C0000E94B01B63E372E00E946A0ABE016F5D55
:1035D0007F4F0E94B01B64E072E00E946A0ABE0145
:1035E000695D7F4F0E94B01B65E372E00E946A0A2A
:1035F000BE01635D7F4F0E94B01BFC014481558179
:103600006081718180EE94E00E943E066FE272E07C
:1036100080EE94E00E94050B8D899E890E94BB3646
:103620008B8D9C8D0E94BB3689A19AA10E94BB36CE
:103630008FA198A50E94BB368DA59EA50E94BB3682
:10364000F701419251927F01B186A086D38AC28A46
:103650000F5F1F4F0530110509F04FCF0E94991BD6
:10366000E6960FB6F894DEBF0FBECDBFDF91CF91C7
:103670001F910F91FF90EF90DF90CF90BF90AF9090
:103680009F908F907F906F905F904F903F902F9082
:103690000895CF92DF92EF92FF920F931F93CF93F3
:1036A000DF93EC01072E000C880B990B0E948131EF
:1036B0002091B2043091B3044091B4045091B50408
:1036C0000E94E0310E943D346B017C018B01D7FFE9
:1036D0000AC060E070E085E00E948A2166277727B3
:1036E0006C1B7D0B06C0BE0185E00E948A2160E054
:1036F00070E086E00E948A2117FF0AC066277727BC
:103700006C197D0983E00E948A2160E070E006C0A8
:1037100060E070E083E00E948A21B6018BE0DF91D7
:10372000CF911F910F91FF90EF90DF90CF900C946D
:103730008A210F931F93CF93DF9300EB14E0C0E037
:10374000D0E0F80161918F01CE010E94A63221964E
:10375000C033D105B1F7DF91CF911F910F9108953B
:10376000CF93DF93EC01FB0144815581608171812E
:103770000E942A0A811103C0CE010E94580ACE017C
:10378000DF91CF910895CF92DF92EF92FF920F9346
:103790001F93CF93DF93CDB7DEB762970FB6F89440
:1037A000DEBF0FBECDBF8C01CB01F80111821082AC
:1037B00013821282158214824AE09E012F5F3F4FCE
:1037C0006901B9010E94D42FF60101900020E9F7A8
:1037D00031977F01EC18FD08B701C8010E94030A68
:1037E000811104C0C8010E94580A08C0F801F5827E
:1037F000E482B601808191810E941F3862960FB6E3
:10380000F894DEBF0FBECDBFDF91CF911F910F9116
:10381000FF90EF90DF90CF9008958F929F92AF929C
:10382000BF920F931F93CF93DF93CDB7DEB7A197CE
:103830000FB6F894DEBF0FBECDBF19A2423008F418
:103840004AE08E010F5D1F4F842E912CA12CB12CCC
:10385000A50194010E94C432E62FB901CA010150AA
:103860001109EA3014F4E05D01C0E95CD801EC9381
:10387000232B242B252B61F7B80180EE94E00E94C6
:10388000050BA1960FB6F894DEBF0FBECDBFDF913A
:10389000CF911F910F91BF90AF909F908F900895FF
:1038A000CF92DF92EF92FF92CF93DF936C01990F4B
:1038B000EE08FF08F7FE19C06DE280EE94E00E946A
:1038C000D106EC0166277727CB016C197D098E099B
:1038D0009F094AE00E940D1C8C0F9D1FDF91CF9124
:1038E000FF90EF90DF90CF9008954AE0C701B601B6
:1038F000DF91CF91FF90EF90DF90CF900C940D1C53
:10390000CF93DF930E94501CEC016FE272E080EED7
:1039100094E00E94050B8C0F9D1FDF91CF910895BD
:10392000CF92DF92EF92FF920F931F93CF93DF938B
:10393000EC01FC01EE0FFF1FEB5EF84F80810E944F
:10394000E921FE01EE0FFF1FE653FB4FC080D1803F
:103950000D2C000CEE08FF08092E000CAA0BBB0B67
:103960009C01AD012C193D094E095F09A8EEB3E099
:103970000E940533CC0FDD1FC054DB4F28813981F5
:103980008901330F220B330BA90198012C193D0932
:103990004E095F090E94E632C901DF91CF911F9164
:1039A0000F91FF90EF90DF90CF9008958F929F92AC
:1039B000AF92BF92CF92DF92EF92FF920F931F933D
:1039C000CF93DF936B017C01142F9B01AC010E940C
:1039D000C834882319F068E372E027C04601570114
:1039E000E894B7F82FEF3FEF4FE75FE7C501B40169
:1039F0000E94C83481110DC02FEF3FEF4FE75FE702
:103A0000C501B4010E947A3118161CF46CE372E00F
:103A10000CC02FEF3FEF4FE75FE4C701B6010E94F4
:103A20007334181694F460E472E080EE94E0DF9151
:103A3000CF911F910F91FF90EF90DF90CF90BF90AB
:103A4000AF909F908F900C94050B2FEF3FEF4FE7B7
:103A50005FECC701B6010E947A3187FDE4CF20E018
:103A600030E0A901C701B6010E947A3187FF0BC07F
:103A70006DE280EE94E00E94D106EC01F7FAF0943A
:103A8000F7F8F09402C0C0E0D0E000E060E070E041
:103A900080E09FE3101741F020E030E040E251E485
:103AA0000E94CB330F5FF6CFA70196010E945F33D0
:103AB0006B017C010E9444344B015C014AE00E948E
:103AC0000D1CC80FD91F1123B9F1C501B4010E9403
:103AD0007F319B01AC01C701B6010E945E336B01CF
:103AE0007C016EE280EE94E00E94D106C80FD91FDF
:103AF00020E030E040E251E4C701B6010E94E0312D
:103B00004B015C010E9444346B01E12CF12C4AE032
:103B1000C701B6010E940D1CC80FD91FC701B6010D
:103B20000E947F319B01AC01C501B4010E945E334C
:103B30006B017C011150E1F6CE01DF91CF911F9115
:103B40000F91FF90EF90DF90CF90BF90AF909F903C
:103B50008F900895CF93DF9342E00E94D61CEC0132
:103B60006FE272E080EE94E00E94050B8C0F9D1FC7
:103B7000DF91CF9108950F931F93CF93DF938C0123
:103B8000EB0161E08CE00E944E2161E08AE00E943E
:103B90004E2161E0012B09F060E08AE00E94B91338
:103BA00061E0CD2B09F060E08CE0DF91CF911F91B7
:103BB0000F910C94B913CF92DF92EF92FF920F9373
:103BC0001F93CF93DF9361E08CE00E944E2161E070
:103BD0008CE00E94B91383E290E00197F1F760E076
:103BE0008CE00E944E21C0E0D0E08CE00E94A21147
:103BF000019711F42196F9CFE2E1FCE06491EEEF38
:103C0000FBE0E491F0E0EE0FFF1FE851F44F8591E7
:103C1000949100EE13E924E030E0462F0E94B52293
:103C2000611571058105910539F0DC01CB01019623
:103C3000A11DB11DBF7003C080E090E0DC01BC019C
:103C400080E090E00E947F312DEC3CEC48E652E4AD
:103C50000E94CB336B017C012A9790F420E030E086
:103C600040EC50E40E947334181654F42AE037ED07
:103C700043EA5FE3C701B6010E94E0316B017C01BA
:103C800020E030E0A901C701B6010E947A3181111C
:103C900007C0C12C80ECD82E89E7E82E84E4F82EEA
:103CA000C701B601DF91CF911F910F91FF90EF9067
:103CB000DF90CF900895EDEAF5E08181F8941092BD
:103CC000800089E08093810080E293E090938900F6
:103CD00080938800109285001092840082E0809387
:103CE0006F00789480831482818160E00E944E216D
:103CF00081E080937F060895209180002F772093A4
:103D00008000009751F0BC0180E090E065307105C3
:103D10008105910510F00C94740B0895209180009A
:103D2000206820938000009751F0BC0180E090E073
:103D3000653071058105910510F00C94740B0895A0
:103D4000CF93DF93BC0180EE94E00E94050BEC0161
:103D50006FE272E080EE94E00E94050B8C0F9D1FD5
:103D6000DF91CF9108954F925F926F927F928F92E1
:103D70009F92AF92BF92CF92DF92EF92FF920F93FA
:103D80001F93CF93DF9300D000D01F92CDB7DEB743
:103D90008C012A013B0180910901843021F08F3F81
:103DA00009F03DC205C0E7EEFBE024912D8372C00F
:103DB00084E080930901E7EEFBE084918D838F3FDF
:103DC00009F42DC2813009F441C038F1823009F084
:103DD00061C01092B0001092B1008091B00082607A
:103DE0008093B0008091B10081608093B100E6EFD4
:103DF000FBE0E491F0E0EE0FFF1FE352F44F8591FA
:103E000094919093AA048093A904EAE0FCE0E491E1
:103E1000E093A80422E02D83FDC114BC15BC84B539
:103E2000826084BD85B5816085BDE6EFFBE0E491ED
:103E3000F0E0EE0FFF1FE352F44F85919491EAE01A
:103E4000FCE0E491E093DE071D82E4C11092800063
:103E50001092810080918100886080938100809120
:103E60008100816080938100E6EFFBE0E491F0E067
:103E7000EE0FFF1FE352F44F85919491EAE0FCE0CE
:103E8000E491E093DD0761E084E00E944E2191E03F
:103E90009D838AC08D8187FDC2C161E084E00E945C
:103EA0004E218D818D7F09F07FC04801A12CB12C5E
:103EB00060E072E18AE790E0A50194010E94E63299
:103EC00029833A834B835C8369017A0191E0C91AA3
:103ED000D108E108F1082FEFC216D104E104F10482
:103EE00009F008F44EC060E472E48FE090E0A501B0
:103EF00094010E94E63269017A0181E0C81AD10872
:103F0000E108F1089D81923009F52FEFC216D10426
:103F1000E104F10409F008F444C160E970ED83E0C4
:103F200090E0A50194010E94E63269017A0181E0E6
:103F3000C81AD108E108F1089FEFC916D104E104BD
:103F4000F10411F008F0BAC083E027C02FEFC216C9
:103F5000D104E104F104B9F0B0F068E478EE81E056
:103F600090E0A50194010E94E63269017A0181E0A6
:103F7000C81AD108E108F1089D81992309F413C1F9
:103F8000DCC081E001C082E09D81911106C095B541
:103F9000987F892B85BD44C085E09091B100987FC2
:103FA000892B8093B1003CC04801A12CB12C60E06A
:103FB00072E18AE790E0A50194010E94E63269016E
:103FC0007A0181E0C81AD108E108F108C114D104CE
:103FD00091E0E906F10488F068E478EE81E090E091
:103FE000A50194010E94E63269017A0181E0C81AB4
:103FF000D108E108F10883E001C081E09D819130A2
:1040000079F490918100987F892B809381004114ED
:1040100051046104710449F42FEF3FEFA9012CC052
:10402000411451046104710471F0D801AA0FBB1F3F
:10403000A30192010E94053328EE33E040E050E0F6
:104040000E94C43203C02FEF3FEFA9018D81813060
:1040500099F0823019F18111E2C0C7BC2093E307C7
:104060003093E4074093E5075093E60780916E0094
:10407000826080936E00D3C0D0928900C092880085
:104080002093DF073093E0074093E1075093E20766
:1040900080916F00826080936F00C1C0C092B300B6
:1040A0002093AB043093AC044093AD045093AE0422
:1040B00080917000826080937000B1C068E478EEF7
:1040C00081E090E0A50194010E94E63269017A0145
:1040D00091E0C91AD108E108F1082FEFC216D10406
:1040E000E104F10441F138F164E274EF80E090E022
:1040F000A50194010E94E63269017A0181E0C81AA3
:10410000D108E108F1089FEFC916D104E104F104D8
:1041100009F008F441CF62E17AE780E090E0A50180
:1041200094010E94E63269017A0181E0C81AD1083F
:10413000E108F10819C084E030CF2FEFC216D10496
:10414000E104F10409F008F463C062E17AE780E079
:1041500090E0A50194010E94E63269017A0191E0A4
:10416000C91AD108E108F1088FEFC816D104E1049B
:10417000F104A9F0A0F089819A81AB81BC812AE089
:10418000B595A795979587952A95D1F76C017D01EF
:1041900021E0C21AD108E108F10887E0FECE86E0EE
:1041A000FCCE82E0FACE8FEFC816D104E104F10410
:1041B00069F160F162E17AE780E090E0A5019401A5
:1041C0000E94E63269017A0191E0C91AD108E1083A
:1041D000F1082FEFC216D104E104F104A9F0A0F018
:1041E00089819A81AB81BC813AE0B595A795979575
:1041F00087953A95D1F76C017D0121E0C21AD1086B
:10420000E108F10885E0C3CE84E0C1CE83E0BFCEF3
:1042100084E0BACE61E084E00E944E2146CE0F9049
:104220000F900F900F900F90DF91CF911F910F91F2
:10423000FF90EF90DF90CF90BF90AF909F908F90C6
:104240007F906F905F904F900895833081F028F4B5
:10425000813099F08230A1F008958730A9F088303C
:10426000B9F08430D1F4809180008F7D03C08091BB
:1042700080008F7780938000089584B58F7702C087
:1042800084B58F7D84BD08958091B0008F7703C081
:104290008091B0008F7D8093B0000895CF93DF931D
:1042A00090E0FC01EA5FF34F2491FC01EE50F44FE3
:1042B0008491882361F190E0880F991FFC01E65EEC
:1042C000F34FC591D491FC01E352F44FA591B49101
:1042D000611109C09FB7F894888120958223888353
:1042E000EC912E230BC0623061F49FB7F894888163
:1042F000322F309583238883EC912E2B2C939FBFF4
:1043000006C08FB7F894E8812E2B28838FBFDF91EA
:10431000CF9108951F93CF93DF93182FEB0161E0A6
:104320000E944E21209711F460E004C0CF3FD105D8
:1043300039F461E0812FDF91CF911F910C94B91373
:10434000E12FF0E0EF5CFE4FE491E330F9F048F448
:10435000E130B9F0E230A1F584B5806284BDC8BD1A
:1043600034C0E730E9F0E83019F1E43049F58091E4
:104370008000806280938000D0938B00C0938A007D
:1043800024C084B5806884BDC7BD1FC080918000F3
:10439000806880938000D0938900C093880015C006
:1043A0008091B00080688093B000C093B3000DC0CE
:1043B0008091B00080628093B000C093B40005C0CB
:1043C000C038D1050CF0B5CFAFCFDF91CF911F91A1
:1043D00008958E3008F08E508770806480937C0042
:1043E00080917A00806480937A0080917A0086FDC3
:1043F000FCCF809178002091790090E0922B089575
:104400003FB7F8948091EC079091ED07A091EE07EB
:10441000B091EF0726B5A89B05C02F3F19F0019674
:10442000A11DB11D3FBFBA2FA92F982F8827820F3A
:10443000911DA11DB11DBC01CD0142E0660F771F8A
:10444000881F991F4A95D1F708958F929F92AF9236
:10445000BF92CF92DF92EF92FF926B017C010E949C
:1044600000224B015C01C114D104E104F104F1F01C
:104470000E940022DC01CB0188199909AA09BB0915
:10448000883E9340A105B10570F321E0C21AD1081E
:10449000E108F10888EE880E83E0981EA11CB11C8B
:1044A000C114D104E104F10419F7DDCFFF90EF90BE
:1044B000DF90CF90BF90AF909F908F9008952FB7CF
:1044C000F8946091E8077091E9078091EA0790916C
:1044D000EB072FBF08951F920F920FB60F92112472
:1044E0002F933F938F939F93AF93BF938091E80750
:1044F0009091E907A091EA07B091EB073091E707A7
:1045000023E0230F2D3720F40196A11DB11D05C016
:1045100026E8230F0296A11DB11D2093E707809383
:10452000E8079093E907A093EA07B093EB0780911F
:10453000EC079091ED07A091EE07B091EF0701967F
:10454000A11DB11D8093EC079093ED07A093EE079A
:10455000B093EF07BF91AF919F918F913F912F91B2
:104560000F900FBE0F901F901895CF92DF92EF9291
:10457000FF920F931F93E82FF92F05C001501109E7
:104580002109310961F1908196239417B9F305C08F
:10459000015011092109310911F1908196239413D9
:1045A000F7CFC12CD12CE12CF12C0AC08FEFC81A07
:1045B000D80AE80AF80A0C151D052E053F0579F002
:1045C00080818623841791F36C2D7D2D8E2D9F2D58
:1045D0001F910F91FF90EF90DF90CF90089560E0D2
:1045E00070E080E090E01F910F91FF90EF90DF90DE
:1045F000CF900895CF93DF93CDB7DEB76C970FB60A
:10460000F894DEBF0FBECDBF789484B5826084BDC0
:1046100084B5816084BD85B5826085BD85B58160C6
:1046200085BD80916E00816080936E001092810044
:1046300080918100826080938100809181008160FF
:1046400080938100809180008160809380008091C0
:10465000B10084608093B1008091B000816080934C
:10466000B00080917A00846080937A0080917A0013
:10467000826080937A0080917A00816080937A00D2
:1046800080917A00806880937A001092C100109225
:104690004E0210924D0210924C0210924B02109258
:1046A0004A0281E0809349021092480261E082E16F
:1046B0000E94B91361E083E10E94B9138091B900AF
:1046C0008E7F8093B9008091B9008D7F8093B9006F
:1046D00088E48093B80085E48093BC0087EC95E182
:1046E000909347028093460288EC95E190934502AF
:1046F00080934402E091F004F091F10482E0808321
:10470000E091EC04F091ED041082E091EE04F09160
:10471000EF0480E180831092F804E091F404F091BA
:10472000F50486E08083E091F204F091F304808147
:1047300080618083E091F204F091F30480818860CD
:104740008083E091F204F091F3048081806880839B
:10475000E091F204F091F30480818F7D808360E02A
:1047600070E086E00E948A2160E070E085E00E94AF
:104770008A2160E070E08BE00E948A2160E070E0B6
:1047800083E00E948A2161E08CE00E944E2161E07A
:104790008AE00E944E2162E087E00E944E2162E0A2
:1047A00088E00E944E2186ED96E00E94EB0D6DE0C0
:1047B00086ED96E00E94F30C64E686ED96E00E949A
:1047C000610C81EC96E00E94EB0D6AE081EC96E0D2
:1047D0000E94F30C64E681EC96E00E94610C8CEA86
:1047E00096E00E94EB0D6CE08CEA96E00E94F30CE0
:1047F00064E68CEA96E00E94610C90EBE92E94E06E
:10480000F92E00E010E0C8010E949E32D7018D937E
:104810007D010F5F1F4F00331105A9F78091B00490
:104820009091B104873C944089F180E1E0EBF4E0A1
:10483000DF011D928A95E9F787EC94E09093B1042B
:104840008093B00480E090E0A0E8BFE38093B204DE
:104850009093B304A093B404B093B50488E790E0B8
:104860009093B7048093B6049093B9048093B804EE
:104870009093BB048093BA049093BD048093BC04CE
:104880009093BF048093BE040E94991B00E020E037
:1048900040E060E070E086ED96E00E94A20C20E02F
:1048A00040E061E070E086ED96E00E94A20C86EDAB
:1048B00096E00E94250D60E070E080E090E00E94AC
:1048C000BB1D0E945B1E0E945F22609305077093D0
:1048D00006078093070790930807EFE1F7E080E071
:1048E00090E02081222309F4C5C7019673968A308F
:1048F0009105B9F70E949D19FE0131961F013E01F5
:10490000F3E06F0E711C80914F029091500200975E
:1049100009F05CC00E94D0160197E9F582E190E0B1
:104920000E9409180E94D016019799F44CE251E0B8
:1049300068EC70E088EE93E00E940E0E4CE251E0CD
:1049400068EC70E088EE93E00E940E0E0E94A919B8
:1049500022C010920407109203071092F7061092DB
:10496000F8061092F9061092FA061092FB061092C1
:10497000FC061092FD061092FE061092FF061092A1
:104980000007109201071092020782E090E09093D6
:10499000500280934F0288E00E94A211892B51F4AB
:1049A0008EE090E00E94091883E090E0909350021E
:1049B00080934F020E94CB112E0125E0420E511C24
:1049C000AE01495F5F4F5C874B87FDC08230910528
:1049D00009F063C00E945F226B017C010FE117E0C8
:1049E000D8018C91882309F450C01D964D915D919A
:1049F0006D917C91509746015701841A950AA60A39
:104A0000B70A11964D915D916D917C911497841622
:104A10009506A606B70618F1813019F0823041F0EC
:104A200014C0D8011996ED91FC911A9709950DC003
:104A300061E0F8018085811160E0D80118966C93DF
:104A4000189717968C910E94B913F801C586D686DF
:104A5000E786F08A818992890196928B818BD801B1
:104A600015968D919C91169797FD0FC051962D919B
:104A70003C9152972817390744F01C921B96ED91F0
:104A8000FC911C97309709F009950D5E1F4FB7E018
:104A90000D3D1B0709F0A4CF8FCF039709F08ACFF4
:104AA0000E94DB1D20E030E040E251E40E947A31B8
:104AB00087FF23C060E070E080E090E00E94491B27
:104AC00064E170E080E090E00E94252264E670E0FE
:104AD0008CE99FEF0E94491B0E94DB1D20E030E023
:104AE00040E251E40E947A3187FF39C062E370E00E
:104AF00080E090E00E942522EFCF0E94032E4B0120
:104B00005C010E94032E6D877E878F87988B84E6D9
:104B1000C82ED12CE12CF12CC501B401A7019601BE
:104B20000E94E6324B015C01E2E38E0E911CA11C57
:104B3000B11C6D857E858F859889A70196010E949D
:104B4000E632DC01CB01C296A11DB11DB4010E9469
:104B5000491B64E170E080E090E00E94252288E03B
:104B60000E94A211892B09F027CF109250021092B7
:104B70004F0260E070E080E090E00E94491B8CE012
:104B800090E00E94091818CF80EE94E00E949906E8
:104B9000892B09F46CC680EE94E00E947706A09100
:104BA000A102E1E0EA0FE093A1020A2E000CBB0B88
:104BB000AF59BD4F8C938A3079F08091A102803437
:104BC0001CF31092A1021CEE812E11E0912E0FEE2B
:104BD000A02E01E0B02ED8CF0E2E000CFF0BEF5907
:104BE000FD4F1082809161028D3409F037C682E654
:104BF00092E00E94742F8C01AE01475F5F4F64E02A
:104C000072E082E692E00E94AD2F0331110509F4B3
:104C1000F7C30CF0D6C00830110509F49DC294F515
:104C20000330110509F4F1C194F40130110509F4C0
:104C30009AC10CF0B9C1012B09F010C60E949D1950
:104C400081E090E09093500280934F0207C60530B8
:104C5000110509F455C20CF42EC20630110509F4F1
:104C600068C20730110509F0F9C50E94DB1D6B0110
:104C70007C016CEC71E080EE94E00E941A0BC7019D
:104C8000B60186C20D30110509F43DC30CF056C0C3
:104C90000A30110509F4A1C20CF47DC20B301105D4
:104CA00009F4D8C20C30110509F0D8C53F922F92F3
:104CB00082EE91E09F938F938A858F9389858F935E
:104CC0000E94263889819A819C01990F440B550BCB
:104CD0002D873E874F87588B10926F0061E089E0E7
:104CE0000E944E2160E089E00E94B91382E0809327
:104CF000800081E18093810082ED90E090938700B5
:104D00008093860086E490E09093890080938800E9
:104D100088E293E20E948E1E84E991E10E947C1E4B
:104D20000F900F900F900F900F900F9000E210E0F7
:104D3000C12CD12CE12CE0E8FE2EB1C200311105CE
:104D400009F41CC3FCF40E30110509F087C53F922D
:104D50002F92BF92AF928A858F9389858F930E94FD
:104D600026381981612F86ED96E00E94610C612F33
:104D700081EC96E00E94610C612F8CEA96E00E9423
:104D8000610C63C50131110509F435C30231110508
:104D900009F064C53F922F927F926F929F928F92FB
:104DA0008A858F9389858F930E94263849815A81FD
:104DB000052E000C660B770B8B819C810E94B31E25
:104DC0001EC50232110509F4ABC40CF06BC00731EB
:104DD000110509F46BC4ACF40531110509F4B3C332
:104DE0000CF01FC409851A85F80101900020E9F72D
:104DF00031977F01E01AF10A0E942F14EBE9F6E0E7
:104E00003AC30F31110509F456C4BCF50E31110532
:104E100009F024C53F922F927F926F925F924F923A
:104E200049EE51E05F934F938A858F9389858F93E5
:104E30000E94263809811A81FB80ED8061E08CE0B8
:104E40000E944E2161E08AE00E944E216E2D8CE08E
:104E50000E94B9136F2D8AE00E94B913B801110F97
:104E6000880B990B0E94252261E08CE00E94B91307
:104E700061E08AE00E94B913C2C40032110509F44E
:104E800041C40132110509F0E9C410925002109298
:104E90004F0260E070E080E090E00E94491B83E1F7
:104EA00090E03BC4023D110509F496C48CF5093C21
:104EB000110509F452C4ACF4083C110509F0CEC444
:104EC0003F922F927F926F929F928F928A858F93BB
:104ED00089858F930E94263869817A818B819C8194
:104EE0008CC40A3C110509F44EC4013D110509F0BA
:104EF000B5C489859A850E94702F6093B20470931F
:104F0000B3048093B4049093B5040E94991BA6C483
:104F1000073D110509F479C4D4F4063D110509F0E3
:104F20009DC43F922F927F926F929F928F928A851B
:104F30008F9389858F930E94263889819A81880F63
:104F4000991F2B813C81BC01621B730B54C4063337
:104F5000F1E01F0709F480C4073E134009F07EC446
:104F60000C9400007BC43F922F92BF92AF928A852F
:104F70008F9389858F930E94263889819A810E9418
:104F8000901C8C0160EC71E080EE94E00E941A0BA2
:104F900089819A810E94501C64E072E080EE94E066
:104FA0000E941A0BC801A9C064EC71E080EE94E085
:104FB0000E941A0B6091090770910A0780910B07F4
:104FC00090910C0742E00E94D61C64E072E080EEF3
:104FD00094E00E941A0B60910D0770910E0780916A
:104FE0000F079091100742E00E94D61C64E072E027
:104FF00080EE94E00E941A0B6091110770911207E5
:105000008091130790911407C3C009851A851A83EC
:105010000983012B59F1A10164E072E080E090E086
:105020000E94AD2F8C01DC018C91803549F4C801C0
:1050300001960E94702F698B7A8B8B8B9C8BE9CFAA
:10504000893449F4C80101960E94702F6D8B7E8BC4
:105050008F8B988FDECF8434E1F6C80101960E94D1
:10506000702F698F7A8F8B8F9C8FD3CF29893A8944
:105070004B895C892093090730930A0740930B07FB
:1050800050930C078D899E89AF89B88D80930D0749
:1050900090930E07A0930F07B0931007298D3A8DB8
:1050A0004B8D5C8D209311073093120740931307AB
:1050B00050931407D3C33F922F92BF92AF928A8529
:1050C0008F9389858F930E94263868EC71E080EE7B
:1050D00094E00E941A0B89819A810E94501C64E01E
:1050E00072E080EE94E00E941A0BE981FA81EE0FE3
:1050F000FF1FEA54FB4F808191810E94801CA5C351
:105100003F922F927F926F929F928F928A858F9378
:1051100089858F930E942638EB81FC81EE0FFF1F5B
:10512000EA54FB4F89819A81918380830E94991B65
:1051300066C33F922F927F926F929F928F928A8541
:105140008F9389858F930E94263869817A818B811C
:105150009C810E94BB1D53C385E10E94E9218C0103
:1051600060ED71E080EE94E00E941A0BB801110F1F
:10517000880B990B0E94813120E030E040E85AE32F
:105180000E94E03126E636E646EA50E40E94E0312D
:105190000E94AA1D63C389859A850E94742F8C0181
:1051A00064ED71E080EE94E00E941A0B013011056D
:1051B00019F40E94D0164BC00230110559F488E052
:1051C0000E94A21131E020E0892B09F030E0832F0A
:1051D000922F3DC08FEF9FEF3AC068ED71E080EEF7
:1051E00094E00E941A0B80E090E00E94901C0E94C4
:1051F000501C64E072E080EE94E00E941A0B81E0A3
:1052000090E00E94901C0E94501C64E072E080EECE
:1052100094E00E941A0B82E090E00E94901C0E9491
:10522000501C64E072E080EE94E00E941A0B83E070
:1052300090E00E94901C0E94501C64E072E080EE9E
:1052400094E00E941A0B84E090E00E94901C0E945F
:10525000801C04C36DED71E080EE94E00E941A0B97
:105260000E945B1E6091050170910601809107010B
:10527000909108012FEF3FEFA90120930501309392
:105280000601409307015093080140E10E940D1C64
:105290006FE272E080EE94E00E94050BDFC28D8524
:1052A0009E85AF85B8898C219D21AE21BF21892B98
:1052B0008A2B8B2B39F080E392E00E948E1E8AE9C4
:1052C00096E006C080E392E00E948E1E80E392E0AA
:1052D0000E947C1EF694E794D794C794015011095C
:1052E000F1F680E392E00E948E1E809180008F771D
:1052F0008093800065E070E080E090E00E942522CD
:105300000E945B1EABC23F922F927F926F925F9280
:105310004F923C853F934B854F9386EE91E09F9350
:105320008F938A858F9389858F930E942638E98091
:10533000FB801D816F8178850FB6F894DEBF0FBEAC
:10534000CDBF6115710571F40E2D2F2D412F60E039
:1053500070E086ED96E00E94A20C2F2D412F61E0B7
:1053600070E005C0615071090E2D2F2D412F86ED83
:1053700096E00E94A20C86ED96E03AC03F922F92F2
:105380007F926F925F924F929C859F93AB85AF9374
:1053900086EE91E09F938F938A858F9389858F9373
:1053A0000E942638E980FB801D816F8178850FB6C9
:1053B000F894DEBF0FBECDBF6115710571F40E2DDF
:1053C0002F2D412F60E070E081EC96E00E94A20C4E
:1053D0002F2D412F61E070E005C0615071090E2D45
:1053E0002F2D412F81EC96E00E94A20C81EC96E0DB
:1053F0000E94250D33C289859A850E941F0E2EC2F8
:105400003F922F927F926F929F928F928A858F9375
:1054100089858F930E9426386B817C816554710940
:10542000072E000C880B990B0E94813120E030E0A0
:1054300040E451E40E94CB339B01AC0160E070E09A
:1054400080E090E40E94783429813A814DE7429FC0
:105450008001439F100D112420E030E04CED53E417
:105460000E94E0310E943D34DC01CB01A801B8016B
:105470000E940E0EC4C11192119256E0EB3AF5074C
:10548000D1F781E080939406809395061092970659
:1054900081E090E09093930680939206909391061A
:1054A00080939006F80101900020E9F731979F0161
:1054B000201B310B4BEF42036001439FD00C1124A2
:1054C0008AE0C81AD10895E0E916F10424F06FE0EB
:1054D000E62EF12C2FC010928D0610928C061092A1
:1054E0008F0610928E06B80180E896E00E941A0B93
:1054F0000E94041425C011921192ABEAB6E0AE17D7
:10550000BF07C9F7F0928D06E0928C0610928F06C5
:1055100010928E06B80180E896E00E941A0B0E9455
:10552000041464E670E080E090E00E942522B1E07F
:10553000EB1AF108EC14FD041CF0EBE9F6E0DBCF0C
:1055400083EF91E0B0C0C984DA8401E512E076010E
:10555000E0E2EE0EF11CD6018C91809302011196CF
:105560008C9111978093030112968C9112978093DE
:10557000000113968C918093010140E150E060E0BE
:1055800070E080E091E00E945A2EF80161937193DF
:105590008F01F4E0CF0ED11CEC14FD04E1F60E9463
:1055A0002F14EBE9F6E08BEA96E0119211928E1738
:1055B0009F07D9F7D12CE12CF12C9701220F331F33
:1055C0003E872D8700E010E0C80187709927892B5E
:1055D00011F0DD0C0DC0F80143E0F595E7954A9513
:1055E000E1F74D855E85E40FF51FEF5AFD4FD08042
:1055F000D7FE08C021E030E0A701B80180E896E0BE
:105600000E9469140F5F1F4F00311105E9F65FEF2B
:10561000E51AF50A88E0E816F10479F60E94041408
:105620001DC13F922F927F926F925F924F929C8505
:105630009F93AB85AF9386EE91E09F938F938A857E
:105640008F9389858F930E942638C980DB801D81C6
:105650006F8178850FB6F894DEBF0FBECDBF6115A0
:10566000710591F4E12CF12C0C2D2D2D412FB7015A
:105670008CEA96E00E94A20CFFEFEF1AFF0A20E1ED
:10568000E216F10489F709C0615071090C2D2D2D26
:10569000412F8CEA96E00E94A20C8CEA96E00E94D0
:1056A000250D87EF91E00E94A01ED8C089859A85BC
:1056B0000E94742F32C082E190E00E94091810927B
:1056C0000407109203071092F7061092F806109242
:1056D000F9061092FA061092FB061092FC06109240
:1056E000FD061092FE061092FF061092000710921F
:1056F000010710920207E2E0F0E0F0935002E0931D
:105700004F02ACC08EE090E00E94091823E030E028
:105710003093500220934F02A1C00E9409189EC0EE
:1057200061E08CE00E944E2161E08AE00E944E21FF
:105730008AE00E94A21161E0892B09F060E08AE012
:105740000E94B9138CE00E94A21161E0892B09F03C
:1057500060E08CE00E94B91381C03F922F927F924B
:105760006F929F928F928A858F9389858F930E94E3
:10577000263889819A81880F991F2B813C81B90134
:10578000681B790B38C03F922F927F926F925F9285
:105790004F92A9EEB1E0BF93AF938A858F9389852D
:1057A0008F930E94263809811A816B817C818D81BB
:1057B0009E810E94491BB801110F880B990B0E9412
:1057C000252260E070E080E090E00E94491B8BEFB2
:1057D00091E00E94A01E13C060E072E080EE94E0B1
:1057E0000E941A0B6091B2047091B3048091B404CA
:1057F0009091B504CDCC820F931F0E94491B0FB628
:10580000F894DEBF0FBECDBF29C03F922F92BF924A
:10581000AF928A858F9389858F930E9426388981DC
:105820009A819093B7048093B6049093B9048093BF
:10583000B8049093BB048093BA049093BD04809302
:10584000BC049093BF048093BE040F900F900F9000
:105850000F900F900F9002C00E94A91980E4A1E65A
:10586000B2E01D928A95E9F71092A102A6C90E94A2
:10587000400749C823E1289F8001299F100D11246A
:10588000015E184F81E0F801808385E090E0A0E0A0
:10589000B0E081839283A383B4838FEF9FEF9683DD
:1058A000858389E298E1928781870E945F22D801EF
:1058B0001D966D937D938D939C93509752961C9259
:1058C0001E92519717C8CF93DF93EC018885998575
:1058D000009711F00E94BB368E8187FD05C060E005
:1058E000DF91CF910C944E21DF91CF910895EF92EB
:1058F000FF920F931F93CF93DF93EC017B011982EB
:105900001F821E861F86188A198A81E08D878A87E2
:105910001B8692E09C8788838B01000F111F060F66
:10592000171F1D830C83C8010E942336998788871F
:10593000009741F0A80160E070E00E941838FB82F7
:10594000EA8204C01D821C821B821A8266E0CE019C
:10595000DF91CF911F910F91FF90EF900C94F30C7A
:105960008CEA96E00E94632C81EC96E00E94632C06
:1059700086ED96E00C94632CCF92DF92EF92FF922B
:105980001092E3041092E20488EEC82E83E0D82E31
:10599000E12CF12CC092E404D092E504E092E604FC
:1059A000F092E70482E691E09093E1048093E004B2
:1059B00085EC90E09093ED048093EC0484EC90E00F
:1059C0009093EF048093EE0480EC90E09093F104C8
:1059D0008093F00481EC90E09093F3048093F204C0
:1059E00082EC90E09093F5048093F40486EC90E0D0
:1059F0009093F7048093F6041092F9041092FA043D
:105A00001092FB041092FC041092800510927F0506
:105A1000C0928105D0928205E0928305F0928405C0
:105A200084E791E090937E0580937D0562E070E0CD
:105A300086ED96E00E94772C62E070E081EC96E0C3
:105A40000E94772C60E170E08CEA96E00E94772C4F
:105A5000109283061092820620E130E03093850692
:105A60002093840688E090E09093870680938606D2
:105A7000309389062093880690938B0680938A063C
:105A80001092960610928D0610928C0610928F0638
:105A900010928E0681E080939506809394062FEFF6
:105AA0003FEF309393062093920630939106209314
:105AB0009006809397061092980610929A0610927C
:105AC000990686E891E0909381068093800682E0B3
:105AD0008093AE051092B0051092EE061092ED067E
